{
  "contractName": "DataManagement",
  "abi": [
    {
      "inputs": [
        {
          "internalType": "bytes32",
          "name": "",
          "type": "bytes32"
        }
      ],
      "name": "Invmatch_result",
      "outputs": [
        {
          "internalType": "bytes32",
          "name": "userID",
          "type": "bytes32"
        },
        {
          "internalType": "bytes32",
          "name": "names",
          "type": "bytes32"
        },
        {
          "internalType": "uint256",
          "name": "t_amounts",
          "type": "uint256"
        },
        {
          "internalType": "uint256",
          "name": "i_returns",
          "type": "uint256"
        }
      ],
      "stateMutability": "view",
      "type": "function",
      "constant": true
    },
    {
      "inputs": [
        {
          "internalType": "bytes32",
          "name": "",
          "type": "bytes32"
        }
      ],
      "name": "match_result",
      "outputs": [
        {
          "internalType": "bytes32",
          "name": "userID",
          "type": "bytes32"
        },
        {
          "internalType": "uint256",
          "name": "investment_return",
          "type": "uint256"
        },
        {
          "internalType": "uint256",
          "name": "investment_amount",
          "type": "uint256"
        }
      ],
      "stateMutability": "view",
      "type": "function",
      "constant": true
    },
    {
      "inputs": [
        {
          "internalType": "string",
          "name": "id",
          "type": "string"
        },
        {
          "internalType": "string",
          "name": "eventnumber",
          "type": "string"
        },
        {
          "internalType": "string",
          "name": "project_Name",
          "type": "string"
        },
        {
          "internalType": "string",
          "name": "project_Indtroduce",
          "type": "string"
        },
        {
          "internalType": "string",
          "name": "project_Endday",
          "type": "string"
        },
        {
          "internalType": "uint256",
          "name": "Target_Amount",
          "type": "uint256"
        },
        {
          "internalType": "uint256",
          "name": "interest_Return",
          "type": "uint256"
        }
      ],
      "name": "set_ProjectData",
      "outputs": [],
      "stateMutability": "nonpayable",
      "type": "function"
    },
    {
      "inputs": [
        {
          "internalType": "string",
          "name": "id",
          "type": "string"
        },
        {
          "internalType": "string",
          "name": "eventnumber",
          "type": "string"
        }
      ],
      "name": "get_UniqueProjectData",
      "outputs": [
        {
          "internalType": "string",
          "name": "",
          "type": "string"
        },
        {
          "internalType": "string",
          "name": "",
          "type": "string"
        },
        {
          "internalType": "string",
          "name": "",
          "type": "string"
        },
        {
          "internalType": "uint256",
          "name": "",
          "type": "uint256"
        },
        {
          "internalType": "uint256",
          "name": "",
          "type": "uint256"
        }
      ],
      "stateMutability": "view",
      "type": "function",
      "constant": true
    },
    {
      "inputs": [],
      "name": "getAllProjectData",
      "outputs": [
        {
          "internalType": "bytes32[]",
          "name": "",
          "type": "bytes32[]"
        },
        {
          "internalType": "bytes32[]",
          "name": "",
          "type": "bytes32[]"
        },
        {
          "internalType": "bytes32[]",
          "name": "",
          "type": "bytes32[]"
        },
        {
          "internalType": "bytes32[]",
          "name": "",
          "type": "bytes32[]"
        },
        {
          "internalType": "uint256[]",
          "name": "",
          "type": "uint256[]"
        },
        {
          "internalType": "uint256[]",
          "name": "",
          "type": "uint256[]"
        }
      ],
      "stateMutability": "view",
      "type": "function",
      "constant": true
    },
    {
      "inputs": [
        {
          "internalType": "string",
          "name": "id",
          "type": "string"
        },
        {
          "internalType": "string",
          "name": "investment_number",
          "type": "string"
        },
        {
          "internalType": "string",
          "name": "investment_Duration",
          "type": "string"
        },
        {
          "internalType": "uint256",
          "name": "investment_Return",
          "type": "uint256"
        },
        {
          "internalType": "uint256",
          "name": "investment_Amount",
          "type": "uint256"
        }
      ],
      "name": "set_FundertData",
      "outputs": [],
      "stateMutability": "nonpayable",
      "type": "function"
    },
    {
      "inputs": [
        {
          "internalType": "string",
          "name": "id",
          "type": "string"
        },
        {
          "internalType": "string",
          "name": "investment_number",
          "type": "string"
        }
      ],
      "name": "get_UniqueFunderData",
      "outputs": [
        {
          "internalType": "string",
          "name": "",
          "type": "string"
        },
        {
          "internalType": "string",
          "name": "",
          "type": "string"
        },
        {
          "internalType": "uint256",
          "name": "",
          "type": "uint256"
        },
        {
          "internalType": "uint256",
          "name": "",
          "type": "uint256"
        },
        {
          "internalType": "uint256",
          "name": "",
          "type": "uint256"
        }
      ],
      "stateMutability": "view",
      "type": "function",
      "constant": true
    },
    {
      "inputs": [],
      "name": "get_allFunderData",
      "outputs": [
        {
          "internalType": "bytes32[]",
          "name": "",
          "type": "bytes32[]"
        },
        {
          "internalType": "bytes32[]",
          "name": "",
          "type": "bytes32[]"
        },
        {
          "internalType": "uint256[]",
          "name": "",
          "type": "uint256[]"
        },
        {
          "internalType": "uint256[]",
          "name": "",
          "type": "uint256[]"
        },
        {
          "internalType": "uint256[]",
          "name": "",
          "type": "uint256[]"
        }
      ],
      "stateMutability": "view",
      "type": "function",
      "constant": true
    },
    {
      "inputs": [],
      "name": "matching",
      "outputs": [],
      "stateMutability": "nonpayable",
      "type": "function"
    },
    {
      "inputs": [
        {
          "internalType": "bytes32",
          "name": "id",
          "type": "bytes32"
        }
      ],
      "name": "get_MatchingData",
      "outputs": [
        {
          "internalType": "bytes32",
          "name": "",
          "type": "bytes32"
        },
        {
          "internalType": "uint256",
          "name": "",
          "type": "uint256"
        },
        {
          "internalType": "uint256",
          "name": "",
          "type": "uint256"
        }
      ],
      "stateMutability": "view",
      "type": "function",
      "constant": true
    },
    {
      "inputs": [
        {
          "internalType": "bytes32",
          "name": "id",
          "type": "bytes32"
        }
      ],
      "name": "get_InvMatchingData",
      "outputs": [
        {
          "internalType": "bytes32",
          "name": "",
          "type": "bytes32"
        },
        {
          "internalType": "bytes32",
          "name": "",
          "type": "bytes32"
        },
        {
          "internalType": "uint256",
          "name": "",
          "type": "uint256"
        },
        {
          "internalType": "uint256",
          "name": "",
          "type": "uint256"
        }
      ],
      "stateMutability": "view",
      "type": "function",
      "constant": true
    },
    {
      "inputs": [],
      "name": "get_counted",
      "outputs": [
        {
          "internalType": "uint256",
          "name": "",
          "type": "uint256"
        }
      ],
      "stateMutability": "view",
      "type": "function",
      "constant": true
    },
    {
      "inputs": [
        {
          "internalType": "bytes32",
          "name": "enterID",
          "type": "bytes32"
        }
      ],
      "name": "get_Txnaddr",
      "outputs": [
        {
          "internalType": "address",
          "name": "",
          "type": "address"
        }
      ],
      "stateMutability": "view",
      "type": "function",
      "constant": true
    },
    {
      "inputs": [
        {
          "internalType": "address",
          "name": "addr",
          "type": "address"
        }
      ],
      "name": "set_txn",
      "outputs": [],
      "stateMutability": "nonpayable",
      "type": "function"
    },
    {
      "inputs": [
        {
          "internalType": "address",
          "name": "addr",
          "type": "address"
        }
      ],
      "name": "get_TXNFunderWallet",
      "outputs": [
        {
          "internalType": "bytes32",
          "name": "",
          "type": "bytes32"
        },
        {
          "internalType": "uint256",
          "name": "",
          "type": "uint256"
        },
        {
          "internalType": "uint256",
          "name": "",
          "type": "uint256"
        },
        {
          "internalType": "uint256",
          "name": "",
          "type": "uint256"
        },
        {
          "internalType": "uint256",
          "name": "",
          "type": "uint256"
        }
      ],
      "stateMutability": "view",
      "type": "function",
      "constant": true
    },
    {
      "inputs": [
        {
          "internalType": "address",
          "name": "addr",
          "type": "address"
        }
      ],
      "name": "get_TXNEnterpriserWallet",
      "outputs": [
        {
          "internalType": "bytes32",
          "name": "",
          "type": "bytes32"
        },
        {
          "internalType": "string",
          "name": "",
          "type": "string"
        },
        {
          "internalType": "uint256",
          "name": "",
          "type": "uint256"
        },
        {
          "internalType": "uint256",
          "name": "",
          "type": "uint256"
        },
        {
          "internalType": "uint256",
          "name": "",
          "type": "uint256"
        },
        {
          "internalType": "uint256",
          "name": "",
          "type": "uint256"
        }
      ],
      "stateMutability": "view",
      "type": "function",
      "constant": true
    }
  ],
  "bytecode": "0x60806040526040516200001290620001b6565b604051809103906000f0801580156200002f573d6000803e3d6000fd5b50600360006101000a81548173ffffffffffffffffffffffffffffffffffffffff021916908373ffffffffffffffffffffffffffffffffffffffff1602179055506040516200007e90620001c4565b604051809103906000f0801580156200009b573d6000803e3d6000fd5b50600460006101000a81548173ffffffffffffffffffffffffffffffffffffffff021916908373ffffffffffffffffffffffffffffffffffffffff160217905550600360009054906101000a900473ffffffffffffffffffffffffffffffffffffffff16600560006101000a81548173ffffffffffffffffffffffffffffffffffffffff021916908373ffffffffffffffffffffffffffffffffffffffff160217905550600460009054906101000a900473ffffffffffffffffffffffffffffffffffffffff16600660006101000a81548173ffffffffffffffffffffffffffffffffffffffff021916908373ffffffffffffffffffffffffffffffffffffffff160217905550348015620001af57600080fd5b50620001d2565b6120008062003d0a83390190565b61168e8062005d0a83390190565b613b2880620001e26000396000f3fe608060405234801561001057600080fd5b50600436106101005760003560e01c806397dd71b811610097578063c227fb3611610066578063c227fb3614610cb5578063cacfd68b14610cf9578063e6b52e9f14610ec0578063ef2b438d14610fa057610100565b806397dd71b8146107ad57806399e0f259146109aa578063ae5ec2e9146109fa578063bf12355314610a0457610100565b80635f62fc8e116100d35780635f62fc8e1461023f578063697bd4a41461056a5780638735ef62146105ba57806390f765571461073957610100565b8063222847be1461010557806336f2b2b8146101735780633ffc829c146101ca5780634740ac5714610221575b600080fd5b6101316004803603602081101561011b57600080fd5b81019080803590602001909291905050506111ec565b604051808273ffffffffffffffffffffffffffffffffffffffff1673ffffffffffffffffffffffffffffffffffffffff16815260200191505060405180910390f35b61019f6004803603602081101561018957600080fd5b8101908080359060200190929190505050611228565b6040518085815260200184815260200183815260200182815260200194505050505060405180910390f35b6101f6600480360360208110156101e057600080fd5b81019080803590602001909291905050506112a2565b6040518085815260200184815260200183815260200182815260200194505050505060405180910390f35b6102296112d2565b6040518082815260200191505060405180910390f35b610568600480360360e081101561025557600080fd5b810190808035906020019064010000000081111561027257600080fd5b82018360208201111561028457600080fd5b803590602001918460018302840111640100000000831117156102a657600080fd5b91908080601f016020809104026020016040519081016040528093929190818152602001838380828437600081840152601f19601f8201169050808301925050505050505091929192908035906020019064010000000081111561030957600080fd5b82018360208201111561031b57600080fd5b8035906020019184600183028401116401000000008311171561033d57600080fd5b91908080601f016020809104026020016040519081016040528093929190818152602001838380828437600081840152601f19601f820116905080830192505050505050509192919290803590602001906401000000008111156103a057600080fd5b8201836020820111156103b257600080fd5b803590602001918460018302840111640100000000831117156103d457600080fd5b91908080601f016020809104026020016040519081016040528093929190818152602001838380828437600081840152601f19601f8201169050808301925050505050505091929192908035906020019064010000000081111561043757600080fd5b82018360208201111561044957600080fd5b8035906020019184600183028401116401000000008311171561046b57600080fd5b91908080601f016020809104026020016040519081016040528093929190818152602001838380828437600081840152601f19601f820116905080830192505050505050509192919290803590602001906401000000008111156104ce57600080fd5b8201836020820111156104e057600080fd5b8035906020019184600183028401116401000000008311171561050257600080fd5b91908080601f016020809104026020016040519081016040528093929190818152602001838380828437600081840152601f19601f82011690508083019250505050505050919291929080359060200190929190803590602001909291905050506112dc565b005b6105966004803603602081101561058057600080fd5b81019080803590602001909291905050506115a1565b60405180848152602001838152602001828152602001935050505060405180910390f35b6105c2611609565b60405180806020018060200180602001806020018060200186810386528b818151815260200191508051906020019060200280838360005b838110156106155780820151818401526020810190506105fa565b5050505090500186810385528a818151815260200191508051906020019060200280838360005b8381101561065757808201518184015260208101905061063c565b50505050905001868103845289818151815260200191508051906020019060200280838360005b8381101561069957808201518184015260208101905061067e565b50505050905001868103835288818151815260200191508051906020019060200280838360005b838110156106db5780820151818401526020810190506106c0565b50505050905001868103825287818151815260200191508051906020019060200280838360005b8381101561071d578082015181840152602081019050610702565b505050509050019a505050505050505050505060405180910390f35b61077b6004803603602081101561074f57600080fd5b81019080803573ffffffffffffffffffffffffffffffffffffffff1690602001909291905050506119d7565b604051808681526020018581526020018481526020018381526020018281526020019550505050505060405180910390f35b6109a8600480360360a08110156107c357600080fd5b81019080803590602001906401000000008111156107e057600080fd5b8201836020820111156107f257600080fd5b8035906020019184600183028401116401000000008311171561081457600080fd5b91908080601f016020809104026020016040519081016040528093929190818152602001838380828437600081840152601f19601f8201169050808301925050505050505091929192908035906020019064010000000081111561087757600080fd5b82018360208201111561088957600080fd5b803590602001918460018302840111640100000000831117156108ab57600080fd5b91908080601f016020809104026020016040519081016040528093929190818152602001838380828437600081840152601f19601f8201169050808301925050505050505091929192908035906020019064010000000081111561090e57600080fd5b82018360208201111561092057600080fd5b8035906020019184600183028401116401000000008311171561094257600080fd5b91908080601f016020809104026020016040519081016040528093929190818152602001838380828437600081840152601f19601f8201169050808301925050505050505091929192908035906020019092919080359060200190929190505050611ac6565b005b6109d6600480360360208110156109c057600080fd5b8101908080359060200190929190505050611caf565b60405180848152602001838152602001828152602001935050505060405180910390f35b610a02611cd9565b005b610b5460048036036040811015610a1a57600080fd5b8101908080359060200190640100000000811115610a3757600080fd5b820183602082011115610a4957600080fd5b80359060200191846001830284011164010000000083111715610a6b57600080fd5b91908080601f016020809104026020016040519081016040528093929190818152602001838380828437600081840152601f19601f82011690508083019250505050505050919291929080359060200190640100000000811115610ace57600080fd5b820183602082011115610ae057600080fd5b80359060200191846001830284011164010000000083111715610b0257600080fd5b91908080601f016020809104026020016040519081016040528093929190818152602001838380828437600081840152601f19601f8201169050808301925050505050505091929192905050506120e1565b60405180806020018060200180602001868152602001858152602001848103845289818151815260200191508051906020019080838360005b83811015610ba8578082015181840152602081019050610b8d565b50505050905090810190601f168015610bd55780820380516001836020036101000a031916815260200191505b50848103835288818151815260200191508051906020019080838360005b83811015610c0e578082015181840152602081019050610bf3565b50505050905090810190601f168015610c3b5780820380516001836020036101000a031916815260200191505b50848103825287818151815260200191508051906020019080838360005b83811015610c74578082015181840152602081019050610c59565b50505050905090810190601f168015610ca15780820380516001836020036101000a031916815260200191505b509850505050505050505060405180910390f35b610cf760048036036020811015610ccb57600080fd5b81019080803573ffffffffffffffffffffffffffffffffffffffff1690602001909291905050506124ec565b005b610d01612555565b6040518080602001806020018060200180602001806020018060200187810387528d818151815260200191508051906020019060200280838360005b83811015610d58578082015181840152602081019050610d3d565b5050505090500187810386528c818151815260200191508051906020019060200280838360005b83811015610d9a578082015181840152602081019050610d7f565b5050505090500187810385528b818151815260200191508051906020019060200280838360005b83811015610ddc578082015181840152602081019050610dc1565b5050505090500187810384528a818151815260200191508051906020019060200280838360005b83811015610e1e578082015181840152602081019050610e03565b50505050905001878103835289818151815260200191508051906020019060200280838360005b83811015610e60578082015181840152602081019050610e45565b50505050905001878103825288818151815260200191508051906020019060200280838360005b83811015610ea2578082015181840152602081019050610e87565b505050509050019c5050505050505050505050505060405180910390f35b610f0260048036036020811015610ed657600080fd5b81019080803573ffffffffffffffffffffffffffffffffffffffff1690602001909291905050506129c1565b6040518087815260200180602001868152602001858152602001848152602001838152602001828103825287818151815260200191508051906020019080838360005b83811015610f60578082015181840152602081019050610f45565b50505050905090810190601f168015610f8d5780820380516001836020036101000a031916815260200191505b5097505050505050505060405180910390f35b6110f060048036036040811015610fb657600080fd5b8101908080359060200190640100000000811115610fd357600080fd5b820183602082011115610fe557600080fd5b8035906020019184600183028401116401000000008311171561100757600080fd5b91908080601f016020809104026020016040519081016040528093929190818152602001838380828437600081840152601f19601f8201169050808301925050505050505091929192908035906020019064010000000081111561106a57600080fd5b82018360208201111561107c57600080fd5b8035906020019184600183028401116401000000008311171561109e57600080fd5b91908080601f016020809104026020016040519081016040528093929190818152602001838380828437600081840152601f19601f820116905080830192505050505050509192919290505050612b88565b604051808060200180602001868152602001858152602001848152602001838103835288818151815260200191508051906020019080838360005b8381101561114657808201518184015260208101905061112b565b50505050905090810190601f1680156111735780820380516001836020036101000a031916815260200191505b50838103825287818151815260200191508051906020019080838360005b838110156111ac578082015181840152602081019050611191565b50505050905090810190601f1680156111d95780820380516001836020036101000a031916815260200191505b5097505050505050505060405180910390f35b600080600083815260200190815260200160002060009054906101000a900473ffffffffffffffffffffffffffffffffffffffff169050919050565b600080600080611236612ee5565b60026000878152602001908152602001600020604051806080016040529081600082015481526020016001820154815260200160028201548152602001600382015481525050905080600001518160200151826040015183606001519450945094509450509193509193565b60026020528060005260406000206000915090508060000154908060010154908060020154908060030154905084565b6000600754905090565b6000600560009054906101000a900473ffffffffffffffffffffffffffffffffffffffff1690508073ffffffffffffffffffffffffffffffffffffffff1663ab976f99898989898989896040518863ffffffff1660e01b815260040180806020018060200180602001806020018060200188815260200187815260200186810386528d818151815260200191508051906020019080838360005b83811015611391578082015181840152602081019050611376565b50505050905090810190601f1680156113be5780820380516001836020036101000a031916815260200191505b5086810385528c818151815260200191508051906020019080838360005b838110156113f75780820151818401526020810190506113dc565b50505050905090810190601f1680156114245780820380516001836020036101000a031916815260200191505b5086810384528b818151815260200191508051906020019080838360005b8381101561145d578082015181840152602081019050611442565b50505050905090810190601f16801561148a5780820380516001836020036101000a031916815260200191505b5086810383528a818151815260200191508051906020019080838360005b838110156114c35780820151818401526020810190506114a8565b50505050905090810190601f1680156114f05780820380516001836020036101000a031916815260200191505b50868103825289818151815260200191508051906020019080838360005b8381101561152957808201518184015260208101905061150e565b50505050905090810190601f1680156115565780820380516001836020036101000a031916815260200191505b509c50505050505050505050505050600060405180830381600087803b15801561157f57600080fd5b505af1158015611593573d6000803e3d6000fd5b505050505050505050505050565b60008060006115ae612f13565b6001600086815260200190815260200160002060405180606001604052908160008201548152602001600182015481526020016002820154815250509050806000015181602001518260400151935093509350509193909250565b60608060608060606000600660009054906101000a900473ffffffffffffffffffffffffffffffffffffffff16905060608060608060608573ffffffffffffffffffffffffffffffffffffffff1663fa645d996040518163ffffffff1660e01b815260040160006040518083038186803b15801561168657600080fd5b505afa15801561169a573d6000803e3d6000fd5b505050506040513d6000823e3d601f19601f8201168201806040525060a08110156116c457600080fd5b81019080805160405193929190846401000000008211156116e457600080fd5b838201915060208201858111156116fa57600080fd5b825186602082028301116401000000008211171561171757600080fd5b8083526020830192505050908051906020019060200280838360005b8381101561174e578082015181840152602081019050611733565b505050509050016040526020018051604051939291908464010000000082111561177757600080fd5b8382019150602082018581111561178d57600080fd5b82518660208202830111640100000000821117156117aa57600080fd5b8083526020830192505050908051906020019060200280838360005b838110156117e15780820151818401526020810190506117c6565b505050509050016040526020018051604051939291908464010000000082111561180a57600080fd5b8382019150602082018581111561182057600080fd5b825186602082028301116401000000008211171561183d57600080fd5b8083526020830192505050908051906020019060200280838360005b83811015611874578082015181840152602081019050611859565b505050509050016040526020018051604051939291908464010000000082111561189d57600080fd5b838201915060208201858111156118b357600080fd5b82518660208202830111640100000000821117156118d057600080fd5b8083526020830192505050908051906020019060200280838360005b838110156119075780820151818401526020810190506118ec565b505050509050016040526020018051604051939291908464010000000082111561193057600080fd5b8382019150602082018581111561194657600080fd5b825186602082028301116401000000008211171561196357600080fd5b8083526020830192505050908051906020019060200280838360005b8381101561199a57808201518184015260208101905061197f565b50505050905001604052505050809550819650829750839850849950505050505084848484849a509a509a509a509a505050505050509091929394565b60008060008060008086905060008060008060008573ffffffffffffffffffffffffffffffffffffffff166357cb61d26040518163ffffffff1660e01b815260040160a06040518083038186803b158015611a3157600080fd5b505afa158015611a45573d6000803e3d6000fd5b505050506040513d60a0811015611a5b57600080fd5b810190808051906020019092919080519060200190929190805190602001909291908051906020019092919080519060200190929190505050809550819650829750839850849950505050505084848484849a509a509a509a509a5050505050505091939590929450565b6000600660009054906101000a900473ffffffffffffffffffffffffffffffffffffffff1690508073ffffffffffffffffffffffffffffffffffffffff1663f545487287878787876040518663ffffffff1660e01b815260040180806020018060200180602001868152602001858152602001848103845289818151815260200191508051906020019080838360005b83811015611b71578082015181840152602081019050611b56565b50505050905090810190601f168015611b9e5780820380516001836020036101000a031916815260200191505b50848103835288818151815260200191508051906020019080838360005b83811015611bd7578082015181840152602081019050611bbc565b50505050905090810190601f168015611c045780820380516001836020036101000a031916815260200191505b50848103825287818151815260200191508051906020019080838360005b83811015611c3d578082015181840152602081019050611c22565b50505050905090810190601f168015611c6a5780820380516001836020036101000a031916815260200191505b5098505050505050505050600060405180830381600087803b158015611c8f57600080fd5b505af1158015611ca3573d6000803e3d6000fd5b50505050505050505050565b60016020528060005260406000206000915090508060000154908060010154908060020154905083565b6060806060806060806060806000611cef612555565b90919250909150809950819a50829b50839c5050505050611d0e611609565b909192508095508196508297508398505050505060008090505b89518110156120ce5760008a51905060008090505b8751811015611dd857888381518110611d5257fe5b6020026020010151878281518110611d6657fe5b602002602001015111158015611da25750898381518110611d8357fe5b6020026020010151868281518110611d9757fe5b602002602001015110155b8015611dc257506000858281518110611db757fe5b602002602001015114155b15611dcb578091505b8080600101915050611d3d565b508a5181146120c0576040518060600160405280888381518110611df857fe5b60200260200101518152602001878381518110611e1157fe5b60200260200101518152602001868381518110611e2a57fe5b6020026020010151815250600160008d8581518110611e4557fe5b6020026020010151815260200190815260200160002060008201518160000155602082015181600101556040820151816002015590505060405180608001604052808c8481518110611e9357fe5b602002602001015181526020018b8481518110611eac57fe5b602002602001015181526020018a8481518110611ec557fe5b60200260200101518152602001898481518110611ede57fe5b602002602001015181525060026000898481518110611ef957fe5b60200260200101518152602001908152602001600020600082015181600001556020820151816001015560408201518160020155606082015181600301559050506000848281518110611f4857fe5b60200260200101818152505060008b8381518110611f6257fe5b6020026020010151888381518110611f7657fe5b602002602001015130604051611f8b90612f37565b808481526020018381526020018273ffffffffffffffffffffffffffffffffffffffff1673ffffffffffffffffffffffffffffffffffffffff1681526020019350505050604051809103906000f080158015611feb573d6000803e3d6000fd5b509050806000808e8681518110611ffe57fe5b6020026020010151815260200190815260200160002060006101000a81548173ffffffffffffffffffffffffffffffffffffffff021916908373ffffffffffffffffffffffffffffffffffffffff160217905550806000808a858151811061206257fe5b6020026020010151815260200190815260200160002060006101000a81548173ffffffffffffffffffffffffffffffffffffffff021916908373ffffffffffffffffffffffffffffffffffffffff1602179055508380600101945050505b508080600101915050611d28565b5080600781905550505050505050505050565b60608060606000806000600560009054906101000a900473ffffffffffffffffffffffffffffffffffffffff16905060608060606000808573ffffffffffffffffffffffffffffffffffffffff166326ca9e358e8e6040518363ffffffff1660e01b8152600401808060200180602001838103835285818151815260200191508051906020019080838360005b8381101561218957808201518184015260208101905061216e565b50505050905090810190601f1680156121b65780820380516001836020036101000a031916815260200191505b50838103825284818151815260200191508051906020019080838360005b838110156121ef5780820151818401526020810190506121d4565b50505050905090810190601f16801561221c5780820380516001836020036101000a031916815260200191505b5094505050505060006040518083038186803b15801561223b57600080fd5b505afa15801561224f573d6000803e3d6000fd5b505050506040513d6000823e3d601f19601f8201168201806040525060a081101561227957600080fd5b810190808051604051939291908464010000000082111561229957600080fd5b838201915060208201858111156122af57600080fd5b82518660018202830111640100000000821117156122cc57600080fd5b8083526020830192505050908051906020019080838360005b838110156123005780820151818401526020810190506122e5565b50505050905090810190601f16801561232d5780820380516001836020036101000a031916815260200191505b506040526020018051604051939291908464010000000082111561235057600080fd5b8382019150602082018581111561236657600080fd5b825186600182028301116401000000008211171561238357600080fd5b8083526020830192505050908051906020019080838360005b838110156123b757808201518184015260208101905061239c565b50505050905090810190601f1680156123e45780820380516001836020036101000a031916815260200191505b506040526020018051604051939291908464010000000082111561240757600080fd5b8382019150602082018581111561241d57600080fd5b825186600182028301116401000000008211171561243a57600080fd5b8083526020830192505050908051906020019080838360005b8381101561246e578082015181840152602081019050612453565b50505050905090810190601f16801561249b5780820380516001836020036101000a031916815260200191505b506040526020018051906020019092919080519060200190929190505050809550819650829750839850849950505050505084848484849a509a509a509a509a505050505050509295509295909350565b60008190508073ffffffffffffffffffffffffffffffffffffffff1663ffc2afd16040518163ffffffff1660e01b8152600401600060405180830381600087803b15801561253957600080fd5b505af115801561254d573d6000803e3d6000fd5b505050505050565b6060806060806060806000600560009054906101000a900473ffffffffffffffffffffffffffffffffffffffff1690506060806060806060808673ffffffffffffffffffffffffffffffffffffffff1663113b4bc66040518163ffffffff1660e01b815260040160006040518083038186803b1580156125d457600080fd5b505afa1580156125e8573d6000803e3d6000fd5b505050506040513d6000823e3d601f19601f8201168201806040525060c081101561261257600080fd5b810190808051604051939291908464010000000082111561263257600080fd5b8382019150602082018581111561264857600080fd5b825186602082028301116401000000008211171561266557600080fd5b8083526020830192505050908051906020019060200280838360005b8381101561269c578082015181840152602081019050612681565b50505050905001604052602001805160405193929190846401000000008211156126c557600080fd5b838201915060208201858111156126db57600080fd5b82518660208202830111640100000000821117156126f857600080fd5b8083526020830192505050908051906020019060200280838360005b8381101561272f578082015181840152602081019050612714565b505050509050016040526020018051604051939291908464010000000082111561275857600080fd5b8382019150602082018581111561276e57600080fd5b825186602082028301116401000000008211171561278b57600080fd5b8083526020830192505050908051906020019060200280838360005b838110156127c25780820151818401526020810190506127a7565b50505050905001604052602001805160405193929190846401000000008211156127eb57600080fd5b8382019150602082018581111561280157600080fd5b825186602082028301116401000000008211171561281e57600080fd5b8083526020830192505050908051906020019060200280838360005b8381101561285557808201518184015260208101905061283a565b505050509050016040526020018051604051939291908464010000000082111561287e57600080fd5b8382019150602082018581111561289457600080fd5b82518660208202830111640100000000821117156128b157600080fd5b8083526020830192505050908051906020019060200280838360005b838110156128e85780820151818401526020810190506128cd565b505050509050016040526020018051604051939291908464010000000082111561291157600080fd5b8382019150602082018581111561292757600080fd5b825186602082028301116401000000008211171561294457600080fd5b8083526020830192505050908051906020019060200280838360005b8381101561297b578082015181840152602081019050612960565b50505050905001604052505050809650819750829850839950849a50859b505050505050508585858585859c509c509c509c509c509c5050505050505050909192939495565b600060606000806000806000879050600060606000806000808673ffffffffffffffffffffffffffffffffffffffff1663a1a646d56040518163ffffffff1660e01b815260040160006040518083038186803b158015612a2057600080fd5b505afa158015612a34573d6000803e3d6000fd5b505050506040513d6000823e3d601f19601f8201168201806040525060c0811015612a5e57600080fd5b810190808051906020019092919080516040519392919084640100000000821115612a8857600080fd5b83820191506020820185811115612a9e57600080fd5b8251866001820283011164010000000082111715612abb57600080fd5b8083526020830192505050908051906020019080838360005b83811015612aef578082015181840152602081019050612ad4565b50505050905090810190601f168015612b1c5780820380516001836020036101000a031916815260200191505b5060405260200180519060200190929190805190602001909291908051906020019092919080519060200190929190505050809650819750829850839950849a50859b505050505050508585858585859c509c509c509c509c509c505050505050505091939550919395565b606080600080600080600660009054906101000a900473ffffffffffffffffffffffffffffffffffffffff16905060608060008060008573ffffffffffffffffffffffffffffffffffffffff16639812497b8e8e6040518363ffffffff1660e01b8152600401808060200180602001838103835285818151815260200191508051906020019080838360005b83811015612c2f578082015181840152602081019050612c14565b50505050905090810190601f168015612c5c5780820380516001836020036101000a031916815260200191505b50838103825284818151815260200191508051906020019080838360005b83811015612c95578082015181840152602081019050612c7a565b50505050905090810190601f168015612cc25780820380516001836020036101000a031916815260200191505b5094505050505060006040518083038186803b158015612ce157600080fd5b505afa158015612cf5573d6000803e3d6000fd5b505050506040513d6000823e3d601f19601f8201168201806040525060a0811015612d1f57600080fd5b8101908080516040519392919084640100000000821115612d3f57600080fd5b83820191506020820185811115612d5557600080fd5b8251866001820283011164010000000082111715612d7257600080fd5b8083526020830192505050908051906020019080838360005b83811015612da6578082015181840152602081019050612d8b565b50505050905090810190601f168015612dd35780820380516001836020036101000a031916815260200191505b5060405260200180516040519392919084640100000000821115612df657600080fd5b83820191506020820185811115612e0c57600080fd5b8251866001820283011164010000000082111715612e2957600080fd5b8083526020830192505050908051906020019080838360005b83811015612e5d578082015181840152602081019050612e42565b50505050905090810190601f168015612e8a5780820380516001836020036101000a031916815260200191505b50604052602001805190602001909291908051906020019092919080519060200190929190505050809550819650829750839850849950505050505084848484849a509a509a509a509a505050505050509295509295909350565b6040518060800160405280600080191681526020016000801916815260200160008152602001600081525090565b60405180606001604052806000801916815260200160008152602001600081525090565b610bae80612f458339019056fe608060405234801561001057600080fd5b50604051610bae380380610bae8339818101604052606081101561003357600080fd5b81019080805190602001909291908051906020019092919080519060200190929190505050826000819055508160018190555080600260006101000a81548173ffffffffffffffffffffffffffffffffffffffff021916908373ffffffffffffffffffffffffffffffffffffffff160217905550600260009054906101000a900473ffffffffffffffffffffffffffffffffffffffff16600960006101000a81548173ffffffffffffffffffffffffffffffffffffffff021916908373ffffffffffffffffffffffffffffffffffffffff160217905550505050610a928061011c6000396000f3fe608060405234801561001057600080fd5b506004361061004c5760003560e01c806357cb61d21461005157806371f604571461008b578063a1a646d5146100a9578063ffc2afd11461014f575b600080fd5b610059610159565b604051808681526020018581526020018481526020018381526020018281526020019550505050505060405180910390f35b610093610190565b6040518082815260200191505060405180910390f35b6100b1610199565b6040518087815260200180602001868152602001858152602001848152602001838152602001828103825287818151815260200191508051906020019080838360005b8381101561010f5780820151818401526020810190506100f4565b50505050905090810190601f16801561013c5780820380516001836020036101000a031916815260200191505b5097505050505050505060405180910390f35b610157610275565b005b6000806000806000600a60000154600a60010154600a60020154600a60030154600a60040154945094509450945094509091929394565b60008054905090565b6000606060008060008060036000015460036001016003600201546003800154600360040154600360050154848054600181600116156101000203166002900480601f01602080910402602001604051908101604052809291908181526020018280546001816001161561010002031660029004801561025a5780601f1061022f5761010080835404028352916020019161025a565b820191906000526020600020905b81548152906001019060200180831161023d57829003601f168201915b50505050509450955095509550955095509550909192939495565b6000806000600960009054906101000a900473ffffffffffffffffffffffffffffffffffffffff1673ffffffffffffffffffffffffffffffffffffffff1663697bd4a46000546040518263ffffffff1660e01b81526004018082815260200191505060606040518083038186803b1580156102ef57600080fd5b505afa158015610303573d6000803e3d6000fd5b505050506040513d606081101561031957600080fd5b810190808051906020019092919080519060200190929190805190602001909291905050508093508194508295505050506040518060a00160405280848152602001838152602001828152602001600081526020016000815250600a6000820151816000015560208201518160010155604082015181600201556060820151816003015560808201518160040155905050606060008090505b60208160ff161080156103ff5750600060f81b6000548260ff16602081106103d657fe5b1a60f81b7effffffffffffffffffffffffffffffffffffffffffffffffffffffffffffff191614155b156104115780806001019150506103b2565b60608160ff1667ffffffffffffffff8111801561042d57600080fd5b506040519080825280601f01601f1916602001820160405280156104605781602001600182028036833780820191505090505b509050600091505b60208260ff161080156104b55750600060f81b6000548360ff166020811061048c57fe5b1a60f81b7effffffffffffffffffffffffffffffffffffffffffffffffffffffffffffff191614155b1561051a576000548260ff16602081106104cb57fe5b1a60f81b818360ff16815181106104de57fe5b60200101907effffffffffffffffffffffffffffffffffffffffffffffffffffffffffffff1916908160001a9053508180600101925050610468565b8092506060600080600960009054906101000a900473ffffffffffffffffffffffffffffffffffffffff1673ffffffffffffffffffffffffffffffffffffffff1663bf123553876040518263ffffffff1660e01b8152600401808060200180602001838103835284818151815260200191508051906020019080838360005b838110156105b4578082015181840152602081019050610599565b50505050905090810190601f1680156105e15780820380516001836020036101000a031916815260200191505b50838103825260018152602001807f3100000000000000000000000000000000000000000000000000000000000000815250602001935050505060006040518083038186803b15801561063357600080fd5b505afa158015610647573d6000803e3d6000fd5b505050506040513d6000823e3d601f19601f8201168201806040525060a081101561067157600080fd5b810190808051604051939291908464010000000082111561069157600080fd5b838201915060208201858111156106a757600080fd5b82518660018202830111640100000000821117156106c457600080fd5b8083526020830192505050908051906020019080838360005b838110156106f85780820151818401526020810190506106dd565b50505050905090810190601f1680156107255780820380516001836020036101000a031916815260200191505b506040526020018051604051939291908464010000000082111561074857600080fd5b8382019150602082018581111561075e57600080fd5b825186600182028301116401000000008211171561077b57600080fd5b8083526020830192505050908051906020019080838360005b838110156107af578082015181840152602081019050610794565b50505050905090810190601f1680156107dc5780820380516001836020036101000a031916815260200191505b50604052602001805160405193929190846401000000008211156107ff57600080fd5b8382019150602082018581111561081557600080fd5b825186600182028301116401000000008211171561083257600080fd5b8083526020830192505050908051906020019080838360005b8381101561086657808201518184015260208101905061084b565b50505050905090810190601f1680156108935780820380516001836020036101000a031916815260200191505b506040526020018051906020019092919080519060200190929190505050909192509091508093508194508295505050506040518060c001604052806000548152602001848152602001838152602001828152602001600081526020016000815250600360008201518160000155602082015181600101908051906020019061091d9291906109b7565b5060408201518160020155606082015181600301556080820151816004015560a08201518160050155905050600360020154600a6002015403600a6003018190555060646003600201546003800154028161097457fe5b04600a600401819055506003600201546003600401819055506064600360020154600380015402816109a257fe5b04600360050181905550505050505050505050565b828054600181600116156101000203166002900490600052602060002090601f016020900481019282601f106109f857805160ff1916838001178555610a26565b82800160010185558215610a26579182015b82811115610a25578251825591602001919060010190610a0a565b5b509050610a339190610a37565b5090565b610a5991905b80821115610a55576000816000905550600101610a3d565b5090565b9056fea2646970667358221220fb96fdd70826fd0bb18959cfdf2d46cb3c779d22c6af59f0130f02edb06e4d7364736f6c63430006060033a2646970667358221220bdc6080b367b1e6cbf27eac9b823b8bbbc46378ae04770287b0144e4d3c657e164736f6c63430006060033608060405234801561001057600080fd5b50611fe0806100206000396000f3fe608060405234801561001057600080fd5b50600436106100575760003560e01c806302a0f10e1461005c578063113b4bc61461037957806326ca9e351461054057806364634c8a146107f1578063ab976f99146109ea575b600080fd5b6101ac6004803603604081101561007257600080fd5b810190808035906020019064010000000081111561008f57600080fd5b8201836020820111156100a157600080fd5b803590602001918460018302840111640100000000831117156100c357600080fd5b91908080601f016020809104026020016040519081016040528093929190818152602001838380828437600081840152601f19601f8201169050808301925050505050505091929192908035906020019064010000000081111561012657600080fd5b82018360208201111561013857600080fd5b8035906020019184600183028401116401000000008311171561015a57600080fd5b91908080601f016020809104026020016040519081016040528093929190818152602001838380828437600081840152601f19601f820116905080830192505050505050509192919290505050610d15565b604051808060200180602001806020018060200187815260200186815260200185810385528b818151815260200191508051906020019080838360005b838110156102045780820151818401526020810190506101e9565b50505050905090810190601f1680156102315780820380516001836020036101000a031916815260200191505b5085810384528a818151815260200191508051906020019080838360005b8381101561026a57808201518184015260208101905061024f565b50505050905090810190601f1680156102975780820380516001836020036101000a031916815260200191505b50858103835289818151815260200191508051906020019080838360005b838110156102d05780820151818401526020810190506102b5565b50505050905090810190601f1680156102fd5780820380516001836020036101000a031916815260200191505b50858103825288818151815260200191508051906020019080838360005b8381101561033657808201518184015260208101905061031b565b50505050905090810190601f1680156103635780820380516001836020036101000a031916815260200191505b509a505050505050505050505060405180910390f35b610381610fea565b6040518080602001806020018060200180602001806020018060200187810387528d818151815260200191508051906020019060200280838360005b838110156103d85780820151818401526020810190506103bd565b5050505090500187810386528c818151815260200191508051906020019060200280838360005b8381101561041a5780820151818401526020810190506103ff565b5050505090500187810385528b818151815260200191508051906020019060200280838360005b8381101561045c578082015181840152602081019050610441565b5050505090500187810384528a818151815260200191508051906020019060200280838360005b8381101561049e578082015181840152602081019050610483565b50505050905001878103835289818151815260200191508051906020019060200280838360005b838110156104e05780820151818401526020810190506104c5565b50505050905001878103825288818151815260200191508051906020019060200280838360005b83811015610522578082015181840152602081019050610507565b505050509050019c5050505050505050505050505060405180910390f35b6106906004803603604081101561055657600080fd5b810190808035906020019064010000000081111561057357600080fd5b82018360208201111561058557600080fd5b803590602001918460018302840111640100000000831117156105a757600080fd5b91908080601f016020809104026020016040519081016040528093929190818152602001838380828437600081840152601f19601f8201169050808301925050505050505091929192908035906020019064010000000081111561060a57600080fd5b82018360208201111561061c57600080fd5b8035906020019184600183028401116401000000008311171561063e57600080fd5b91908080601f016020809104026020016040519081016040528093929190818152602001838380828437600081840152601f19601f8201169050808301925050505050505091929192905050506115fc565b60405180806020018060200180602001868152602001858152602001848103845289818151815260200191508051906020019080838360005b838110156106e45780820151818401526020810190506106c9565b50505050905090810190601f1680156107115780820380516001836020036101000a031916815260200191505b50848103835288818151815260200191508051906020019080838360005b8381101561074a57808201518184015260208101905061072f565b50505050905090810190601f1680156107775780820380516001836020036101000a031916815260200191505b50848103825287818151815260200191508051906020019080838360005b838110156107b0578082015181840152602081019050610795565b50505050905090810190601f1680156107dd5780820380516001836020036101000a031916815260200191505b509850505050505050505060405180910390f35b61081d6004803603602081101561080757600080fd5b81019080803590602001909291905050506119b3565b604051808060200180602001806020018060200187815260200186815260200185810385528b818151815260200191508051906020019080838360005b8381101561087557808201518184015260208101905061085a565b50505050905090810190601f1680156108a25780820380516001836020036101000a031916815260200191505b5085810384528a818151815260200191508051906020019080838360005b838110156108db5780820151818401526020810190506108c0565b50505050905090810190601f1680156109085780820380516001836020036101000a031916815260200191505b50858103835289818151815260200191508051906020019080838360005b83811015610941578082015181840152602081019050610926565b50505050905090810190601f16801561096e5780820380516001836020036101000a031916815260200191505b50858103825288818151815260200191508051906020019080838360005b838110156109a757808201518184015260208101905061098c565b50505050905090810190601f1680156109d45780820380516001836020036101000a031916815260200191505b509a505050505050505050505060405180910390f35b610d13600480360360e0811015610a0057600080fd5b8101908080359060200190640100000000811115610a1d57600080fd5b820183602082011115610a2f57600080fd5b80359060200191846001830284011164010000000083111715610a5157600080fd5b91908080601f016020809104026020016040519081016040528093929190818152602001838380828437600081840152601f19601f82011690508083019250505050505050919291929080359060200190640100000000811115610ab457600080fd5b820183602082011115610ac657600080fd5b80359060200191846001830284011164010000000083111715610ae857600080fd5b91908080601f016020809104026020016040519081016040528093929190818152602001838380828437600081840152601f19601f82011690508083019250505050505050919291929080359060200190640100000000811115610b4b57600080fd5b820183602082011115610b5d57600080fd5b80359060200191846001830284011164010000000083111715610b7f57600080fd5b91908080601f016020809104026020016040519081016040528093929190818152602001838380828437600081840152601f19601f82011690508083019250505050505050919291929080359060200190640100000000811115610be257600080fd5b820183602082011115610bf457600080fd5b80359060200191846001830284011164010000000083111715610c1657600080fd5b91908080601f016020809104026020016040519081016040528093929190818152602001838380828437600081840152601f19601f82011690508083019250505050505050919291929080359060200190640100000000811115610c7957600080fd5b820183602082011115610c8b57600080fd5b80359060200191846001830284011164010000000083111715610cad57600080fd5b91908080601f016020809104026020016040519081016040528093929190818152602001838380828437600081840152601f19601f8201169050808301925050505050505091929192908035906020019092919080359060200190929190505050611c5c565b005b6001828051602081018201805184825260208301602085012081835280955050505050508180516020810182018051848252602083016020850120818352809550505050505060009150915050806000018054600181600116156101000203166002900480601f016020809104026020016040519081016040528092919081815260200182805460018160011615610100020316600290048015610dfa5780601f10610dcf57610100808354040283529160200191610dfa565b820191906000526020600020905b815481529060010190602001808311610ddd57829003601f168201915b505050505090806001018054600181600116156101000203166002900480601f016020809104026020016040519081016040528092919081815260200182805460018160011615610100020316600290048015610e985780601f10610e6d57610100808354040283529160200191610e98565b820191906000526020600020905b815481529060010190602001808311610e7b57829003601f168201915b505050505090806002018054600181600116156101000203166002900480601f016020809104026020016040519081016040528092919081815260200182805460018160011615610100020316600290048015610f365780601f10610f0b57610100808354040283529160200191610f36565b820191906000526020600020905b815481529060010190602001808311610f1957829003601f168201915b505050505090806003018054600181600116156101000203166002900480601f016020809104026020016040519081016040528092919081815260200182805460018160011615610100020316600290048015610fd45780601f10610fa957610100808354040283529160200191610fd4565b820191906000526020600020905b815481529060010190602001808311610fb757829003601f168201915b5050505050908060040154908060050154905086565b606080606080606080606060008054905067ffffffffffffffff8111801561101157600080fd5b506040519080825280602002602001820160405280156110405781602001602082028036833780820191505090505b509050606060008054905067ffffffffffffffff8111801561106157600080fd5b506040519080825280602002602001820160405280156110905781602001602082028036833780820191505090505b509050606060008054905067ffffffffffffffff811180156110b157600080fd5b506040519080825280602002602001820160405280156110e05781602001602082028036833780820191505090505b509050606060008054905067ffffffffffffffff8111801561110157600080fd5b506040519080825280602002602001820160405280156111305781602001602082028036833780820191505090505b509050606060008054905067ffffffffffffffff8111801561115157600080fd5b506040519080825280602002602001820160405280156111805781602001602082028036833780820191505090505b509050606060008054905067ffffffffffffffff811180156111a157600080fd5b506040519080825280602002602001820160405280156111d05781602001602082028036833780820191505090505b50905060008090505b6000805490508110156115db576000806000806060600086815481106111fb57fe5b90600052602060002090600602016001018054600181600116156101000203166002900480601f0160208091040260200160405190810160405280929190818152602001828054600181600116156101000203166002900480156112a05780601f10611275576101008083540402835291602001916112a0565b820191906000526020600020905b81548152906001019060200180831161128357829003601f168201915b50505050509050602081015194506060600087815481106112bd57fe5b90600052602060002090600602016002018054600181600116156101000203166002900480601f0160208091040260200160405190810160405280929190818152602001828054600181600116156101000203166002900480156113625780601f1061133757610100808354040283529160200191611362565b820191906000526020600020905b81548152906001019060200180831161134557829003601f168201915b505050505090506020810151945060606000888154811061137f57fe5b90600052602060002090600602016003018054600181600116156101000203166002900480601f0160208091040260200160405190810160405280929190818152602001828054600181600116156101000203166002900480156114245780601f106113f957610100808354040283529160200191611424565b820191906000526020600020905b81548152906001019060200180831161140757829003601f168201915b505050505090506020810151945060606000898154811061144157fe5b90600052602060002090600602016000018054600181600116156101000203166002900480601f0160208091040260200160405190810160405280929190818152602001828054600181600116156101000203166002900480156114e65780601f106114bb576101008083540402835291602001916114e6565b820191906000526020600020905b8154815290600101906020018083116114c957829003601f168201915b5050505050905060208101519450848f8a8151811061150157fe5b602002602001018181525050878e8a8151811061151a57fe5b602002602001018181525050868d8a8151811061153357fe5b602002602001018181525050858c8a8151811061154c57fe5b6020026020010181815250506000898154811061156557fe5b9060005260206000209060060201600401548b8a8151811061158357fe5b6020026020010181815250506000898154811061159c57fe5b9060005260206000209060060201600501548a8a815181106115ba57fe5b602002602001018181525050505050505050505080806001019150506111d9565b508585858585859b509b509b509b509b509b50505050505050909192939495565b606080606060008061160c611ecf565b6001886040518082805190602001908083835b60208310611642578051825260208201915060208101905060208303925061161f565b6001836020036101000a0380198251168184511680821785525050505050509050019150509081526020016040518091039020876040518082805190602001908083835b602083106116a95780518252602082019150602081019050602083039250611686565b6001836020036101000a03801982511681845116808217855250505050505090500191505090815260200160405180910390206040518060c0016040529081600082018054600181600116156101000203166002900480601f0160208091040260200160405190810160405280929190818152602001828054600181600116156101000203166002900480156117805780601f1061175557610100808354040283529160200191611780565b820191906000526020600020905b81548152906001019060200180831161176357829003601f168201915b50505050508152602001600182018054600181600116156101000203166002900480601f0160208091040260200160405190810160405280929190818152602001828054600181600116156101000203166002900480156118225780601f106117f757610100808354040283529160200191611822565b820191906000526020600020905b81548152906001019060200180831161180557829003601f168201915b50505050508152602001600282018054600181600116156101000203166002900480601f0160208091040260200160405190810160405280929190818152602001828054600181600116156101000203166002900480156118c45780601f10611899576101008083540402835291602001916118c4565b820191906000526020600020905b8154815290600101906020018083116118a757829003601f168201915b50505050508152602001600382018054600181600116156101000203166002900480601f0160208091040260200160405190810160405280929190818152602001828054600181600116156101000203166002900480156119665780601f1061193b57610100808354040283529160200191611966565b820191906000526020600020905b81548152906001019060200180831161194957829003601f168201915b5050505050815260200160048201548152602001600582015481525050905080602001518160400151826060015183608001518460a0015195509550955095509550509295509295909350565b600081815481106119c057fe5b9060005260206000209060060201600091509050806000018054600181600116156101000203166002900480601f016020809104026020016040519081016040528092919081815260200182805460018160011615610100020316600290048015611a6c5780601f10611a4157610100808354040283529160200191611a6c565b820191906000526020600020905b815481529060010190602001808311611a4f57829003601f168201915b505050505090806001018054600181600116156101000203166002900480601f016020809104026020016040519081016040528092919081815260200182805460018160011615610100020316600290048015611b0a5780601f10611adf57610100808354040283529160200191611b0a565b820191906000526020600020905b815481529060010190602001808311611aed57829003601f168201915b505050505090806002018054600181600116156101000203166002900480601f016020809104026020016040519081016040528092919081815260200182805460018160011615610100020316600290048015611ba85780601f10611b7d57610100808354040283529160200191611ba8565b820191906000526020600020905b815481529060010190602001808311611b8b57829003601f168201915b505050505090806003018054600181600116156101000203166002900480601f016020809104026020016040519081016040528092919081815260200182805460018160011615610100020316600290048015611c465780601f10611c1b57610100808354040283529160200191611c46565b820191906000526020600020905b815481529060010190602001808311611c2957829003601f168201915b5050505050908060040154908060050154905086565b6040518060c00160405280888152602001868152602001858152602001848152602001838152602001828152506001886040518082805190602001908083835b60208310611cbf5780518252602082019150602081019050602083039250611c9c565b6001836020036101000a0380198251168184511680821785525050505050509050019150509081526020016040518091039020876040518082805190602001908083835b60208310611d265780518252602082019150602081019050602083039250611d03565b6001836020036101000a03801982511681845116808217855250505050505090500191505090815260200160405180910390206000820151816000019080519060200190611d75929190611f05565b506020820151816001019080519060200190611d92929190611f05565b506040820151816002019080519060200190611daf929190611f05565b506060820151816003019080519060200190611dcc929190611f05565b506080820151816004015560a0820151816005015590505060006040518060c001604052808981526020018781526020018681526020018581526020018481526020018381525090806001815401808255809150506001900390600052602060002090600602016000909190919091506000820151816000019080519060200190611e58929190611f05565b506020820151816001019080519060200190611e75929190611f05565b506040820151816002019080519060200190611e92929190611f05565b506060820151816003019080519060200190611eaf929190611f05565b506080820151816004015560a08201518160050155505050505050505050565b6040518060c001604052806060815260200160608152602001606081526020016060815260200160008152602001600081525090565b828054600181600116156101000203166002900490600052602060002090601f016020900481019282601f10611f4657805160ff1916838001178555611f74565b82800160010185558215611f74579182015b82811115611f73578251825591602001919060010190611f58565b5b509050611f819190611f85565b5090565b611fa791905b80821115611fa3576000816000905550600101611f8b565b5090565b9056fea2646970667358221220bec5f2f10d263f72f2953908f57cedb47c8ebb27c28012f329a4a49ad5f8313764736f6c63430006060033608060405234801561001057600080fd5b5061166e806100206000396000f3fe608060405234801561001057600080fd5b50600436106100575760003560e01c80636b4150561461005c578063851b89b7146102a85780639812497b146103d0578063f54548721461061c578063fa645d9914610819575b600080fd5b6101ac6004803603604081101561007257600080fd5b810190808035906020019064010000000081111561008f57600080fd5b8201836020820111156100a157600080fd5b803590602001918460018302840111640100000000831117156100c357600080fd5b91908080601f016020809104026020016040519081016040528093929190818152602001838380828437600081840152601f19601f8201169050808301925050505050505091929192908035906020019064010000000081111561012657600080fd5b82018360208201111561013857600080fd5b8035906020019184600183028401116401000000008311171561015a57600080fd5b91908080601f016020809104026020016040519081016040528093929190818152602001838380828437600081840152601f19601f820116905080830192505050505050509192919290505050610998565b604051808060200180602001868152602001858152602001848152602001838103835288818151815260200191508051906020019080838360005b838110156102025780820151818401526020810190506101e7565b50505050905090810190601f16801561022f5780820380516001836020036101000a031916815260200191505b50838103825287818151815260200191508051906020019080838360005b8381101561026857808201518184015260208101905061024d565b50505050905090810190601f1680156102955780820380516001836020036101000a031916815260200191505b5097505050505050505060405180910390f35b6102d4600480360360208110156102be57600080fd5b8101908080359060200190929190505050610b37565b604051808060200180602001868152602001858152602001848152602001838103835288818151815260200191508051906020019080838360005b8381101561032a57808201518184015260208101905061030f565b50505050905090810190601f1680156103575780820380516001836020036101000a031916815260200191505b50838103825287818151815260200191508051906020019080838360005b83811015610390578082015181840152602081019050610375565b50505050905090810190601f1680156103bd5780820380516001836020036101000a031916815260200191505b5097505050505050505060405180910390f35b610520600480360360408110156103e657600080fd5b810190808035906020019064010000000081111561040357600080fd5b82018360208201111561041557600080fd5b8035906020019184600183028401116401000000008311171561043757600080fd5b91908080601f016020809104026020016040519081016040528093929190818152602001838380828437600081840152601f19601f8201169050808301925050505050505091929192908035906020019064010000000081111561049a57600080fd5b8201836020820111156104ac57600080fd5b803590602001918460018302840111640100000000831117156104ce57600080fd5b91908080601f016020809104026020016040519081016040528093929190818152602001838380828437600081840152601f19601f820116905080830192505050505050509192919290505050610caa565b604051808060200180602001868152602001858152602001848152602001838103835288818151815260200191508051906020019080838360005b8381101561057657808201518184015260208101905061055b565b50505050905090810190601f1680156105a35780820380516001836020036101000a031916815260200191505b50838103825287818151815260200191508051906020019080838360005b838110156105dc5780820151818401526020810190506105c1565b50505050905090810190601f1680156106095780820380516001836020036101000a031916815260200191505b5097505050505050505060405180910390f35b610817600480360360a081101561063257600080fd5b810190808035906020019064010000000081111561064f57600080fd5b82018360208201111561066157600080fd5b8035906020019184600183028401116401000000008311171561068357600080fd5b91908080601f016020809104026020016040519081016040528093929190818152602001838380828437600081840152601f19601f820116905080830192505050505050509192919290803590602001906401000000008111156106e657600080fd5b8201836020820111156106f857600080fd5b8035906020019184600183028401116401000000008311171561071a57600080fd5b91908080601f016020809104026020016040519081016040528093929190818152602001838380828437600081840152601f19601f8201169050808301925050505050505091929192908035906020019064010000000081111561077d57600080fd5b82018360208201111561078f57600080fd5b803590602001918460018302840111640100000000831117156107b157600080fd5b91908080601f016020809104026020016040519081016040528093929190818152602001838380828437600081840152601f19601f8201169050808301925050505050505091929192908035906020019092919080359060200190929190505050610f27565b005b61082161112e565b60405180806020018060200180602001806020018060200186810386528b818151815260200191508051906020019060200280838360005b83811015610874578082015181840152602081019050610859565b5050505090500186810385528a818151815260200191508051906020019060200280838360005b838110156108b657808201518184015260208101905061089b565b50505050905001868103845289818151815260200191508051906020019060200280838360005b838110156108f85780820151818401526020810190506108dd565b50505050905001868103835288818151815260200191508051906020019060200280838360005b8381101561093a57808201518184015260208101905061091f565b50505050905001868103825287818151815260200191508051906020019060200280838360005b8381101561097c578082015181840152602081019050610961565b505050509050019a505050505050505050505060405180910390f35b6000828051602081018201805184825260208301602085012081835280955050505050508180516020810182018051848252602083016020850120818352809550505050505060009150915050806000018054600181600116156101000203166002900480601f016020809104026020016040519081016040528092919081815260200182805460018160011615610100020316600290048015610a7d5780601f10610a5257610100808354040283529160200191610a7d565b820191906000526020600020905b815481529060010190602001808311610a6057829003601f168201915b505050505090806001018054600181600116156101000203166002900480601f016020809104026020016040519081016040528092919081815260200182805460018160011615610100020316600290048015610b1b5780601f10610af057610100808354040283529160200191610b1b565b820191906000526020600020905b815481529060010190602001808311610afe57829003601f168201915b5050505050908060020154908060030154908060040154905085565b60018181548110610b4457fe5b9060005260206000209060050201600091509050806000018054600181600116156101000203166002900480601f016020809104026020016040519081016040528092919081815260200182805460018160011615610100020316600290048015610bf05780601f10610bc557610100808354040283529160200191610bf0565b820191906000526020600020905b815481529060010190602001808311610bd357829003601f168201915b505050505090806001018054600181600116156101000203166002900480601f016020809104026020016040519081016040528092919081815260200182805460018160011615610100020316600290048015610c8e5780601f10610c6357610100808354040283529160200191610c8e565b820191906000526020600020905b815481529060010190602001808311610c7157829003601f168201915b5050505050908060020154908060030154908060040154905085565b6060806000806000610cba611564565b6000886040518082805190602001908083835b60208310610cf05780518252602082019150602081019050602083039250610ccd565b6001836020036101000a0380198251168184511680821785525050505050509050019150509081526020016040518091039020876040518082805190602001908083835b60208310610d575780518252602082019150602081019050602083039250610d34565b6001836020036101000a03801982511681845116808217855250505050505090500191505090815260200160405180910390206040518060a0016040529081600082018054600181600116156101000203166002900480601f016020809104026020016040519081016040528092919081815260200182805460018160011615610100020316600290048015610e2e5780601f10610e0357610100808354040283529160200191610e2e565b820191906000526020600020905b815481529060010190602001808311610e1157829003601f168201915b50505050508152602001600182018054600181600116156101000203166002900480601f016020809104026020016040519081016040528092919081815260200182805460018160011615610100020316600290048015610ed05780601f10610ea557610100808354040283529160200191610ed0565b820191906000526020600020905b815481529060010190602001808311610eb357829003601f168201915b50505050508152602001600282015481526020016003820154815260200160048201548152505090508060000151816020015182604001518360600151846080015195509550955095509550509295509295909350565b6040518060a0016040528086815260200184815260200183815260200182815260200160018152506000866040518082805190602001908083835b60208310610f855780518252602082019150602081019050602083039250610f62565b6001836020036101000a0380198251168184511680821785525050505050509050019150509081526020016040518091039020856040518082805190602001908083835b60208310610fec5780518252602082019150602081019050602083039250610fc9565b6001836020036101000a0380198251168184511680821785525050505050509050019150509081526020016040518091039020600082015181600001908051906020019061103b929190611593565b506020820151816001019080519060200190611058929190611593565b5060408201518160020155606082015181600301556080820151816004015590505060016040518060a001604052808781526020018581526020018481526020018381526020016001815250908060018154018082558091505060019003906000526020600020906005020160009091909190915060008201518160000190805190602001906110e9929190611593565b506020820151816001019080519060200190611106929190611593565b5060408201518160020155606082015181600301556080820151816004015550505050505050565b60608060608060608060018054905067ffffffffffffffff8111801561115357600080fd5b506040519080825280602002602001820160405280156111825781602001602082028036833780820191505090505b509050606060018054905067ffffffffffffffff811180156111a357600080fd5b506040519080825280602002602001820160405280156111d25781602001602082028036833780820191505090505b509050606060018054905067ffffffffffffffff811180156111f357600080fd5b506040519080825280602002602001820160405280156112225781602001602082028036833780820191505090505b509050606060018054905067ffffffffffffffff8111801561124357600080fd5b506040519080825280602002602001820160405280156112725781602001602082028036833780820191505090505b509050606060018054905067ffffffffffffffff8111801561129357600080fd5b506040519080825280602002602001820160405280156112c25781602001602082028036833780820191505090505b50905060008090505b6001805490508110156115485760006060600183815481106112e957fe5b90600052602060002090600502016001018054600181600116156101000203166002900480601f01602080910402602001604051908101604052809291908181526020018280546001816001161561010002031660029004801561138e5780601f106113635761010080835404028352916020019161138e565b820191906000526020600020905b81548152906001019060200180831161137157829003601f168201915b505050505090506020810151915060006060600185815481106113ad57fe5b90600052602060002090600502016000018054600181600116156101000203166002900480601f0160208091040260200160405190810160405280929190818152602001828054600181600116156101000203166002900480156114525780601f1061142757610100808354040283529160200191611452565b820191906000526020600020905b81548152906001019060200180831161143557829003601f168201915b5050505050905060208101519150818a868151811061146d57fe5b6020026020010181815250508389868151811061148657fe5b6020026020010181815250506001858154811061149f57fe5b9060005260206000209060050201600201548886815181106114bd57fe5b602002602001018181525050600185815481106114d657fe5b9060005260206000209060050201600301548786815181106114f457fe5b6020026020010181815250506001858154811061150d57fe5b90600052602060002090600502016004015486868151811061152b57fe5b6020026020010181815250505050505080806001019150506112cb565b5084848484849950995099509950995050505050509091929394565b6040518060a0016040528060608152602001606081526020016000815260200160008152602001600081525090565b828054600181600116156101000203166002900490600052602060002090601f016020900481019282601f106115d457805160ff1916838001178555611602565b82800160010185558215611602579182015b828111156116015782518255916020019190600101906115e6565b5b50905061160f9190611613565b5090565b61163591905b80821115611631576000816000905550600101611619565b5090565b9056fea26469706673582212204277af3363eaa268c031bfc707570fc14ecbc42ae51836d25a9c41f59035b54964736f6c63430006060033",
  "immutableReferences": {},
  "source": "// SPDX-License-Identifier: MIT\r\npragma solidity >=0.5.22 <0.9.0;\r\nimport \"./ProjectData.sol\";\r\nimport \"./FunderData.sol\";\r\nimport \"./user.sol\";\r\nimport \"./Transaction.sol\";\r\n\r\ncontract DataManagement{\r\n    mapping(bytes32 => address) Txn_addr;\r\n    //IDFunder ID,Funder Struct\r\n    mapping(bytes32 => match_funder) public match_result;\r\n    struct match_funder{\r\n        bytes32 userID;\r\n        // bytes32 investment_duration;\r\n        uint256 investment_return;\r\n        uint256 investment_amount;\r\n    }\r\n    //IDProject_ID struct\r\n    mapping(bytes32 => match_Proside) public Invmatch_result;\r\n    struct match_Proside{\r\n        bytes32 userID;\r\n        bytes32 names;\r\n        uint256 t_amounts;\r\n        uint256 i_returns;\r\n    }\r\n    ProjectData PD = new ProjectData(); //\r\n    FunderData FD = new FunderData(); //\r\n    address addr_pd = address(PD);\r\n    address addr_fd = address(FD);\r\n    uint counted;\r\n    //\r\n    function set_ProjectData(string memory id,string memory eventnumber,string memory project_Name,string memory project_Indtroduce,string memory project_Endday\r\n    ,uint256 Target_Amount,uint256 interest_Return)public{\r\n        ProjectData pd = ProjectData(addr_pd);\r\n        pd.set_project(id,eventnumber,project_Name,project_Indtroduce,project_Endday,Target_Amount,interest_Return);\r\n    }\r\n    \r\n    //\r\n    function get_UniqueProjectData(string memory id,string memory eventnumber)public view returns(string memory,string memory,string memory,uint256,uint256){\r\n        ProjectData pd = ProjectData(addr_pd);\r\n        string memory name;\r\n        string memory intro;\r\n        string memory date;\r\n        uint256 t_money;\r\n        uint256 i_returns;\r\n        (name,intro,date,t_money,i_returns)=pd.get_Userproject(id,eventnumber);\r\n        return (name,intro,date,t_money,i_returns);\r\n    }\r\n    //\r\n    function getAllProjectData()public view returns(bytes32[] memory,bytes32[] memory,bytes32[] memory,bytes32[] memory,uint256[] memory,uint256[] memory){\r\n        ProjectData pd = ProjectData(addr_pd);\r\n        bytes32[] memory idds;\r\n        bytes32[] memory names;\r\n        bytes32[] memory introdecues;\r\n        bytes32[] memory enddays;\r\n        uint256[] memory t_amounts;\r\n        uint256[] memory i_returns;\r\n        \r\n        (idds,names,introdecues,enddays,t_amounts,i_returns)=pd.get_allproject();\r\n        return(idds,names,introdecues,enddays,t_amounts,i_returns);\r\n    }\r\n    \r\n    //\r\n    function set_FundertData(string memory id,string memory investment_number,string memory investment_Duration,uint256 investment_Return,uint256 investment_Amount)public{\r\n        FunderData fd = FunderData(addr_fd);\r\n        fd.set_funding(id,investment_number,investment_Duration,investment_Return,investment_Amount);\r\n    }\r\n    //\r\n    function get_UniqueFunderData(string memory id,string memory investment_number)public view returns(string memory,string memory,uint256,uint256,uint256){\r\n        FunderData fd = FunderData(addr_fd);\r\n        string memory idd;\r\n        string memory duration;\r\n        uint256 benefit;\r\n        uint256 money;\r\n        uint256 statement;\r\n        (idd,duration,benefit,money,statement)=fd.get_funding(id,investment_number);\r\n        return (idd,duration,benefit,money,statement);\r\n    }\r\n    //\r\n    function get_allFunderData()public view returns(bytes32[] memory,bytes32[] memory,uint256[] memory,uint256[] memory,uint256[] memory){\r\n        FunderData fd = FunderData(addr_fd);\r\n        bytes32[] memory idds;\r\n        bytes32[] memory duration;\r\n        uint256[] memory payment;\r\n        uint256[] memory i_amounts;\r\n        uint256[] memory statements;\r\n        (idds,duration,payment,i_amounts,statements)=fd.get_allfundig();\r\n        return(idds,duration,payment,i_amounts,statements);\r\n    }\r\n    //MatchingFunder\r\n    function matching()public{\r\n        bytes32[] memory pro_idds;\r\n        bytes32[] memory names;\r\n        uint256[] memory t_amounts;\r\n        uint256[] memory i_returns;\r\n        \r\n        bytes32[] memory fun_idds;\r\n        // bytes32[] memory duration;\r\n        uint256[] memory interest;\r\n        uint256[] memory i_amounts;\r\n        uint256[] memory statements;\r\n        uint count;\r\n        (pro_idds,names,,,t_amounts,i_returns)=DataManagement.getAllProjectData();\r\n        (fun_idds,,interest,i_amounts,statements)=DataManagement.get_allFunderData();\r\n        \r\n        for(uint i = 0 ; i <pro_idds.length ; i++){\r\n            uint256 n = pro_idds.length; \r\n            \r\n            for(uint j=0 ; j<fun_idds.length ; j++){ \r\n                if(interest[j] <= i_returns[i] && i_amounts[j] >= t_amounts[i] && statements[j] != 0){\r\n                    n = j;\r\n                }\r\n            }\r\n            if(n != pro_idds.length){\r\n                match_result[pro_idds[i]] = match_funder(fun_idds[n],interest[n],i_amounts[n]);\r\n                Invmatch_result[fun_idds[n]] = match_Proside(pro_idds[i],names[i],t_amounts[i],i_returns[i]);\r\n                statements[n] = 0;\r\n                Transaction Txn = new Transaction(pro_idds[i],fun_idds[n],address(this)); //NewTXNIDID\r\n                Txn_addr[pro_idds[i]] = address(Txn);\r\n                Txn_addr[fun_idds[n]] = address(Txn);\r\n                count++;\r\n            }\r\n        }\r\n        counted = count;\r\n    }\r\n    // \r\n    function get_MatchingData(bytes32  id)public view returns( bytes32 ,uint256,uint256) {\r\n        match_funder memory mf = match_result[id];\r\n        return(mf.userID,mf.investment_return,mf.investment_amount);\r\n    }\r\n    // \r\n    function get_InvMatchingData(bytes32  id)public view returns( bytes32 ,bytes32 ,uint256,uint256) {\r\n        match_Proside memory mp = Invmatch_result[id];\r\n        return(mp.userID,mp.names,mp.t_amounts,mp.i_returns);\r\n    }\r\n    \r\n    function get_counted()public view returns(uint){\r\n        return counted;\r\n    }\r\n    // \r\n    function get_Txnaddr(bytes32 enterID)public view returns(address){\r\n        return Txn_addr[enterID];\r\n    }\r\n    // function\r\n    function set_txn(address addr)public{\r\n        Transaction txnn= Transaction(addr);\r\n        txnn.Txn();\r\n    }\r\n    // \r\n    function get_TXNFunderWallet(address addr)public view returns(bytes32,uint256,uint256,uint256,uint256){\r\n        Transaction txnn= Transaction(addr);\r\n        bytes32 Fiddd;\r\n        uint256 investment_return; \r\n        uint256 investment_amount; \r\n        uint256 current_amount; \r\n        uint256 interest_receivable; \r\n        (Fiddd,investment_return,investment_amount,current_amount,interest_receivable) = txnn.get_FunderWallet();\r\n        return (Fiddd,investment_return,investment_amount,current_amount,interest_receivable);\r\n    }\r\n    // \r\n    function get_TXNEnterpriserWallet(address addr)public view returns(bytes32,string memory,uint256,uint256,uint256,uint256){\r\n        Transaction txnn= Transaction(addr);\r\n        bytes32 Enter_id;\r\n        string memory project_name;\r\n        uint256 Target_amount;\r\n        uint256 interest_return; \r\n        uint256 current_amount;\r\n        uint256 interest_payable; \r\n        (Enter_id,project_name,Target_amount,interest_return,current_amount,interest_payable) = txnn.get_EnterpriseWallet();\r\n        return (Enter_id,project_name,Target_amount,interest_return,current_amount,interest_payable);\r\n    }\r\n}",
  "sourcePath": "C:\\Users\\Jim\\AngelFund-System\\Backend\\contracts\\DataManagement.sol",
  "compiler": {
    "name": "solc",
    "version": "0.6.6+commit.6c089d02.Emscripten.clang"
  },
  "schemaVersion": "3.3.3",
  "updatedAt": "2021-08-19T12:40:25.114Z",
  "networkType": "ethereum",
  "devdoc": {
    "methods": {}
  },
  "userdoc": {
    "methods": {}
  }
}