{
  "contractName": "User",
  "abi": [
    {
      "inputs": [
        {
          "internalType": "bytes32",
          "name": "uid",
          "type": "bytes32"
        },
        {
          "internalType": "bytes32",
          "name": "psd",
          "type": "bytes32"
        },
        {
          "internalType": "address",
          "name": "ac",
          "type": "address"
        },
        {
          "internalType": "bytes32",
          "name": "kind",
          "type": "bytes32"
        }
      ],
      "stateMutability": "nonpayable",
      "type": "constructor"
    },
    {
      "inputs": [],
      "name": "PDFD_Account",
      "outputs": [
        {
          "internalType": "address",
          "name": "",
          "type": "address"
        }
      ],
      "stateMutability": "view",
      "type": "function"
    },
    {
      "inputs": [],
      "name": "infoAccount",
      "outputs": [
        {
          "internalType": "address",
          "name": "",
          "type": "address"
        }
      ],
      "stateMutability": "view",
      "type": "function"
    },
    {
      "inputs": [
        {
          "internalType": "string",
          "name": "Id",
          "type": "string"
        }
      ],
      "name": "set_userid",
      "outputs": [],
      "stateMutability": "nonpayable",
      "type": "function"
    },
    {
      "inputs": [
        {
          "internalType": "string",
          "name": "Pword",
          "type": "string"
        }
      ],
      "name": "set_password",
      "outputs": [],
      "stateMutability": "nonpayable",
      "type": "function"
    },
    {
      "inputs": [],
      "name": "get_password",
      "outputs": [
        {
          "internalType": "bytes32",
          "name": "psd",
          "type": "bytes32"
        }
      ],
      "stateMutability": "view",
      "type": "function"
    },
    {
      "inputs": [],
      "name": "get_userid",
      "outputs": [
        {
          "internalType": "bytes32",
          "name": "",
          "type": "bytes32"
        }
      ],
      "stateMutability": "view",
      "type": "function"
    },
    {
      "inputs": [],
      "name": "get_account",
      "outputs": [
        {
          "internalType": "address",
          "name": "",
          "type": "address"
        }
      ],
      "stateMutability": "view",
      "type": "function"
    },
    {
      "inputs": [],
      "name": "get_category",
      "outputs": [
        {
          "internalType": "bytes32",
          "name": "",
          "type": "bytes32"
        }
      ],
      "stateMutability": "view",
      "type": "function"
    }
  ],
  "bytecode": "0x608060405234801561001057600080fd5b506040516105213803806105218339818101604052608081101561003357600080fd5b81019080805190602001909291908051906020019092919080519060200190929190805190602001909291905050508360028190555082600381905550816000806101000a81548173ffffffffffffffffffffffffffffffffffffffff021916908373ffffffffffffffffffffffffffffffffffffffff1602179055508060048190555050505050610457806100ca6000396000f3fe608060405234801561001057600080fd5b50600436106100885760003560e01c8063741676371161005b57806374167637146101ce5780639748d37514610218578063b39a474a14610236578063bb4c402a146102f157610088565b80630c4a8ea81461008d57806315923e1b146100d75780632f510e89146100f55780633d5eb15f146101b0575b600080fd5b61009561033b565b604051808273ffffffffffffffffffffffffffffffffffffffff1673ffffffffffffffffffffffffffffffffffffffff16815260200191505060405180910390f35b6100df610361565b6040518082815260200191505060405180910390f35b6101ae6004803603602081101561010b57600080fd5b810190808035906020019064010000000081111561012857600080fd5b82018360208201111561013a57600080fd5b8035906020019184600183028401116401000000008311171561015c57600080fd5b91908080601f016020809104026020016040519081016040528093929190818152602001838380828437600081840152601f19601f82011690508083019250505050505050919291929050505061036b565b005b6101b8610395565b6040518082815260200191505060405180910390f35b6101d661039f565b604051808273ffffffffffffffffffffffffffffffffffffffff1673ffffffffffffffffffffffffffffffffffffffff16815260200191505060405180910390f35b6102206103c4565b6040518082815260200191505060405180910390f35b6102ef6004803603602081101561024c57600080fd5b810190808035906020019064010000000081111561026957600080fd5b82018360208201111561027b57600080fd5b8035906020019184600183028401116401000000008311171561029d57600080fd5b91908080601f016020809104026020016040519081016040528093929190818152602001838380828437600081840152601f19601f8201169050808301925050505050505091929192905050506103ce565b005b6102f96103f8565b604051808273ffffffffffffffffffffffffffffffffffffffff1673ffffffffffffffffffffffffffffffffffffffff16815260200191505060405180910390f35b600160009054906101000a900473ffffffffffffffffffffffffffffffffffffffff1681565b6000600254905090565b606081905060008082511415610382576000801b90505b6020830151905080600281905550505050565b6000600354905090565b6000809054906101000a900473ffffffffffffffffffffffffffffffffffffffff1681565b6000600454905090565b6060819050600080825114156103e5576000801b90505b6020830151905080600381905550505050565b60008060009054906101000a900473ffffffffffffffffffffffffffffffffffffffff1690509056fea2646970667358221220c116c07f6e8c534925868bc4524a6024d8e7dad4188bf24630650a586e23673564736f6c63430006060033",
  "immutableReferences": {},
  "source": "// SPDX-License-Identifier: MIT\r\npragma solidity >=0.5.22 <0.9.0;\r\n\r\ncontract User {\r\n\taddress public infoAccount;\r\n\taddress public PDFD_Account;\r\n    bytes32 userid;\r\n    bytes32 password;\r\n    bytes32 category;\r\n    \r\n\r\n\tconstructor(bytes32 uid,bytes32 psd, address ac,bytes32 kind) public{\r\n\t\tuserid=uid;\r\n\t\tpassword=psd;\r\n\t\tinfoAccount=ac;\r\n\t\tcategory=kind;\r\n\t}\r\n\r\n    function set_userid(string memory Id) public { //使用者帳號註冊\r\n        bytes memory tempEmptyStringTest = bytes(Id);\r\n        bytes32 idd;\r\n        if (tempEmptyStringTest.length == 0) {\r\n            idd = 0x0;\r\n        }\r\n\r\n        assembly {\r\n            idd := mload(add(Id, 32)) //String轉bytes32\r\n        }\r\n        userid = idd;\r\n    }\r\n\r\n    function set_password(string memory Pword) public { //使用者密碼註冊\r\n        bytes memory tempEmptyStringTest = bytes(Pword);\r\n        bytes32 psd;\r\n        if (tempEmptyStringTest.length == 0) {\r\n            psd = 0x0;\r\n        }\r\n\r\n        assembly {\r\n            psd := mload(add(Pword, 32)) //String轉bytes32\r\n        }\r\n        password = psd;\r\n    }\r\n\r\n    function get_password() public view returns (bytes32 psd) { //取密碼\r\n        return password;\r\n    }\r\n\r\n    function get_userid() public view returns (bytes32) {   //取帳號\r\n        return userid;\r\n    }\r\n    \r\n    function get_account() public view returns (address) {  //取帳戶地址\r\n        return infoAccount;\r\n    }\r\n    function get_category() public view returns (bytes32) {  //取帳戶地址\r\n        return category;\r\n    }\r\n    // function get_PDFD_Account() public view returns (address) {  //取帳戶地址\r\n    //     return PDFD_Account;\r\n    // }\r\n\r\n}\r\n",
  "sourcePath": "C:/Users/Jim/AngelFund-System/Backend/contracts/User.sol",
  "compiler": {
    "name": "solc",
    "version": "0.6.6+commit.6c089d02.Emscripten.clang"
  },
  "schemaVersion": "3.3.3",
  "updatedAt": "2021-08-22T14:07:35.157Z",
  "networkType": "ethereum",
  "devdoc": {
    "methods": {}
  },
  "userdoc": {
    "methods": {}
  }
}