{
  "contractName": "CreateManagement",
  "abi": [
    {
      "inputs": [],
      "name": "whataddr",
      "outputs": [
        {
          "internalType": "address",
          "name": "",
          "type": "address"
        }
      ],
      "stateMutability": "view",
      "type": "function",
      "constant": true
    },
    {
      "inputs": [
        {
          "internalType": "string",
          "name": "userid",
          "type": "string"
        },
        {
          "internalType": "string",
          "name": "password",
          "type": "string"
        },
        {
          "internalType": "string",
          "name": "kind",
          "type": "string"
        }
      ],
      "name": "create_user",
      "outputs": [],
      "stateMutability": "nonpayable",
      "type": "function"
    },
    {
      "inputs": [
        {
          "internalType": "string",
          "name": "Userid",
          "type": "string"
        }
      ],
      "name": "get_add",
      "outputs": [
        {
          "internalType": "address",
          "name": "",
          "type": "address"
        }
      ],
      "stateMutability": "view",
      "type": "function",
      "constant": true
    },
    {
      "inputs": [
        {
          "internalType": "address",
          "name": "user_addr",
          "type": "address"
        },
        {
          "internalType": "string",
          "name": "ID_OR_companyNumber",
          "type": "string"
        },
        {
          "internalType": "string",
          "name": "e_addr",
          "type": "string"
        },
        {
          "internalType": "string",
          "name": "tel",
          "type": "string"
        },
        {
          "internalType": "string",
          "name": "charger",
          "type": "string"
        }
      ],
      "name": "update_user_account",
      "outputs": [],
      "stateMutability": "nonpayable",
      "type": "function"
    },
    {
      "inputs": [
        {
          "internalType": "address",
          "name": "user_addr",
          "type": "address"
        }
      ],
      "name": "get_Enterprise_account",
      "outputs": [
        {
          "internalType": "bytes32",
          "name": "",
          "type": "bytes32"
        },
        {
          "internalType": "bytes32",
          "name": "",
          "type": "bytes32"
        },
        {
          "internalType": "string",
          "name": "",
          "type": "string"
        },
        {
          "internalType": "string",
          "name": "",
          "type": "string"
        },
        {
          "internalType": "string",
          "name": "",
          "type": "string"
        },
        {
          "internalType": "string",
          "name": "",
          "type": "string"
        }
      ],
      "stateMutability": "view",
      "type": "function",
      "constant": true
    },
    {
      "inputs": [
        {
          "internalType": "address",
          "name": "user_addr",
          "type": "address"
        }
      ],
      "name": "get_Funder_account",
      "outputs": [
        {
          "internalType": "bytes32",
          "name": "",
          "type": "bytes32"
        },
        {
          "internalType": "bytes32",
          "name": "",
          "type": "bytes32"
        },
        {
          "internalType": "string",
          "name": "",
          "type": "string"
        },
        {
          "internalType": "string",
          "name": "",
          "type": "string"
        },
        {
          "internalType": "string",
          "name": "",
          "type": "string"
        },
        {
          "internalType": "string",
          "name": "",
          "type": "string"
        }
      ],
      "stateMutability": "view",
      "type": "function",
      "constant": true
    },
    {
      "inputs": [
        {
          "internalType": "string",
          "name": "userid",
          "type": "string"
        },
        {
          "internalType": "string",
          "name": "password",
          "type": "string"
        }
      ],
      "name": "login",
      "outputs": [
        {
          "internalType": "string",
          "name": "",
          "type": "string"
        }
      ],
      "stateMutability": "view",
      "type": "function",
      "constant": true
    },
    {
      "inputs": [
        {
          "internalType": "string",
          "name": "userid",
          "type": "string"
        }
      ],
      "name": "get_category",
      "outputs": [
        {
          "internalType": "bytes32",
          "name": "",
          "type": "bytes32"
        }
      ],
      "stateMutability": "view",
      "type": "function",
      "constant": true
    }
  ],
  "bytecode": "0x608060405234801561001057600080fd5b50613d77806100206000396000f3fe608060405234801561001057600080fd5b50600436106100885760003560e01c80637a781e491161005b5780637a781e491461071f57806392d7744314610769578063974514b414610978578063beceebc414610c1857610088565b80632cb074021461008d57806358467dbc146102765780635d7a4fb3146104415780636874abcf14610510575b600080fd5b610274600480360360608110156100a357600080fd5b81019080803590602001906401000000008111156100c057600080fd5b8201836020820111156100d257600080fd5b803590602001918460018302840111640100000000831117156100f457600080fd5b91908080601f016020809104026020016040519081016040528093929190818152602001838380828437600081840152601f19601f8201169050808301925050505050505091929192908035906020019064010000000081111561015757600080fd5b82018360208201111561016957600080fd5b8035906020019184600183028401116401000000008311171561018b57600080fd5b91908080601f016020809104026020016040519081016040528093929190818152602001838380828437600081840152601f19601f820116905080830192505050505050509192919290803590602001906401000000008111156101ee57600080fd5b82018360208201111561020057600080fd5b8035906020019184600183028401116401000000008311171561022257600080fd5b91908080601f016020809104026020016040519081016040528093929190818152602001838380828437600081840152601f19601f820116905080830192505050505050509192919290505050610d13565b005b6103c66004803603604081101561028c57600080fd5b81019080803590602001906401000000008111156102a957600080fd5b8201836020820111156102bb57600080fd5b803590602001918460018302840111640100000000831117156102dd57600080fd5b91908080601f016020809104026020016040519081016040528093929190818152602001838380828437600081840152601f19601f8201169050808301925050505050505091929192908035906020019064010000000081111561034057600080fd5b82018360208201111561035257600080fd5b8035906020019184600183028401116401000000008311171561037457600080fd5b91908080601f016020809104026020016040519081016040528093929190818152602001838380828437600081840152601f19601f820116905080830192505050505050509192919290505050611177565b6040518080602001828103825283818151815260200191508051906020019080838360005b838110156104065780820151818401526020810190506103eb565b50505050905090810190601f1680156104335780820380516001836020036101000a031916815260200191505b509250505060405180910390f35b6104fa6004803603602081101561045757600080fd5b810190808035906020019064010000000081111561047457600080fd5b82018360208201111561048657600080fd5b803590602001918460018302840111640100000000831117156104a857600080fd5b91908080601f016020809104026020016040519081016040528093929190818152602001838380828437600081840152601f19601f820116905080830192505050505050509192919290505050611389565b6040518082815260200191505060405180910390f35b6105526004803603602081101561052657600080fd5b81019080803573ffffffffffffffffffffffffffffffffffffffff1690602001909291905050506114ad565b6040518087815260200186815260200180602001806020018060200180602001858103855289818151815260200191508051906020019080838360005b838110156105aa57808201518184015260208101905061058f565b50505050905090810190601f1680156105d75780820380516001836020036101000a031916815260200191505b50858103845288818151815260200191508051906020019080838360005b838110156106105780820151818401526020810190506105f5565b50505050905090810190601f16801561063d5780820380516001836020036101000a031916815260200191505b50858103835287818151815260200191508051906020019080838360005b8381101561067657808201518184015260208101905061065b565b50505050905090810190601f1680156106a35780820380516001836020036101000a031916815260200191505b50858103825286818151815260200191508051906020019080838360005b838110156106dc5780820151818401526020810190506106c1565b50505050905090810190601f1680156107095780820380516001836020036101000a031916815260200191505b509a505050505050505050505060405180910390f35b610727611b7f565b604051808273ffffffffffffffffffffffffffffffffffffffff1673ffffffffffffffffffffffffffffffffffffffff16815260200191505060405180910390f35b6107ab6004803603602081101561077f57600080fd5b81019080803573ffffffffffffffffffffffffffffffffffffffff169060200190929190505050611ba5565b6040518087815260200186815260200180602001806020018060200180602001858103855289818151815260200191508051906020019080838360005b838110156108035780820151818401526020810190506107e8565b50505050905090810190601f1680156108305780820380516001836020036101000a031916815260200191505b50858103845288818151815260200191508051906020019080838360005b8381101561086957808201518184015260208101905061084e565b50505050905090810190601f1680156108965780820380516001836020036101000a031916815260200191505b50858103835287818151815260200191508051906020019080838360005b838110156108cf5780820151818401526020810190506108b4565b50505050905090810190601f1680156108fc5780820380516001836020036101000a031916815260200191505b50858103825286818151815260200191508051906020019080838360005b8381101561093557808201518184015260208101905061091a565b50505050905090810190601f1680156109625780820380516001836020036101000a031916815260200191505b509a505050505050505050505060405180910390f35b610c16600480360360a081101561098e57600080fd5b81019080803573ffffffffffffffffffffffffffffffffffffffff169060200190929190803590602001906401000000008111156109cb57600080fd5b8201836020820111156109dd57600080fd5b803590602001918460018302840111640100000000831117156109ff57600080fd5b91908080601f016020809104026020016040519081016040528093929190818152602001838380828437600081840152601f19601f82011690508083019250505050505050919291929080359060200190640100000000811115610a6257600080fd5b820183602082011115610a7457600080fd5b80359060200191846001830284011164010000000083111715610a9657600080fd5b91908080601f016020809104026020016040519081016040528093929190818152602001838380828437600081840152601f19601f82011690508083019250505050505050919291929080359060200190640100000000811115610af957600080fd5b820183602082011115610b0b57600080fd5b80359060200191846001830284011164010000000083111715610b2d57600080fd5b91908080601f016020809104026020016040519081016040528093929190818152602001838380828437600081840152601f19601f82011690508083019250505050505050919291929080359060200190640100000000811115610b9057600080fd5b820183602082011115610ba257600080fd5b80359060200191846001830284011164010000000083111715610bc457600080fd5b91908080601f016020809104026020016040519081016040528093929190818152602001838380828437600081840152601f19601f820116905080830192505050505050509192919290505050612277565b005b610cd160048036036020811015610c2e57600080fd5b8101908080359060200190640100000000811115610c4b57600080fd5b820183602082011115610c5d57600080fd5b80359060200191846001830284011164010000000083111715610c7f57600080fd5b91908080601f016020809104026020016040519081016040528093929190818152602001838380828437600081840152601f19601f820116905080830192505050505050509192919290505050612527565b604051808273ffffffffffffffffffffffffffffffffffffffff1673ffffffffffffffffffffffffffffffffffffffff16815260200191505060405180910390f35b60008060008560009080519060200190610d2e9291906125ba565b5060208601519250602085015191506020840151905060405160200180807f456e746572707269736500000000000000000000000000000000000000000000815250600a01905060405160208183030381529060405280519060200120846040516020018082805190602001908083835b60208310610dc25780518252602082019150602081019050602083039250610d9f565b6001836020036101000a038019825116818451168082178552505050505050905001915050604051602081830303815290604052805190602001201415610f5b576000604051610e119061263a565b604051809103906000f080158015610e2d573d6000803e3d6000fd5b509050600084848385604051610e4290612647565b808581526020018481526020018373ffffffffffffffffffffffffffffffffffffffff1673ffffffffffffffffffffffffffffffffffffffff168152602001828152602001945050505050604051809103906000f080158015610ea9573d6000803e3d6000fd5b509050806003896040518082805190602001908083835b60208310610ee35780518252602082019150602081019050602083039250610ec0565b6001836020036101000a038019825116818451168082178552505050505050905001915050908152602001604051809103902060006101000a81548173ffffffffffffffffffffffffffffffffffffffff021916908373ffffffffffffffffffffffffffffffffffffffff160217905550505061116f565b60405160200180807f46756e6465720000000000000000000000000000000000000000000000000000815250600601905060405160208183030381529060405280519060200120846040516020018082805190602001908083835b60208310610fd95780518252602082019150602081019050602083039250610fb6565b6001836020036101000a03801982511681845116808217855250505050505090500191505060405160208183030381529060405280519060200120141561116e57600060405161102890612654565b604051809103906000f080158015611044573d6000803e3d6000fd5b50905060008484838560405161105990612647565b808581526020018481526020018373ffffffffffffffffffffffffffffffffffffffff1673ffffffffffffffffffffffffffffffffffffffff168152602001828152602001945050505050604051809103906000f0801580156110c0573d6000803e3d6000fd5b509050806003896040518082805190602001908083835b602083106110fa57805182526020820191506020810190506020830392506110d7565b6001836020036101000a038019825116818451168082178552505050505050905001915050908152602001604051809103902060006101000a81548173ffffffffffffffffffffffffffffffffffffffff021916908373ffffffffffffffffffffffffffffffffffffffff16021790555050505b5b505050505050565b606060006003846040518082805190602001908083835b602083106111b1578051825260208201915060208101905060208303925061118e565b6001836020036101000a038019825116818451168082178552505050505050905001915050908152602001604051809103902060009054906101000a900473ffffffffffffffffffffffffffffffffffffffff169050600081905060008173ffffffffffffffffffffffffffffffffffffffff16633d5eb15f6040518163ffffffff1660e01b815260040160206040518083038186803b15801561125457600080fd5b505afa158015611268573d6000803e3d6000fd5b505050506040513d602081101561127e57600080fd5b810190808051906020019092919050505090506060859050600080825114156112a8576000801b90505b602087015190508060405160200180828152602001915050604051602081830303815290604052805190602001208360405160200180828152602001915050604051602081830303815290604052805190602001201415611345576040518060400160405280600d81526020017f6c6f67696e20737563636573730000000000000000000000000000000000000081525095505050505050611383565b6040518060400160405280600a81526020017f6c6f67696e206661696c00000000000000000000000000000000000000000000815250955050505050505b92915050565b6000806003836040518082805190602001908083835b602083106113c2578051825260208201915060208101905060208303925061139f565b6001836020036101000a038019825116818451168082178552505050505050905001915050908152602001604051809103902060009054906101000a900473ffffffffffffffffffffffffffffffffffffffff169050600081905060008173ffffffffffffffffffffffffffffffffffffffff16639748d3756040518163ffffffff1660e01b815260040160206040518083038186803b15801561146557600080fd5b505afa158015611479573d6000803e3d6000fd5b505050506040513d602081101561148f57600080fd5b81019080805190602001909291905050509050809350505050919050565b600080606080606080600087905060008173ffffffffffffffffffffffffffffffffffffffff1663bb4c402a6040518163ffffffff1660e01b815260040160206040518083038186803b15801561150357600080fd5b505afa158015611517573d6000803e3d6000fd5b505050506040513d602081101561152d57600080fd5b81019080805190602001909291905050509050600081905060608173ffffffffffffffffffffffffffffffffffffffff16635701895e6040518163ffffffff1660e01b815260040160006040518083038186803b15801561158d57600080fd5b505afa1580156115a1573d6000803e3d6000fd5b505050506040513d6000823e3d601f19601f8201168201806040525060208110156115cb57600080fd5b81019080805160405193929190846401000000008211156115eb57600080fd5b8382019150602082018581111561160157600080fd5b825186600182028301116401000000008211171561161e57600080fd5b8083526020830192505050908051906020019080838360005b83811015611652578082015181840152602081019050611637565b50505050905090810190601f16801561167f5780820380516001836020036101000a031916815260200191505b50604052505050905060608273ffffffffffffffffffffffffffffffffffffffff1663ba5cff896040518163ffffffff1660e01b815260040160006040518083038186803b1580156116d057600080fd5b505afa1580156116e4573d6000803e3d6000fd5b505050506040513d6000823e3d601f19601f82011682018060405250602081101561170e57600080fd5b810190808051604051939291908464010000000082111561172e57600080fd5b8382019150602082018581111561174457600080fd5b825186600182028301116401000000008211171561176157600080fd5b8083526020830192505050908051906020019080838360005b8381101561179557808201518184015260208101905061177a565b50505050905090810190601f1680156117c25780820380516001836020036101000a031916815260200191505b50604052505050905060608373ffffffffffffffffffffffffffffffffffffffff1663a07168946040518163ffffffff1660e01b815260040160006040518083038186803b15801561181357600080fd5b505afa158015611827573d6000803e3d6000fd5b505050506040513d6000823e3d601f19601f82011682018060405250602081101561185157600080fd5b810190808051604051939291908464010000000082111561187157600080fd5b8382019150602082018581111561188757600080fd5b82518660018202830111640100000000821117156118a457600080fd5b8083526020830192505050908051906020019080838360005b838110156118d85780820151818401526020810190506118bd565b50505050905090810190601f1680156119055780820380516001836020036101000a031916815260200191505b50604052505050905060608473ffffffffffffffffffffffffffffffffffffffff1663cf05e44e6040518163ffffffff1660e01b815260040160006040518083038186803b15801561195657600080fd5b505afa15801561196a573d6000803e3d6000fd5b505050506040513d6000823e3d601f19601f82011682018060405250602081101561199457600080fd5b81019080805160405193929190846401000000008211156119b457600080fd5b838201915060208201858111156119ca57600080fd5b82518660018202830111640100000000821117156119e757600080fd5b8083526020830192505050908051906020019080838360005b83811015611a1b578082015181840152602081019050611a00565b50505050905090810190601f168015611a485780820380516001836020036101000a031916815260200191505b50604052505050905060008773ffffffffffffffffffffffffffffffffffffffff166315923e1b6040518163ffffffff1660e01b815260040160206040518083038186803b158015611a9957600080fd5b505afa158015611aad573d6000803e3d6000fd5b505050506040513d6020811015611ac357600080fd5b8101908080519060200190929190505050905060008873ffffffffffffffffffffffffffffffffffffffff16633d5eb15f6040518163ffffffff1660e01b815260040160206040518083038186803b158015611b1e57600080fd5b505afa158015611b32573d6000803e3d6000fd5b505050506040513d6020811015611b4857600080fd5b810190808051906020019092919050505090508181878787879e509e509e509e509e509e5050505050505050505091939550919395565b600160009054906101000a900473ffffffffffffffffffffffffffffffffffffffff1681565b600080606080606080600087905060008173ffffffffffffffffffffffffffffffffffffffff1663bb4c402a6040518163ffffffff1660e01b815260040160206040518083038186803b158015611bfb57600080fd5b505afa158015611c0f573d6000803e3d6000fd5b505050506040513d6020811015611c2557600080fd5b81019080805190602001909291905050509050600081905060608173ffffffffffffffffffffffffffffffffffffffff1663e5a8f7d86040518163ffffffff1660e01b815260040160006040518083038186803b158015611c8557600080fd5b505afa158015611c99573d6000803e3d6000fd5b505050506040513d6000823e3d601f19601f820116820180604052506020811015611cc357600080fd5b8101908080516040519392919084640100000000821115611ce357600080fd5b83820191506020820185811115611cf957600080fd5b8251866001820283011164010000000082111715611d1657600080fd5b8083526020830192505050908051906020019080838360005b83811015611d4a578082015181840152602081019050611d2f565b50505050905090810190601f168015611d775780820380516001836020036101000a031916815260200191505b50604052505050905060608273ffffffffffffffffffffffffffffffffffffffff1663ba5cff896040518163ffffffff1660e01b815260040160006040518083038186803b158015611dc857600080fd5b505afa158015611ddc573d6000803e3d6000fd5b505050506040513d6000823e3d601f19601f820116820180604052506020811015611e0657600080fd5b8101908080516040519392919084640100000000821115611e2657600080fd5b83820191506020820185811115611e3c57600080fd5b8251866001820283011164010000000082111715611e5957600080fd5b8083526020830192505050908051906020019080838360005b83811015611e8d578082015181840152602081019050611e72565b50505050905090810190601f168015611eba5780820380516001836020036101000a031916815260200191505b50604052505050905060608373ffffffffffffffffffffffffffffffffffffffff1663a07168946040518163ffffffff1660e01b815260040160006040518083038186803b158015611f0b57600080fd5b505afa158015611f1f573d6000803e3d6000fd5b505050506040513d6000823e3d601f19601f820116820180604052506020811015611f4957600080fd5b8101908080516040519392919084640100000000821115611f6957600080fd5b83820191506020820185811115611f7f57600080fd5b8251866001820283011164010000000082111715611f9c57600080fd5b8083526020830192505050908051906020019080838360005b83811015611fd0578082015181840152602081019050611fb5565b50505050905090810190601f168015611ffd5780820380516001836020036101000a031916815260200191505b50604052505050905060608473ffffffffffffffffffffffffffffffffffffffff16639207b0f16040518163ffffffff1660e01b815260040160006040518083038186803b15801561204e57600080fd5b505afa158015612062573d6000803e3d6000fd5b505050506040513d6000823e3d601f19601f82011682018060405250602081101561208c57600080fd5b81019080805160405193929190846401000000008211156120ac57600080fd5b838201915060208201858111156120c257600080fd5b82518660018202830111640100000000821117156120df57600080fd5b8083526020830192505050908051906020019080838360005b838110156121135780820151818401526020810190506120f8565b50505050905090810190601f1680156121405780820380516001836020036101000a031916815260200191505b50604052505050905060008773ffffffffffffffffffffffffffffffffffffffff166315923e1b6040518163ffffffff1660e01b815260040160206040518083038186803b15801561219157600080fd5b505afa1580156121a5573d6000803e3d6000fd5b505050506040513d60208110156121bb57600080fd5b8101908080519060200190929190505050905060008873ffffffffffffffffffffffffffffffffffffffff16633d5eb15f6040518163ffffffff1660e01b815260040160206040518083038186803b15801561221657600080fd5b505afa15801561222a573d6000803e3d6000fd5b505050506040513d602081101561224057600080fd5b810190808051906020019092919050505090508181878787879e509e509e509e509e509e5050505050505050505091939550919395565b600085905060008173ffffffffffffffffffffffffffffffffffffffff1663bb4c402a6040518163ffffffff1660e01b815260040160206040518083038186803b1580156122c457600080fd5b505afa1580156122d8573d6000803e3d6000fd5b505050506040513d60208110156122ee57600080fd5b8101908080519060200190929190505050905060008190508073ffffffffffffffffffffffffffffffffffffffff166368126e66888888886040518563ffffffff1660e01b81526004018080602001806020018060200180602001858103855289818151815260200191508051906020019080838360005b83811015612381578082015181840152602081019050612366565b50505050905090810190601f1680156123ae5780820380516001836020036101000a031916815260200191505b50858103845288818151815260200191508051906020019080838360005b838110156123e75780820151818401526020810190506123cc565b50505050905090810190601f1680156124145780820380516001836020036101000a031916815260200191505b50858103835287818151815260200191508051906020019080838360005b8381101561244d578082015181840152602081019050612432565b50505050905090810190601f16801561247a5780820380516001836020036101000a031916815260200191505b50858103825286818151815260200191508051906020019080838360005b838110156124b3578082015181840152602081019050612498565b50505050905090810190601f1680156124e05780820380516001836020036101000a031916815260200191505b5098505050505050505050600060405180830381600087803b15801561250557600080fd5b505af1158015612519573d6000803e3d6000fd5b505050505050505050505050565b60006003826040518082805190602001908083835b6020831061255f578051825260208201915060208101905060208303925061253c565b6001836020036101000a038019825116818451168082178552505050505050905001915050908152602001604051809103902060009054906101000a900473ffffffffffffffffffffffffffffffffffffffff169050919050565b828054600181600116156101000203166002900490600052602060002090601f016020900481019282601f106125fb57805160ff1916838001178555612629565b82800160010185558215612629579182015b8281111561262857825182559160200191906001019061260d565b5b5090506126369190612661565b5090565b6108cd8061268783390190565b61052180612f5483390190565b6108cd8061347583390190565b61268391905b8082111561267f576000816000905550600101612667565b5090565b9056fe608060405234801561001057600080fd5b506108ad806100206000396000f3fe608060405234801561001057600080fd5b50600436106100575760003560e01c806368126e661461005c5780639207b0f1146102dc578063a07168941461035f578063ba5cff89146103e2578063e5a8f7d814610465575b600080fd5b6102da6004803603608081101561007257600080fd5b810190808035906020019064010000000081111561008f57600080fd5b8201836020820111156100a157600080fd5b803590602001918460018302840111640100000000831117156100c357600080fd5b91908080601f016020809104026020016040519081016040528093929190818152602001838380828437600081840152601f19601f8201169050808301925050505050505091929192908035906020019064010000000081111561012657600080fd5b82018360208201111561013857600080fd5b8035906020019184600183028401116401000000008311171561015a57600080fd5b91908080601f016020809104026020016040519081016040528093929190818152602001838380828437600081840152601f19601f820116905080830192505050505050509192919290803590602001906401000000008111156101bd57600080fd5b8201836020820111156101cf57600080fd5b803590602001918460018302840111640100000000831117156101f157600080fd5b91908080601f016020809104026020016040519081016040528093929190818152602001838380828437600081840152601f19601f8201169050808301925050505050505091929192908035906020019064010000000081111561025457600080fd5b82018360208201111561026657600080fd5b8035906020019184600183028401116401000000008311171561028857600080fd5b91908080601f016020809104026020016040519081016040528093929190818152602001838380828437600081840152601f19601f8201169050808301925050505050505091929192905050506104e8565b005b6102e461054a565b6040518080602001828103825283818151815260200191508051906020019080838360005b83811015610324578082015181840152602081019050610309565b50505050905090810190601f1680156103515780820380516001836020036101000a031916815260200191505b509250505060405180910390f35b6103676105ec565b6040518080602001828103825283818151815260200191508051906020019080838360005b838110156103a757808201518184015260208101905061038c565b50505050905090810190601f1680156103d45780820380516001836020036101000a031916815260200191505b509250505060405180910390f35b6103ea61068e565b6040518080602001828103825283818151815260200191508051906020019080838360005b8381101561042a57808201518184015260208101905061040f565b50505050905090810190601f1680156104575780820380516001836020036101000a031916815260200191505b509250505060405180910390f35b61046d610730565b6040518080602001828103825283818151815260200191508051906020019080838360005b838110156104ad578082015181840152602081019050610492565b50505050905090810190601f1680156104da5780820380516001836020036101000a031916815260200191505b509250505060405180910390f35b83600090805190602001906104fe9291906107d2565b5082600190805190602001906105159291906107d2565b50816002908051906020019061052c9291906107d2565b5080600390805190602001906105439291906107d2565b5050505050565b606060038054600181600116156101000203166002900480601f0160208091040260200160405190810160405280929190818152602001828054600181600116156101000203166002900480156105e25780601f106105b7576101008083540402835291602001916105e2565b820191906000526020600020905b8154815290600101906020018083116105c557829003601f168201915b5050505050905090565b606060028054600181600116156101000203166002900480601f0160208091040260200160405190810160405280929190818152602001828054600181600116156101000203166002900480156106845780601f1061065957610100808354040283529160200191610684565b820191906000526020600020905b81548152906001019060200180831161066757829003601f168201915b5050505050905090565b606060018054600181600116156101000203166002900480601f0160208091040260200160405190810160405280929190818152602001828054600181600116156101000203166002900480156107265780601f106106fb57610100808354040283529160200191610726565b820191906000526020600020905b81548152906001019060200180831161070957829003601f168201915b5050505050905090565b606060008054600181600116156101000203166002900480601f0160208091040260200160405190810160405280929190818152602001828054600181600116156101000203166002900480156107c85780601f1061079d576101008083540402835291602001916107c8565b820191906000526020600020905b8154815290600101906020018083116107ab57829003601f168201915b5050505050905090565b828054600181600116156101000203166002900490600052602060002090601f016020900481019282601f1061081357805160ff1916838001178555610841565b82800160010185558215610841579182015b82811115610840578251825591602001919060010190610825565b5b50905061084e9190610852565b5090565b61087491905b80821115610870576000816000905550600101610858565b5090565b9056fea2646970667358221220a884c71d32f9e487cf616f9c84cdb09f7739be8b66a1cbbc06d3730cd1689e8d64736f6c63430006060033608060405234801561001057600080fd5b506040516105213803806105218339818101604052608081101561003357600080fd5b81019080805190602001909291908051906020019092919080519060200190929190805190602001909291905050508360028190555082600381905550816000806101000a81548173ffffffffffffffffffffffffffffffffffffffff021916908373ffffffffffffffffffffffffffffffffffffffff1602179055508060048190555050505050610457806100ca6000396000f3fe608060405234801561001057600080fd5b50600436106100885760003560e01c8063741676371161005b57806374167637146101ce5780639748d37514610218578063b39a474a14610236578063bb4c402a146102f157610088565b80630c4a8ea81461008d57806315923e1b146100d75780632f510e89146100f55780633d5eb15f146101b0575b600080fd5b61009561033b565b604051808273ffffffffffffffffffffffffffffffffffffffff1673ffffffffffffffffffffffffffffffffffffffff16815260200191505060405180910390f35b6100df610361565b6040518082815260200191505060405180910390f35b6101ae6004803603602081101561010b57600080fd5b810190808035906020019064010000000081111561012857600080fd5b82018360208201111561013a57600080fd5b8035906020019184600183028401116401000000008311171561015c57600080fd5b91908080601f016020809104026020016040519081016040528093929190818152602001838380828437600081840152601f19601f82011690508083019250505050505050919291929050505061036b565b005b6101b8610395565b6040518082815260200191505060405180910390f35b6101d661039f565b604051808273ffffffffffffffffffffffffffffffffffffffff1673ffffffffffffffffffffffffffffffffffffffff16815260200191505060405180910390f35b6102206103c4565b6040518082815260200191505060405180910390f35b6102ef6004803603602081101561024c57600080fd5b810190808035906020019064010000000081111561026957600080fd5b82018360208201111561027b57600080fd5b8035906020019184600183028401116401000000008311171561029d57600080fd5b91908080601f016020809104026020016040519081016040528093929190818152602001838380828437600081840152601f19601f8201169050808301925050505050505091929192905050506103ce565b005b6102f96103f8565b604051808273ffffffffffffffffffffffffffffffffffffffff1673ffffffffffffffffffffffffffffffffffffffff16815260200191505060405180910390f35b600160009054906101000a900473ffffffffffffffffffffffffffffffffffffffff1681565b6000600254905090565b606081905060008082511415610382576000801b90505b6020830151905080600281905550505050565b6000600354905090565b6000809054906101000a900473ffffffffffffffffffffffffffffffffffffffff1681565b6000600454905090565b6060819050600080825114156103e5576000801b90505b6020830151905080600381905550505050565b60008060009054906101000a900473ffffffffffffffffffffffffffffffffffffffff1690509056fea2646970667358221220f577073a6c8097a87884ec76d3cbd1106f0290f5732393d99dbca8e05509b09864736f6c63430006060033608060405234801561001057600080fd5b506108ad806100206000396000f3fe608060405234801561001057600080fd5b50600436106100575760003560e01c80635701895e1461005c57806368126e66146100df578063a07168941461035f578063ba5cff89146103e2578063cf05e44e14610465575b600080fd5b6100646104e8565b6040518080602001828103825283818151815260200191508051906020019080838360005b838110156100a4578082015181840152602081019050610089565b50505050905090810190601f1680156100d15780820380516001836020036101000a031916815260200191505b509250505060405180910390f35b61035d600480360360808110156100f557600080fd5b810190808035906020019064010000000081111561011257600080fd5b82018360208201111561012457600080fd5b8035906020019184600183028401116401000000008311171561014657600080fd5b91908080601f016020809104026020016040519081016040528093929190818152602001838380828437600081840152601f19601f820116905080830192505050505050509192919290803590602001906401000000008111156101a957600080fd5b8201836020820111156101bb57600080fd5b803590602001918460018302840111640100000000831117156101dd57600080fd5b91908080601f016020809104026020016040519081016040528093929190818152602001838380828437600081840152601f19601f8201169050808301925050505050505091929192908035906020019064010000000081111561024057600080fd5b82018360208201111561025257600080fd5b8035906020019184600183028401116401000000008311171561027457600080fd5b91908080601f016020809104026020016040519081016040528093929190818152602001838380828437600081840152601f19601f820116905080830192505050505050509192919290803590602001906401000000008111156102d757600080fd5b8201836020820111156102e957600080fd5b8035906020019184600183028401116401000000008311171561030b57600080fd5b91908080601f016020809104026020016040519081016040528093929190818152602001838380828437600081840152601f19601f82011690508083019250505050505050919291929050505061058a565b005b6103676105ec565b6040518080602001828103825283818151815260200191508051906020019080838360005b838110156103a757808201518184015260208101905061038c565b50505050905090810190601f1680156103d45780820380516001836020036101000a031916815260200191505b509250505060405180910390f35b6103ea61068e565b6040518080602001828103825283818151815260200191508051906020019080838360005b8381101561042a57808201518184015260208101905061040f565b50505050905090810190601f1680156104575780820380516001836020036101000a031916815260200191505b509250505060405180910390f35b61046d610730565b6040518080602001828103825283818151815260200191508051906020019080838360005b838110156104ad578082015181840152602081019050610492565b50505050905090810190601f1680156104da5780820380516001836020036101000a031916815260200191505b509250505060405180910390f35b606060008054600181600116156101000203166002900480601f0160208091040260200160405190810160405280929190818152602001828054600181600116156101000203166002900480156105805780601f1061055557610100808354040283529160200191610580565b820191906000526020600020905b81548152906001019060200180831161056357829003601f168201915b5050505050905090565b83600090805190602001906105a09291906107d2565b5082600190805190602001906105b79291906107d2565b5081600290805190602001906105ce9291906107d2565b5080600390805190602001906105e59291906107d2565b5050505050565b606060028054600181600116156101000203166002900480601f0160208091040260200160405190810160405280929190818152602001828054600181600116156101000203166002900480156106845780601f1061065957610100808354040283529160200191610684565b820191906000526020600020905b81548152906001019060200180831161066757829003601f168201915b5050505050905090565b606060018054600181600116156101000203166002900480601f0160208091040260200160405190810160405280929190818152602001828054600181600116156101000203166002900480156107265780601f106106fb57610100808354040283529160200191610726565b820191906000526020600020905b81548152906001019060200180831161070957829003601f168201915b5050505050905090565b606060038054600181600116156101000203166002900480601f0160208091040260200160405190810160405280929190818152602001828054600181600116156101000203166002900480156107c85780601f1061079d576101008083540402835291602001916107c8565b820191906000526020600020905b8154815290600101906020018083116107ab57829003601f168201915b5050505050905090565b828054600181600116156101000203166002900490600052602060002090601f016020900481019282601f1061081357805160ff1916838001178555610841565b82800160010185558215610841579182015b82811115610840578251825591602001919060010190610825565b5b50905061084e9190610852565b5090565b61087491905b80821115610870576000816000905550600101610858565b5090565b9056fea2646970667358221220cb4a28779107a2525bbec2ad1c4d1955c8e85391c9cd45d5086ad07f4938c3c764736f6c63430006060033a26469706673582212207de5c453470dd202fb584b75379175b19d3c8dccb566af8fc9c4792e3f8a83e264736f6c63430006060033",
  "immutableReferences": {},
  "source": "// SPDX-License-Identifier: MIT\r\npragma solidity >=0.5.22 <0.9.0;\r\nimport \"./user.sol\";\r\nimport \"./EnterpriseAccount.sol\";\r\nimport \"./FunderAccount.sol\";\r\nimport \"./Account.sol\";\r\nimport \"./ProjectData.sol\";\r\nimport \"./FunderData.sol\";\r\nimport \"./DataManagement.sol\";\r\n\r\ncontract CreateManagement{\r\n    string _uid;\r\n    // ProjectData PD = new ProjectData(); //\r\n    // FunderData FD = new FunderData(); //\r\n  \r\n    // address public addr_pd = address(PD);\r\n    // address public addr_fd = address(FD);\r\n    \r\n    address public whataddr;\r\n    bytes32 Category;\r\n    mapping(string => address) users;   //ID\r\n    function create_user(string memory userid, string memory password,string memory kind) public { //\r\n        bytes32 uid;\r\n        bytes32 psd;\r\n        bytes32 category;\r\n        _uid=userid;\r\n        assembly {\r\n            uid := mload(add(userid, 32)) //Stringbytes32\r\n        }\r\n        assembly {\r\n            psd := mload(add(password, 32)) //Stringbytes32\r\n        }\r\n        assembly {\r\n            category := mload(add(kind, 32)) //Stringbytes32\r\n        }\r\n        \r\n        if(keccak256(abi.encodePacked(kind)) == keccak256(abi.encodePacked(\"Enterprise\"))){\r\n            EnterpriseAccount uc = new EnterpriseAccount(); //\r\n            User u = new User(uid, psd, address(uc),category);   //\r\n            users[userid]=address(u);   //usermapping\r\n            \r\n        }\r\n        else if(keccak256(abi.encodePacked(kind)) == keccak256(abi.encodePacked(\"Funder\"))){\r\n            FunderAccount Fuc = new FunderAccount(); //\r\n            User u = new User(uid, psd, address(Fuc),category);   //\r\n            users[userid]=address(u);   //usermapping\r\n        }\r\n    }\r\n    \r\n    function get_add(string memory Userid )public view returns(address){    //\r\n        return users[Userid];\r\n    }\r\n    \r\n    function update_user_account(address user_addr,string memory ID_OR_companyNumber,string memory e_addr ,string memory tel,string memory charger) public {\r\n        User u = User(user_addr);   //User\r\n        address ac_addr = u.get_account();  //Useraccount\r\n        Account uc = Account(ac_addr);  //user\r\n        uc.set_info(ID_OR_companyNumber,e_addr ,tel,charger);\r\n    }\r\n    \r\n    function get_Enterprise_account(address user_addr) public view returns(bytes32,bytes32,string memory,string memory,string memory,string memory){\r\n        User u = User(user_addr);   //User\r\n        address ac_addr = u.get_account();  //Useraccount\r\n        EnterpriseAccount uc = EnterpriseAccount(ac_addr);  //user\r\n        string memory Ccode = uc.get_info_CompanyCode();    //\r\n        string memory E_addr= uc.get_info_emailAddr();\r\n        string memory telnum= uc.get_info_telNum();\r\n        string memory charge= uc.get_info_chairman();\r\n        \r\n        bytes32 id=u.get_userid();\r\n        bytes32 pasd=u.get_password();\r\n        \r\n        return(id,pasd,Ccode,E_addr,telnum,charge);\r\n    }\r\n    \r\n    function get_Funder_account(address user_addr) public view returns(bytes32,bytes32,string memory,string memory,string memory,string memory){\r\n        User u = User(user_addr);   //User\r\n        address ac_addr = u.get_account();  //Useraccount\r\n        FunderAccount Fuc = FunderAccount(ac_addr);  //user\r\n        string memory idnum = Fuc.get_info_idnum();    //\r\n        string memory E_addr= Fuc.get_info_emailAddr();\r\n        string memory telnum= Fuc.get_info_telNum();\r\n        string memory currtAddr= Fuc.get_info_currentAddress();\r\n        \r\n        bytes32 id=u.get_userid();\r\n        bytes32 pasd=u.get_password();\r\n        \r\n        return(id,pasd,idnum,E_addr,telnum,currtAddr);\r\n    }\r\n    \r\n    function login(string memory userid,string memory password )public view returns(string memory){\r\n        address addr=users[userid];\r\n        User u = User(addr);\r\n        bytes32 U_psd=u.get_password();\r\n        bytes memory tempEmptyStringTest = bytes(password);\r\n        bytes32 Psd;\r\n        if (tempEmptyStringTest.length == 0) {\r\n            Psd = 0x0;\r\n        }\r\n\r\n        assembly {\r\n            Psd := mload(add(password, 32)) //Stringbytes32\r\n        }\r\n        \r\n        if(keccak256(abi.encodePacked(U_psd)) == keccak256(abi.encodePacked(Psd))){\r\n            return \"login success\";\r\n        }\r\n        else{\r\n            return\"login fail\";\r\n        }\r\n    }\r\n    \r\n   function get_category(string memory userid)public view returns(bytes32){\r\n        address addr=users[userid];\r\n        User u = User(addr);\r\n        bytes32 kind = u.get_category();\r\n        return kind;\r\n    }\r\n    \r\n    \r\n    \r\n}",
  "sourcePath": "C:/Users/Jim/AngelFund-System/contracts/CreateManagement.sol",
  "compiler": {
    "name": "solc",
    "version": "0.6.6+commit.6c089d02.Emscripten.clang"
  },
  "schemaVersion": "3.3.3",
  "updatedAt": "2021-08-03T13:35:30.085Z",
  "networkType": "ethereum",
  "devdoc": {
    "methods": {}
  },
  "userdoc": {
    "methods": {}
  }
}