{
  "contractName": "DataManagement",
  "abi": [
    {
      "inputs": [
        {
          "internalType": "bytes32",
          "name": "",
          "type": "bytes32"
        }
      ],
      "name": "match_result",
      "outputs": [
        {
          "internalType": "bytes32",
          "name": "userID",
          "type": "bytes32"
        },
        {
          "internalType": "bytes32",
          "name": "investment_duration",
          "type": "bytes32"
        },
        {
          "internalType": "uint256",
          "name": "investment_return",
          "type": "uint256"
        },
        {
          "internalType": "uint256",
          "name": "investment_amount",
          "type": "uint256"
        }
      ],
      "stateMutability": "view",
      "type": "function",
      "constant": true
    },
    {
      "inputs": [
        {
          "internalType": "string",
          "name": "id",
          "type": "string"
        },
        {
          "internalType": "string",
          "name": "eventnumber",
          "type": "string"
        },
        {
          "internalType": "string",
          "name": "project_Name",
          "type": "string"
        },
        {
          "internalType": "string",
          "name": "project_Indtroduce",
          "type": "string"
        },
        {
          "internalType": "string",
          "name": "project_Endday",
          "type": "string"
        },
        {
          "internalType": "uint256",
          "name": "Target_Amount",
          "type": "uint256"
        },
        {
          "internalType": "uint256",
          "name": "interest_Return",
          "type": "uint256"
        }
      ],
      "name": "set_ProjectData",
      "outputs": [],
      "stateMutability": "nonpayable",
      "type": "function"
    },
    {
      "inputs": [
        {
          "internalType": "string",
          "name": "id",
          "type": "string"
        },
        {
          "internalType": "string",
          "name": "eventnumber",
          "type": "string"
        }
      ],
      "name": "get_UniqueProjectData",
      "outputs": [
        {
          "internalType": "string",
          "name": "",
          "type": "string"
        },
        {
          "internalType": "string",
          "name": "",
          "type": "string"
        },
        {
          "internalType": "string",
          "name": "",
          "type": "string"
        },
        {
          "internalType": "uint256",
          "name": "",
          "type": "uint256"
        },
        {
          "internalType": "uint256",
          "name": "",
          "type": "uint256"
        }
      ],
      "stateMutability": "view",
      "type": "function",
      "constant": true
    },
    {
      "inputs": [],
      "name": "getAllProjectData",
      "outputs": [
        {
          "internalType": "bytes32[]",
          "name": "",
          "type": "bytes32[]"
        },
        {
          "internalType": "bytes32[]",
          "name": "",
          "type": "bytes32[]"
        },
        {
          "internalType": "bytes32[]",
          "name": "",
          "type": "bytes32[]"
        },
        {
          "internalType": "bytes32[]",
          "name": "",
          "type": "bytes32[]"
        },
        {
          "internalType": "uint256[]",
          "name": "",
          "type": "uint256[]"
        },
        {
          "internalType": "uint256[]",
          "name": "",
          "type": "uint256[]"
        }
      ],
      "stateMutability": "view",
      "type": "function",
      "constant": true
    },
    {
      "inputs": [
        {
          "internalType": "string",
          "name": "id",
          "type": "string"
        },
        {
          "internalType": "string",
          "name": "investment_number",
          "type": "string"
        },
        {
          "internalType": "string",
          "name": "investment_Duration",
          "type": "string"
        },
        {
          "internalType": "uint256",
          "name": "investment_Return",
          "type": "uint256"
        },
        {
          "internalType": "uint256",
          "name": "investment_Amount",
          "type": "uint256"
        }
      ],
      "name": "set_FundertData",
      "outputs": [],
      "stateMutability": "nonpayable",
      "type": "function"
    },
    {
      "inputs": [
        {
          "internalType": "string",
          "name": "id",
          "type": "string"
        },
        {
          "internalType": "string",
          "name": "investment_number",
          "type": "string"
        }
      ],
      "name": "get_UniqueFunderData",
      "outputs": [
        {
          "internalType": "string",
          "name": "",
          "type": "string"
        },
        {
          "internalType": "string",
          "name": "",
          "type": "string"
        },
        {
          "internalType": "uint256",
          "name": "",
          "type": "uint256"
        },
        {
          "internalType": "uint256",
          "name": "",
          "type": "uint256"
        },
        {
          "internalType": "uint256",
          "name": "",
          "type": "uint256"
        }
      ],
      "stateMutability": "view",
      "type": "function",
      "constant": true
    },
    {
      "inputs": [],
      "name": "get_allFunderData",
      "outputs": [
        {
          "internalType": "bytes32[]",
          "name": "",
          "type": "bytes32[]"
        },
        {
          "internalType": "bytes32[]",
          "name": "",
          "type": "bytes32[]"
        },
        {
          "internalType": "uint256[]",
          "name": "",
          "type": "uint256[]"
        },
        {
          "internalType": "uint256[]",
          "name": "",
          "type": "uint256[]"
        },
        {
          "internalType": "uint256[]",
          "name": "",
          "type": "uint256[]"
        }
      ],
      "stateMutability": "view",
      "type": "function",
      "constant": true
    },
    {
      "inputs": [],
      "name": "matching",
      "outputs": [],
      "stateMutability": "nonpayable",
      "type": "function"
    },
    {
      "inputs": [
        {
          "internalType": "bytes32",
          "name": "id",
          "type": "bytes32"
        }
      ],
      "name": "get_MatchingData",
      "outputs": [
        {
          "internalType": "bytes32",
          "name": "",
          "type": "bytes32"
        },
        {
          "internalType": "bytes32",
          "name": "",
          "type": "bytes32"
        },
        {
          "internalType": "uint256",
          "name": "",
          "type": "uint256"
        },
        {
          "internalType": "uint256",
          "name": "",
          "type": "uint256"
        }
      ],
      "stateMutability": "view",
      "type": "function",
      "constant": true
    },
    {
      "inputs": [],
      "name": "get_counted",
      "outputs": [
        {
          "internalType": "uint256",
          "name": "",
          "type": "uint256"
        }
      ],
      "stateMutability": "view",
      "type": "function",
      "constant": true
    },
    {
      "inputs": [
        {
          "internalType": "bytes32",
          "name": "enterID",
          "type": "bytes32"
        }
      ],
      "name": "get_Txnaddr",
      "outputs": [
        {
          "internalType": "address",
          "name": "",
          "type": "address"
        }
      ],
      "stateMutability": "view",
      "type": "function",
      "constant": true
    },
    {
      "inputs": [
        {
          "internalType": "address",
          "name": "addr",
          "type": "address"
        }
      ],
      "name": "set_txn",
      "outputs": [],
      "stateMutability": "nonpayable",
      "type": "function"
    },
    {
      "inputs": [
        {
          "internalType": "address",
          "name": "addr",
          "type": "address"
        }
      ],
      "name": "get_TXNFunderWallet",
      "outputs": [
        {
          "internalType": "bytes32",
          "name": "",
          "type": "bytes32"
        },
        {
          "internalType": "uint256",
          "name": "",
          "type": "uint256"
        },
        {
          "internalType": "uint256",
          "name": "",
          "type": "uint256"
        },
        {
          "internalType": "uint256",
          "name": "",
          "type": "uint256"
        },
        {
          "internalType": "uint256",
          "name": "",
          "type": "uint256"
        }
      ],
      "stateMutability": "view",
      "type": "function",
      "constant": true
    },
    {
      "inputs": [
        {
          "internalType": "address",
          "name": "addr",
          "type": "address"
        }
      ],
      "name": "get_TXNEnterpriserWallet",
      "outputs": [
        {
          "internalType": "bytes32",
          "name": "",
          "type": "bytes32"
        },
        {
          "internalType": "string",
          "name": "",
          "type": "string"
        },
        {
          "internalType": "uint256",
          "name": "",
          "type": "uint256"
        },
        {
          "internalType": "uint256",
          "name": "",
          "type": "uint256"
        },
        {
          "internalType": "uint256",
          "name": "",
          "type": "uint256"
        },
        {
          "internalType": "uint256",
          "name": "",
          "type": "uint256"
        }
      ],
      "stateMutability": "view",
      "type": "function",
      "constant": true
    }
  ],
  "bytecode": "0x60806040526040516200001290620001b6565b604051809103906000f0801580156200002f573d6000803e3d6000fd5b50600260006101000a81548173ffffffffffffffffffffffffffffffffffffffff021916908373ffffffffffffffffffffffffffffffffffffffff1602179055506040516200007e90620001c4565b604051809103906000f0801580156200009b573d6000803e3d6000fd5b50600360006101000a81548173ffffffffffffffffffffffffffffffffffffffff021916908373ffffffffffffffffffffffffffffffffffffffff160217905550600260009054906101000a900473ffffffffffffffffffffffffffffffffffffffff16600460006101000a81548173ffffffffffffffffffffffffffffffffffffffff021916908373ffffffffffffffffffffffffffffffffffffffff160217905550600360009054906101000a900473ffffffffffffffffffffffffffffffffffffffff16600560006101000a81548173ffffffffffffffffffffffffffffffffffffffff021916908373ffffffffffffffffffffffffffffffffffffffff160217905550348015620001af57600080fd5b50620001d2565b6120008062003aad83390190565b61168e8062005aad83390190565b6138cb80620001e26000396000f3fe608060405234801561001057600080fd5b50600436106100ea5760003560e01c806399e0f2591161008c578063c227fb3611610066578063c227fb3614610bff578063cacfd68b14610c43578063e6b52e9f14610e0a578063ef2b438d14610eea576100ea565b806399e0f259146108ed578063ae5ec2e914610944578063bf1235531461094e576100ea565b8063697bd4a4116100c8578063697bd4a4146104a65780638735ef62146104fd57806390f765571461067c57806397dd71b8146106f0576100ea565b8063222847be146100ef5780634740ac571461015d5780635f62fc8e1461017b575b600080fd5b61011b6004803603602081101561010557600080fd5b8101908080359060200190929190505050611136565b604051808273ffffffffffffffffffffffffffffffffffffffff1673ffffffffffffffffffffffffffffffffffffffff16815260200191505060405180910390f35b610165611172565b6040518082815260200191505060405180910390f35b6104a4600480360360e081101561019157600080fd5b81019080803590602001906401000000008111156101ae57600080fd5b8201836020820111156101c057600080fd5b803590602001918460018302840111640100000000831117156101e257600080fd5b91908080601f016020809104026020016040519081016040528093929190818152602001838380828437600081840152601f19601f8201169050808301925050505050505091929192908035906020019064010000000081111561024557600080fd5b82018360208201111561025757600080fd5b8035906020019184600183028401116401000000008311171561027957600080fd5b91908080601f016020809104026020016040519081016040528093929190818152602001838380828437600081840152601f19601f820116905080830192505050505050509192919290803590602001906401000000008111156102dc57600080fd5b8201836020820111156102ee57600080fd5b8035906020019184600183028401116401000000008311171561031057600080fd5b91908080601f016020809104026020016040519081016040528093929190818152602001838380828437600081840152601f19601f8201169050808301925050505050505091929192908035906020019064010000000081111561037357600080fd5b82018360208201111561038557600080fd5b803590602001918460018302840111640100000000831117156103a757600080fd5b91908080601f016020809104026020016040519081016040528093929190818152602001838380828437600081840152601f19601f8201169050808301925050505050505091929192908035906020019064010000000081111561040a57600080fd5b82018360208201111561041c57600080fd5b8035906020019184600183028401116401000000008311171561043e57600080fd5b91908080601f016020809104026020016040519081016040528093929190818152602001838380828437600081840152601f19601f820116905080830192505050505050509192919290803590602001909291908035906020019092919050505061117c565b005b6104d2600480360360208110156104bc57600080fd5b8101908080359060200190929190505050611441565b6040518085815260200184815260200183815260200182815260200194505050505060405180910390f35b6105056114bb565b60405180806020018060200180602001806020018060200186810386528b818151815260200191508051906020019060200280838360005b8381101561055857808201518184015260208101905061053d565b5050505090500186810385528a818151815260200191508051906020019060200280838360005b8381101561059a57808201518184015260208101905061057f565b50505050905001868103845289818151815260200191508051906020019060200280838360005b838110156105dc5780820151818401526020810190506105c1565b50505050905001868103835288818151815260200191508051906020019060200280838360005b8381101561061e578082015181840152602081019050610603565b50505050905001868103825287818151815260200191508051906020019060200280838360005b83811015610660578082015181840152602081019050610645565b505050509050019a505050505050505050505060405180910390f35b6106be6004803603602081101561069257600080fd5b81019080803573ffffffffffffffffffffffffffffffffffffffff169060200190929190505050611889565b604051808681526020018581526020018481526020018381526020018281526020019550505050505060405180910390f35b6108eb600480360360a081101561070657600080fd5b810190808035906020019064010000000081111561072357600080fd5b82018360208201111561073557600080fd5b8035906020019184600183028401116401000000008311171561075757600080fd5b91908080601f016020809104026020016040519081016040528093929190818152602001838380828437600081840152601f19601f820116905080830192505050505050509192919290803590602001906401000000008111156107ba57600080fd5b8201836020820111156107cc57600080fd5b803590602001918460018302840111640100000000831117156107ee57600080fd5b91908080601f016020809104026020016040519081016040528093929190818152602001838380828437600081840152601f19601f8201169050808301925050505050505091929192908035906020019064010000000081111561085157600080fd5b82018360208201111561086357600080fd5b8035906020019184600183028401116401000000008311171561088557600080fd5b91908080601f016020809104026020016040519081016040528093929190818152602001838380828437600081840152601f19601f8201169050808301925050505050505091929192908035906020019092919080359060200190929190505050611978565b005b6109196004803603602081101561090357600080fd5b8101908080359060200190929190505050611b61565b6040518085815260200184815260200183815260200182815260200194505050505060405180910390f35b61094c611b91565b005b610a9e6004803603604081101561096457600080fd5b810190808035906020019064010000000081111561098157600080fd5b82018360208201111561099357600080fd5b803590602001918460018302840111640100000000831117156109b557600080fd5b91908080601f016020809104026020016040519081016040528093929190818152602001838380828437600081840152601f19601f82011690508083019250505050505050919291929080359060200190640100000000811115610a1857600080fd5b820183602082011115610a2a57600080fd5b80359060200191846001830284011164010000000083111715610a4c57600080fd5b91908080601f016020809104026020016040519081016040528093929190818152602001838380828437600081840152601f19601f820116905080830192505050505050509192919290505050611e9b565b60405180806020018060200180602001868152602001858152602001848103845289818151815260200191508051906020019080838360005b83811015610af2578082015181840152602081019050610ad7565b50505050905090810190601f168015610b1f5780820380516001836020036101000a031916815260200191505b50848103835288818151815260200191508051906020019080838360005b83811015610b58578082015181840152602081019050610b3d565b50505050905090810190601f168015610b855780820380516001836020036101000a031916815260200191505b50848103825287818151815260200191508051906020019080838360005b83811015610bbe578082015181840152602081019050610ba3565b50505050905090810190601f168015610beb5780820380516001836020036101000a031916815260200191505b509850505050505050505060405180910390f35b610c4160048036036020811015610c1557600080fd5b81019080803573ffffffffffffffffffffffffffffffffffffffff1690602001909291905050506122a6565b005b610c4b61230f565b6040518080602001806020018060200180602001806020018060200187810387528d818151815260200191508051906020019060200280838360005b83811015610ca2578082015181840152602081019050610c87565b5050505090500187810386528c818151815260200191508051906020019060200280838360005b83811015610ce4578082015181840152602081019050610cc9565b5050505090500187810385528b818151815260200191508051906020019060200280838360005b83811015610d26578082015181840152602081019050610d0b565b5050505090500187810384528a818151815260200191508051906020019060200280838360005b83811015610d68578082015181840152602081019050610d4d565b50505050905001878103835289818151815260200191508051906020019060200280838360005b83811015610daa578082015181840152602081019050610d8f565b50505050905001878103825288818151815260200191508051906020019060200280838360005b83811015610dec578082015181840152602081019050610dd1565b505050509050019c5050505050505050505050505060405180910390f35b610e4c60048036036020811015610e2057600080fd5b81019080803573ffffffffffffffffffffffffffffffffffffffff16906020019092919050505061277b565b6040518087815260200180602001868152602001858152602001848152602001838152602001828103825287818151815260200191508051906020019080838360005b83811015610eaa578082015181840152602081019050610e8f565b50505050905090810190601f168015610ed75780820380516001836020036101000a031916815260200191505b5097505050505050505060405180910390f35b61103a60048036036040811015610f0057600080fd5b8101908080359060200190640100000000811115610f1d57600080fd5b820183602082011115610f2f57600080fd5b80359060200191846001830284011164010000000083111715610f5157600080fd5b91908080601f016020809104026020016040519081016040528093929190818152602001838380828437600081840152601f19601f82011690508083019250505050505050919291929080359060200190640100000000811115610fb457600080fd5b820183602082011115610fc657600080fd5b80359060200191846001830284011164010000000083111715610fe857600080fd5b91908080601f016020809104026020016040519081016040528093929190818152602001838380828437600081840152601f19601f820116905080830192505050505050509192919290505050612942565b604051808060200180602001868152602001858152602001848152602001838103835288818151815260200191508051906020019080838360005b83811015611090578082015181840152602081019050611075565b50505050905090810190601f1680156110bd5780820380516001836020036101000a031916815260200191505b50838103825287818151815260200191508051906020019080838360005b838110156110f65780820151818401526020810190506110db565b50505050905090810190601f1680156111235780820380516001836020036101000a031916815260200191505b5097505050505050505060405180910390f35b600080600083815260200190815260200160002060009054906101000a900473ffffffffffffffffffffffffffffffffffffffff169050919050565b6000600654905090565b6000600460009054906101000a900473ffffffffffffffffffffffffffffffffffffffff1690508073ffffffffffffffffffffffffffffffffffffffff1663ab976f99898989898989896040518863ffffffff1660e01b815260040180806020018060200180602001806020018060200188815260200187815260200186810386528d818151815260200191508051906020019080838360005b83811015611231578082015181840152602081019050611216565b50505050905090810190601f16801561125e5780820380516001836020036101000a031916815260200191505b5086810385528c818151815260200191508051906020019080838360005b8381101561129757808201518184015260208101905061127c565b50505050905090810190601f1680156112c45780820380516001836020036101000a031916815260200191505b5086810384528b818151815260200191508051906020019080838360005b838110156112fd5780820151818401526020810190506112e2565b50505050905090810190601f16801561132a5780820380516001836020036101000a031916815260200191505b5086810383528a818151815260200191508051906020019080838360005b83811015611363578082015181840152602081019050611348565b50505050905090810190601f1680156113905780820380516001836020036101000a031916815260200191505b50868103825289818151815260200191508051906020019080838360005b838110156113c95780820151818401526020810190506113ae565b50505050905090810190601f1680156113f65780820380516001836020036101000a031916815260200191505b509c50505050505050505050505050600060405180830381600087803b15801561141f57600080fd5b505af1158015611433573d6000803e3d6000fd5b505050505050505050505050565b60008060008061144f612c9f565b60016000878152602001908152602001600020604051806080016040529081600082015481526020016001820154815260200160028201548152602001600382015481525050905080600001518160200151826040015183606001519450945094509450509193509193565b60608060608060606000600560009054906101000a900473ffffffffffffffffffffffffffffffffffffffff16905060608060608060608573ffffffffffffffffffffffffffffffffffffffff1663fa645d996040518163ffffffff1660e01b815260040160006040518083038186803b15801561153857600080fd5b505afa15801561154c573d6000803e3d6000fd5b505050506040513d6000823e3d601f19601f8201168201806040525060a081101561157657600080fd5b810190808051604051939291908464010000000082111561159657600080fd5b838201915060208201858111156115ac57600080fd5b82518660208202830111640100000000821117156115c957600080fd5b8083526020830192505050908051906020019060200280838360005b838110156116005780820151818401526020810190506115e5565b505050509050016040526020018051604051939291908464010000000082111561162957600080fd5b8382019150602082018581111561163f57600080fd5b825186602082028301116401000000008211171561165c57600080fd5b8083526020830192505050908051906020019060200280838360005b83811015611693578082015181840152602081019050611678565b50505050905001604052602001805160405193929190846401000000008211156116bc57600080fd5b838201915060208201858111156116d257600080fd5b82518660208202830111640100000000821117156116ef57600080fd5b8083526020830192505050908051906020019060200280838360005b8381101561172657808201518184015260208101905061170b565b505050509050016040526020018051604051939291908464010000000082111561174f57600080fd5b8382019150602082018581111561176557600080fd5b825186602082028301116401000000008211171561178257600080fd5b8083526020830192505050908051906020019060200280838360005b838110156117b957808201518184015260208101905061179e565b50505050905001604052602001805160405193929190846401000000008211156117e257600080fd5b838201915060208201858111156117f857600080fd5b825186602082028301116401000000008211171561181557600080fd5b8083526020830192505050908051906020019060200280838360005b8381101561184c578082015181840152602081019050611831565b50505050905001604052505050809550819650829750839850849950505050505084848484849a509a509a509a509a505050505050509091929394565b60008060008060008086905060008060008060008573ffffffffffffffffffffffffffffffffffffffff166357cb61d26040518163ffffffff1660e01b815260040160a06040518083038186803b1580156118e357600080fd5b505afa1580156118f7573d6000803e3d6000fd5b505050506040513d60a081101561190d57600080fd5b810190808051906020019092919080519060200190929190805190602001909291908051906020019092919080519060200190929190505050809550819650829750839850849950505050505084848484849a509a509a509a509a5050505050505091939590929450565b6000600560009054906101000a900473ffffffffffffffffffffffffffffffffffffffff1690508073ffffffffffffffffffffffffffffffffffffffff1663f545487287878787876040518663ffffffff1660e01b815260040180806020018060200180602001868152602001858152602001848103845289818151815260200191508051906020019080838360005b83811015611a23578082015181840152602081019050611a08565b50505050905090810190601f168015611a505780820380516001836020036101000a031916815260200191505b50848103835288818151815260200191508051906020019080838360005b83811015611a89578082015181840152602081019050611a6e565b50505050905090810190601f168015611ab65780820380516001836020036101000a031916815260200191505b50848103825287818151815260200191508051906020019080838360005b83811015611aef578082015181840152602081019050611ad4565b50505050905090810190601f168015611b1c5780820380516001836020036101000a031916815260200191505b5098505050505050505050600060405180830381600087803b158015611b4157600080fd5b505af1158015611b55573d6000803e3d6000fd5b50505050505050505050565b60016020528060005260406000206000915090508060000154908060010154908060020154908060030154905084565b6060806060806060806060806000611ba761230f565b909192935090919250909150809950819a50829b50505050611bc76114bb565b809650819750829850839950849a50505050505060008090505b8951811015611e885760008a51905060008090505b8851811015611c9157898381518110611c0b57fe5b6020026020010151878281518110611c1f57fe5b602002602001015111158015611c5b57508a8381518110611c3c57fe5b6020026020010151868281518110611c5057fe5b602002602001015110155b8015611c7b57506000858281518110611c7057fe5b602002602001015114155b15611c84578091505b8080600101915050611bf6565b508a518114611e7a576040518060800160405280898381518110611cb157fe5b60200260200101518152602001888381518110611cca57fe5b60200260200101518152602001878381518110611ce357fe5b60200260200101518152602001868381518110611cfc57fe5b6020026020010151815250600160008d8581518110611d1757fe5b60200260200101518152602001908152602001600020600082015181600001556020820151816001015560408201518160020155606082015181600301559050506000848281518110611d6657fe5b60200260200101818152505060008b8381518110611d8057fe5b6020026020010151898381518110611d9457fe5b602002602001015130604051611da990612ccd565b808481526020018381526020018273ffffffffffffffffffffffffffffffffffffffff1673ffffffffffffffffffffffffffffffffffffffff1681526020019350505050604051809103906000f080158015611e09573d6000803e3d6000fd5b509050806000808e8681518110611e1c57fe5b6020026020010151815260200190815260200160002060006101000a81548173ffffffffffffffffffffffffffffffffffffffff021916908373ffffffffffffffffffffffffffffffffffffffff1602179055508380600101945050505b508080600101915050611be1565b5080600681905550505050505050505050565b60608060606000806000600460009054906101000a900473ffffffffffffffffffffffffffffffffffffffff16905060608060606000808573ffffffffffffffffffffffffffffffffffffffff166326ca9e358e8e6040518363ffffffff1660e01b8152600401808060200180602001838103835285818151815260200191508051906020019080838360005b83811015611f43578082015181840152602081019050611f28565b50505050905090810190601f168015611f705780820380516001836020036101000a031916815260200191505b50838103825284818151815260200191508051906020019080838360005b83811015611fa9578082015181840152602081019050611f8e565b50505050905090810190601f168015611fd65780820380516001836020036101000a031916815260200191505b5094505050505060006040518083038186803b158015611ff557600080fd5b505afa158015612009573d6000803e3d6000fd5b505050506040513d6000823e3d601f19601f8201168201806040525060a081101561203357600080fd5b810190808051604051939291908464010000000082111561205357600080fd5b8382019150602082018581111561206957600080fd5b825186600182028301116401000000008211171561208657600080fd5b8083526020830192505050908051906020019080838360005b838110156120ba57808201518184015260208101905061209f565b50505050905090810190601f1680156120e75780820380516001836020036101000a031916815260200191505b506040526020018051604051939291908464010000000082111561210a57600080fd5b8382019150602082018581111561212057600080fd5b825186600182028301116401000000008211171561213d57600080fd5b8083526020830192505050908051906020019080838360005b83811015612171578082015181840152602081019050612156565b50505050905090810190601f16801561219e5780820380516001836020036101000a031916815260200191505b50604052602001805160405193929190846401000000008211156121c157600080fd5b838201915060208201858111156121d757600080fd5b82518660018202830111640100000000821117156121f457600080fd5b8083526020830192505050908051906020019080838360005b8381101561222857808201518184015260208101905061220d565b50505050905090810190601f1680156122555780820380516001836020036101000a031916815260200191505b506040526020018051906020019092919080519060200190929190505050809550819650829750839850849950505050505084848484849a509a509a509a509a505050505050509295509295909350565b60008190508073ffffffffffffffffffffffffffffffffffffffff1663ffc2afd16040518163ffffffff1660e01b8152600401600060405180830381600087803b1580156122f357600080fd5b505af1158015612307573d6000803e3d6000fd5b505050505050565b6060806060806060806000600460009054906101000a900473ffffffffffffffffffffffffffffffffffffffff1690506060806060806060808673ffffffffffffffffffffffffffffffffffffffff1663113b4bc66040518163ffffffff1660e01b815260040160006040518083038186803b15801561238e57600080fd5b505afa1580156123a2573d6000803e3d6000fd5b505050506040513d6000823e3d601f19601f8201168201806040525060c08110156123cc57600080fd5b81019080805160405193929190846401000000008211156123ec57600080fd5b8382019150602082018581111561240257600080fd5b825186602082028301116401000000008211171561241f57600080fd5b8083526020830192505050908051906020019060200280838360005b8381101561245657808201518184015260208101905061243b565b505050509050016040526020018051604051939291908464010000000082111561247f57600080fd5b8382019150602082018581111561249557600080fd5b82518660208202830111640100000000821117156124b257600080fd5b8083526020830192505050908051906020019060200280838360005b838110156124e95780820151818401526020810190506124ce565b505050509050016040526020018051604051939291908464010000000082111561251257600080fd5b8382019150602082018581111561252857600080fd5b825186602082028301116401000000008211171561254557600080fd5b8083526020830192505050908051906020019060200280838360005b8381101561257c578082015181840152602081019050612561565b50505050905001604052602001805160405193929190846401000000008211156125a557600080fd5b838201915060208201858111156125bb57600080fd5b82518660208202830111640100000000821117156125d857600080fd5b8083526020830192505050908051906020019060200280838360005b8381101561260f5780820151818401526020810190506125f4565b505050509050016040526020018051604051939291908464010000000082111561263857600080fd5b8382019150602082018581111561264e57600080fd5b825186602082028301116401000000008211171561266b57600080fd5b8083526020830192505050908051906020019060200280838360005b838110156126a2578082015181840152602081019050612687565b50505050905001604052602001805160405193929190846401000000008211156126cb57600080fd5b838201915060208201858111156126e157600080fd5b82518660208202830111640100000000821117156126fe57600080fd5b8083526020830192505050908051906020019060200280838360005b8381101561273557808201518184015260208101905061271a565b50505050905001604052505050809650819750829850839950849a50859b505050505050508585858585859c509c509c509c509c509c5050505050505050909192939495565b600060606000806000806000879050600060606000806000808673ffffffffffffffffffffffffffffffffffffffff1663a1a646d56040518163ffffffff1660e01b815260040160006040518083038186803b1580156127da57600080fd5b505afa1580156127ee573d6000803e3d6000fd5b505050506040513d6000823e3d601f19601f8201168201806040525060c081101561281857600080fd5b81019080805190602001909291908051604051939291908464010000000082111561284257600080fd5b8382019150602082018581111561285857600080fd5b825186600182028301116401000000008211171561287557600080fd5b8083526020830192505050908051906020019080838360005b838110156128a957808201518184015260208101905061288e565b50505050905090810190601f1680156128d65780820380516001836020036101000a031916815260200191505b5060405260200180519060200190929190805190602001909291908051906020019092919080519060200190929190505050809650819750829850839950849a50859b505050505050508585858585859c509c509c509c509c509c505050505050505091939550919395565b606080600080600080600560009054906101000a900473ffffffffffffffffffffffffffffffffffffffff16905060608060008060008573ffffffffffffffffffffffffffffffffffffffff16639812497b8e8e6040518363ffffffff1660e01b8152600401808060200180602001838103835285818151815260200191508051906020019080838360005b838110156129e95780820151818401526020810190506129ce565b50505050905090810190601f168015612a165780820380516001836020036101000a031916815260200191505b50838103825284818151815260200191508051906020019080838360005b83811015612a4f578082015181840152602081019050612a34565b50505050905090810190601f168015612a7c5780820380516001836020036101000a031916815260200191505b5094505050505060006040518083038186803b158015612a9b57600080fd5b505afa158015612aaf573d6000803e3d6000fd5b505050506040513d6000823e3d601f19601f8201168201806040525060a0811015612ad957600080fd5b8101908080516040519392919084640100000000821115612af957600080fd5b83820191506020820185811115612b0f57600080fd5b8251866001820283011164010000000082111715612b2c57600080fd5b8083526020830192505050908051906020019080838360005b83811015612b60578082015181840152602081019050612b45565b50505050905090810190601f168015612b8d5780820380516001836020036101000a031916815260200191505b5060405260200180516040519392919084640100000000821115612bb057600080fd5b83820191506020820185811115612bc657600080fd5b8251866001820283011164010000000082111715612be357600080fd5b8083526020830192505050908051906020019080838360005b83811015612c17578082015181840152602081019050612bfc565b50505050905090810190601f168015612c445780820380516001836020036101000a031916815260200191505b50604052602001805190602001909291908051906020019092919080519060200190929190505050809550819650829750839850849950505050505084848484849a509a509a509a509a505050505050509295509295909350565b6040518060800160405280600080191681526020016000801916815260200160008152602001600081525090565b610bbb80612cdb8339019056fe608060405234801561001057600080fd5b50604051610bbb380380610bbb8339818101604052606081101561003357600080fd5b81019080805190602001909291908051906020019092919080519060200190929190505050826000819055508160018190555080600260006101000a81548173ffffffffffffffffffffffffffffffffffffffff021916908373ffffffffffffffffffffffffffffffffffffffff160217905550600260009054906101000a900473ffffffffffffffffffffffffffffffffffffffff16600960006101000a81548173ffffffffffffffffffffffffffffffffffffffff021916908373ffffffffffffffffffffffffffffffffffffffff160217905550505050610a9f8061011c6000396000f3fe608060405234801561001057600080fd5b506004361061004c5760003560e01c806357cb61d21461005157806371f604571461008b578063a1a646d5146100a9578063ffc2afd11461014f575b600080fd5b610059610159565b604051808681526020018581526020018481526020018381526020018281526020019550505050505060405180910390f35b610093610190565b6040518082815260200191505060405180910390f35b6100b1610199565b6040518087815260200180602001868152602001858152602001848152602001838152602001828103825287818151815260200191508051906020019080838360005b8381101561010f5780820151818401526020810190506100f4565b50505050905090810190601f16801561013c5780820380516001836020036101000a031916815260200191505b5097505050505050505060405180910390f35b610157610275565b005b6000806000806000600a60000154600a60010154600a60020154600a60030154600a60040154945094509450945094509091929394565b60008054905090565b6000606060008060008060036000015460036001016003600201546003800154600360040154600360050154848054600181600116156101000203166002900480601f01602080910402602001604051908101604052809291908181526020018280546001816001161561010002031660029004801561025a5780601f1061022f5761010080835404028352916020019161025a565b820191906000526020600020905b81548152906001019060200180831161023d57829003601f168201915b50505050509450955095509550955095509550909192939495565b6000806000600960009054906101000a900473ffffffffffffffffffffffffffffffffffffffff1673ffffffffffffffffffffffffffffffffffffffff1663697bd4a46000546040518263ffffffff1660e01b81526004018082815260200191505060806040518083038186803b1580156102ef57600080fd5b505afa158015610303573d6000803e3d6000fd5b505050506040513d608081101561031957600080fd5b81019080805190602001909291908051906020019092919080519060200190929190805190602001909291905050509091508093508194508295505050506040518060a00160405280848152602001838152602001828152602001600081526020016000815250600a6000820151816000015560208201518160010155604082015181600201556060820151816003015560808201518160040155905050606060008090505b60208160ff1610801561040c5750600060f81b6000548260ff16602081106103e357fe5b1a60f81b7effffffffffffffffffffffffffffffffffffffffffffffffffffffffffffff191614155b1561041e5780806001019150506103bf565b60608160ff1667ffffffffffffffff8111801561043a57600080fd5b506040519080825280601f01601f19166020018201604052801561046d5781602001600182028036833780820191505090505b509050600091505b60208260ff161080156104c25750600060f81b6000548360ff166020811061049957fe5b1a60f81b7effffffffffffffffffffffffffffffffffffffffffffffffffffffffffffff191614155b15610527576000548260ff16602081106104d857fe5b1a60f81b818360ff16815181106104eb57fe5b60200101907effffffffffffffffffffffffffffffffffffffffffffffffffffffffffffff1916908160001a9053508180600101925050610475565b8092506060600080600960009054906101000a900473ffffffffffffffffffffffffffffffffffffffff1673ffffffffffffffffffffffffffffffffffffffff1663bf123553876040518263ffffffff1660e01b8152600401808060200180602001838103835284818151815260200191508051906020019080838360005b838110156105c15780820151818401526020810190506105a6565b50505050905090810190601f1680156105ee5780820380516001836020036101000a031916815260200191505b50838103825260018152602001807f3100000000000000000000000000000000000000000000000000000000000000815250602001935050505060006040518083038186803b15801561064057600080fd5b505afa158015610654573d6000803e3d6000fd5b505050506040513d6000823e3d601f19601f8201168201806040525060a081101561067e57600080fd5b810190808051604051939291908464010000000082111561069e57600080fd5b838201915060208201858111156106b457600080fd5b82518660018202830111640100000000821117156106d157600080fd5b8083526020830192505050908051906020019080838360005b838110156107055780820151818401526020810190506106ea565b50505050905090810190601f1680156107325780820380516001836020036101000a031916815260200191505b506040526020018051604051939291908464010000000082111561075557600080fd5b8382019150602082018581111561076b57600080fd5b825186600182028301116401000000008211171561078857600080fd5b8083526020830192505050908051906020019080838360005b838110156107bc5780820151818401526020810190506107a1565b50505050905090810190601f1680156107e95780820380516001836020036101000a031916815260200191505b506040526020018051604051939291908464010000000082111561080c57600080fd5b8382019150602082018581111561082257600080fd5b825186600182028301116401000000008211171561083f57600080fd5b8083526020830192505050908051906020019080838360005b83811015610873578082015181840152602081019050610858565b50505050905090810190601f1680156108a05780820380516001836020036101000a031916815260200191505b506040526020018051906020019092919080519060200190929190505050909192509091508093508194508295505050506040518060c001604052806000548152602001848152602001838152602001828152602001600081526020016000815250600360008201518160000155602082015181600101908051906020019061092a9291906109c4565b5060408201518160020155606082015181600301556080820151816004015560a08201518160050155905050600360020154600a6002015403600a6003018190555060646003600201546003800154028161098157fe5b04600a600401819055506003600201546003600401819055506064600360020154600380015402816109af57fe5b04600360050181905550505050505050505050565b828054600181600116156101000203166002900490600052602060002090601f016020900481019282601f10610a0557805160ff1916838001178555610a33565b82800160010185558215610a33579182015b82811115610a32578251825591602001919060010190610a17565b5b509050610a409190610a44565b5090565b610a6691905b80821115610a62576000816000905550600101610a4a565b5090565b9056fea264697066735822122061dd19538f742b34d634d34460247ef3196d6b72838758a13dd5fe5062cbd29964736f6c63430006060033a2646970667358221220d928920de132b574e9bac69b3a5aa81392da56c47b7bd6484d4083d786e64b6e64736f6c63430006060033608060405234801561001057600080fd5b50611fe0806100206000396000f3fe608060405234801561001057600080fd5b50600436106100575760003560e01c806302a0f10e1461005c578063113b4bc61461037957806326ca9e351461054057806364634c8a146107f1578063ab976f99146109ea575b600080fd5b6101ac6004803603604081101561007257600080fd5b810190808035906020019064010000000081111561008f57600080fd5b8201836020820111156100a157600080fd5b803590602001918460018302840111640100000000831117156100c357600080fd5b91908080601f016020809104026020016040519081016040528093929190818152602001838380828437600081840152601f19601f8201169050808301925050505050505091929192908035906020019064010000000081111561012657600080fd5b82018360208201111561013857600080fd5b8035906020019184600183028401116401000000008311171561015a57600080fd5b91908080601f016020809104026020016040519081016040528093929190818152602001838380828437600081840152601f19601f820116905080830192505050505050509192919290505050610d15565b604051808060200180602001806020018060200187815260200186815260200185810385528b818151815260200191508051906020019080838360005b838110156102045780820151818401526020810190506101e9565b50505050905090810190601f1680156102315780820380516001836020036101000a031916815260200191505b5085810384528a818151815260200191508051906020019080838360005b8381101561026a57808201518184015260208101905061024f565b50505050905090810190601f1680156102975780820380516001836020036101000a031916815260200191505b50858103835289818151815260200191508051906020019080838360005b838110156102d05780820151818401526020810190506102b5565b50505050905090810190601f1680156102fd5780820380516001836020036101000a031916815260200191505b50858103825288818151815260200191508051906020019080838360005b8381101561033657808201518184015260208101905061031b565b50505050905090810190601f1680156103635780820380516001836020036101000a031916815260200191505b509a505050505050505050505060405180910390f35b610381610fea565b6040518080602001806020018060200180602001806020018060200187810387528d818151815260200191508051906020019060200280838360005b838110156103d85780820151818401526020810190506103bd565b5050505090500187810386528c818151815260200191508051906020019060200280838360005b8381101561041a5780820151818401526020810190506103ff565b5050505090500187810385528b818151815260200191508051906020019060200280838360005b8381101561045c578082015181840152602081019050610441565b5050505090500187810384528a818151815260200191508051906020019060200280838360005b8381101561049e578082015181840152602081019050610483565b50505050905001878103835289818151815260200191508051906020019060200280838360005b838110156104e05780820151818401526020810190506104c5565b50505050905001878103825288818151815260200191508051906020019060200280838360005b83811015610522578082015181840152602081019050610507565b505050509050019c5050505050505050505050505060405180910390f35b6106906004803603604081101561055657600080fd5b810190808035906020019064010000000081111561057357600080fd5b82018360208201111561058557600080fd5b803590602001918460018302840111640100000000831117156105a757600080fd5b91908080601f016020809104026020016040519081016040528093929190818152602001838380828437600081840152601f19601f8201169050808301925050505050505091929192908035906020019064010000000081111561060a57600080fd5b82018360208201111561061c57600080fd5b8035906020019184600183028401116401000000008311171561063e57600080fd5b91908080601f016020809104026020016040519081016040528093929190818152602001838380828437600081840152601f19601f8201169050808301925050505050505091929192905050506115fc565b60405180806020018060200180602001868152602001858152602001848103845289818151815260200191508051906020019080838360005b838110156106e45780820151818401526020810190506106c9565b50505050905090810190601f1680156107115780820380516001836020036101000a031916815260200191505b50848103835288818151815260200191508051906020019080838360005b8381101561074a57808201518184015260208101905061072f565b50505050905090810190601f1680156107775780820380516001836020036101000a031916815260200191505b50848103825287818151815260200191508051906020019080838360005b838110156107b0578082015181840152602081019050610795565b50505050905090810190601f1680156107dd5780820380516001836020036101000a031916815260200191505b509850505050505050505060405180910390f35b61081d6004803603602081101561080757600080fd5b81019080803590602001909291905050506119b3565b604051808060200180602001806020018060200187815260200186815260200185810385528b818151815260200191508051906020019080838360005b8381101561087557808201518184015260208101905061085a565b50505050905090810190601f1680156108a25780820380516001836020036101000a031916815260200191505b5085810384528a818151815260200191508051906020019080838360005b838110156108db5780820151818401526020810190506108c0565b50505050905090810190601f1680156109085780820380516001836020036101000a031916815260200191505b50858103835289818151815260200191508051906020019080838360005b83811015610941578082015181840152602081019050610926565b50505050905090810190601f16801561096e5780820380516001836020036101000a031916815260200191505b50858103825288818151815260200191508051906020019080838360005b838110156109a757808201518184015260208101905061098c565b50505050905090810190601f1680156109d45780820380516001836020036101000a031916815260200191505b509a505050505050505050505060405180910390f35b610d13600480360360e0811015610a0057600080fd5b8101908080359060200190640100000000811115610a1d57600080fd5b820183602082011115610a2f57600080fd5b80359060200191846001830284011164010000000083111715610a5157600080fd5b91908080601f016020809104026020016040519081016040528093929190818152602001838380828437600081840152601f19601f82011690508083019250505050505050919291929080359060200190640100000000811115610ab457600080fd5b820183602082011115610ac657600080fd5b80359060200191846001830284011164010000000083111715610ae857600080fd5b91908080601f016020809104026020016040519081016040528093929190818152602001838380828437600081840152601f19601f82011690508083019250505050505050919291929080359060200190640100000000811115610b4b57600080fd5b820183602082011115610b5d57600080fd5b80359060200191846001830284011164010000000083111715610b7f57600080fd5b91908080601f016020809104026020016040519081016040528093929190818152602001838380828437600081840152601f19601f82011690508083019250505050505050919291929080359060200190640100000000811115610be257600080fd5b820183602082011115610bf457600080fd5b80359060200191846001830284011164010000000083111715610c1657600080fd5b91908080601f016020809104026020016040519081016040528093929190818152602001838380828437600081840152601f19601f82011690508083019250505050505050919291929080359060200190640100000000811115610c7957600080fd5b820183602082011115610c8b57600080fd5b80359060200191846001830284011164010000000083111715610cad57600080fd5b91908080601f016020809104026020016040519081016040528093929190818152602001838380828437600081840152601f19601f8201169050808301925050505050505091929192908035906020019092919080359060200190929190505050611c5c565b005b6001828051602081018201805184825260208301602085012081835280955050505050508180516020810182018051848252602083016020850120818352809550505050505060009150915050806000018054600181600116156101000203166002900480601f016020809104026020016040519081016040528092919081815260200182805460018160011615610100020316600290048015610dfa5780601f10610dcf57610100808354040283529160200191610dfa565b820191906000526020600020905b815481529060010190602001808311610ddd57829003601f168201915b505050505090806001018054600181600116156101000203166002900480601f016020809104026020016040519081016040528092919081815260200182805460018160011615610100020316600290048015610e985780601f10610e6d57610100808354040283529160200191610e98565b820191906000526020600020905b815481529060010190602001808311610e7b57829003601f168201915b505050505090806002018054600181600116156101000203166002900480601f016020809104026020016040519081016040528092919081815260200182805460018160011615610100020316600290048015610f365780601f10610f0b57610100808354040283529160200191610f36565b820191906000526020600020905b815481529060010190602001808311610f1957829003601f168201915b505050505090806003018054600181600116156101000203166002900480601f016020809104026020016040519081016040528092919081815260200182805460018160011615610100020316600290048015610fd45780601f10610fa957610100808354040283529160200191610fd4565b820191906000526020600020905b815481529060010190602001808311610fb757829003601f168201915b5050505050908060040154908060050154905086565b606080606080606080606060008054905067ffffffffffffffff8111801561101157600080fd5b506040519080825280602002602001820160405280156110405781602001602082028036833780820191505090505b509050606060008054905067ffffffffffffffff8111801561106157600080fd5b506040519080825280602002602001820160405280156110905781602001602082028036833780820191505090505b509050606060008054905067ffffffffffffffff811180156110b157600080fd5b506040519080825280602002602001820160405280156110e05781602001602082028036833780820191505090505b509050606060008054905067ffffffffffffffff8111801561110157600080fd5b506040519080825280602002602001820160405280156111305781602001602082028036833780820191505090505b509050606060008054905067ffffffffffffffff8111801561115157600080fd5b506040519080825280602002602001820160405280156111805781602001602082028036833780820191505090505b509050606060008054905067ffffffffffffffff811180156111a157600080fd5b506040519080825280602002602001820160405280156111d05781602001602082028036833780820191505090505b50905060008090505b6000805490508110156115db576000806000806060600086815481106111fb57fe5b90600052602060002090600602016001018054600181600116156101000203166002900480601f0160208091040260200160405190810160405280929190818152602001828054600181600116156101000203166002900480156112a05780601f10611275576101008083540402835291602001916112a0565b820191906000526020600020905b81548152906001019060200180831161128357829003601f168201915b50505050509050602081015194506060600087815481106112bd57fe5b90600052602060002090600602016002018054600181600116156101000203166002900480601f0160208091040260200160405190810160405280929190818152602001828054600181600116156101000203166002900480156113625780601f1061133757610100808354040283529160200191611362565b820191906000526020600020905b81548152906001019060200180831161134557829003601f168201915b505050505090506020810151945060606000888154811061137f57fe5b90600052602060002090600602016003018054600181600116156101000203166002900480601f0160208091040260200160405190810160405280929190818152602001828054600181600116156101000203166002900480156114245780601f106113f957610100808354040283529160200191611424565b820191906000526020600020905b81548152906001019060200180831161140757829003601f168201915b505050505090506020810151945060606000898154811061144157fe5b90600052602060002090600602016000018054600181600116156101000203166002900480601f0160208091040260200160405190810160405280929190818152602001828054600181600116156101000203166002900480156114e65780601f106114bb576101008083540402835291602001916114e6565b820191906000526020600020905b8154815290600101906020018083116114c957829003601f168201915b5050505050905060208101519450848f8a8151811061150157fe5b602002602001018181525050878e8a8151811061151a57fe5b602002602001018181525050868d8a8151811061153357fe5b602002602001018181525050858c8a8151811061154c57fe5b6020026020010181815250506000898154811061156557fe5b9060005260206000209060060201600401548b8a8151811061158357fe5b6020026020010181815250506000898154811061159c57fe5b9060005260206000209060060201600501548a8a815181106115ba57fe5b602002602001018181525050505050505050505080806001019150506111d9565b508585858585859b509b509b509b509b509b50505050505050909192939495565b606080606060008061160c611ecf565b6001886040518082805190602001908083835b60208310611642578051825260208201915060208101905060208303925061161f565b6001836020036101000a0380198251168184511680821785525050505050509050019150509081526020016040518091039020876040518082805190602001908083835b602083106116a95780518252602082019150602081019050602083039250611686565b6001836020036101000a03801982511681845116808217855250505050505090500191505090815260200160405180910390206040518060c0016040529081600082018054600181600116156101000203166002900480601f0160208091040260200160405190810160405280929190818152602001828054600181600116156101000203166002900480156117805780601f1061175557610100808354040283529160200191611780565b820191906000526020600020905b81548152906001019060200180831161176357829003601f168201915b50505050508152602001600182018054600181600116156101000203166002900480601f0160208091040260200160405190810160405280929190818152602001828054600181600116156101000203166002900480156118225780601f106117f757610100808354040283529160200191611822565b820191906000526020600020905b81548152906001019060200180831161180557829003601f168201915b50505050508152602001600282018054600181600116156101000203166002900480601f0160208091040260200160405190810160405280929190818152602001828054600181600116156101000203166002900480156118c45780601f10611899576101008083540402835291602001916118c4565b820191906000526020600020905b8154815290600101906020018083116118a757829003601f168201915b50505050508152602001600382018054600181600116156101000203166002900480601f0160208091040260200160405190810160405280929190818152602001828054600181600116156101000203166002900480156119665780601f1061193b57610100808354040283529160200191611966565b820191906000526020600020905b81548152906001019060200180831161194957829003601f168201915b5050505050815260200160048201548152602001600582015481525050905080602001518160400151826060015183608001518460a0015195509550955095509550509295509295909350565b600081815481106119c057fe5b9060005260206000209060060201600091509050806000018054600181600116156101000203166002900480601f016020809104026020016040519081016040528092919081815260200182805460018160011615610100020316600290048015611a6c5780601f10611a4157610100808354040283529160200191611a6c565b820191906000526020600020905b815481529060010190602001808311611a4f57829003601f168201915b505050505090806001018054600181600116156101000203166002900480601f016020809104026020016040519081016040528092919081815260200182805460018160011615610100020316600290048015611b0a5780601f10611adf57610100808354040283529160200191611b0a565b820191906000526020600020905b815481529060010190602001808311611aed57829003601f168201915b505050505090806002018054600181600116156101000203166002900480601f016020809104026020016040519081016040528092919081815260200182805460018160011615610100020316600290048015611ba85780601f10611b7d57610100808354040283529160200191611ba8565b820191906000526020600020905b815481529060010190602001808311611b8b57829003601f168201915b505050505090806003018054600181600116156101000203166002900480601f016020809104026020016040519081016040528092919081815260200182805460018160011615610100020316600290048015611c465780601f10611c1b57610100808354040283529160200191611c46565b820191906000526020600020905b815481529060010190602001808311611c2957829003601f168201915b5050505050908060040154908060050154905086565b6040518060c00160405280888152602001868152602001858152602001848152602001838152602001828152506001886040518082805190602001908083835b60208310611cbf5780518252602082019150602081019050602083039250611c9c565b6001836020036101000a0380198251168184511680821785525050505050509050019150509081526020016040518091039020876040518082805190602001908083835b60208310611d265780518252602082019150602081019050602083039250611d03565b6001836020036101000a03801982511681845116808217855250505050505090500191505090815260200160405180910390206000820151816000019080519060200190611d75929190611f05565b506020820151816001019080519060200190611d92929190611f05565b506040820151816002019080519060200190611daf929190611f05565b506060820151816003019080519060200190611dcc929190611f05565b506080820151816004015560a0820151816005015590505060006040518060c001604052808981526020018781526020018681526020018581526020018481526020018381525090806001815401808255809150506001900390600052602060002090600602016000909190919091506000820151816000019080519060200190611e58929190611f05565b506020820151816001019080519060200190611e75929190611f05565b506040820151816002019080519060200190611e92929190611f05565b506060820151816003019080519060200190611eaf929190611f05565b506080820151816004015560a08201518160050155505050505050505050565b6040518060c001604052806060815260200160608152602001606081526020016060815260200160008152602001600081525090565b828054600181600116156101000203166002900490600052602060002090601f016020900481019282601f10611f4657805160ff1916838001178555611f74565b82800160010185558215611f74579182015b82811115611f73578251825591602001919060010190611f58565b5b509050611f819190611f85565b5090565b611fa791905b80821115611fa3576000816000905550600101611f8b565b5090565b9056fea26469706673582212209634f941b794b9a4e9288bcbc011d60f770da5b40e6cebfea9c3ce4fc74d77e064736f6c63430006060033608060405234801561001057600080fd5b5061166e806100206000396000f3fe608060405234801561001057600080fd5b50600436106100575760003560e01c80636b4150561461005c578063851b89b7146102a85780639812497b146103d0578063f54548721461061c578063fa645d9914610819575b600080fd5b6101ac6004803603604081101561007257600080fd5b810190808035906020019064010000000081111561008f57600080fd5b8201836020820111156100a157600080fd5b803590602001918460018302840111640100000000831117156100c357600080fd5b91908080601f016020809104026020016040519081016040528093929190818152602001838380828437600081840152601f19601f8201169050808301925050505050505091929192908035906020019064010000000081111561012657600080fd5b82018360208201111561013857600080fd5b8035906020019184600183028401116401000000008311171561015a57600080fd5b91908080601f016020809104026020016040519081016040528093929190818152602001838380828437600081840152601f19601f820116905080830192505050505050509192919290505050610998565b604051808060200180602001868152602001858152602001848152602001838103835288818151815260200191508051906020019080838360005b838110156102025780820151818401526020810190506101e7565b50505050905090810190601f16801561022f5780820380516001836020036101000a031916815260200191505b50838103825287818151815260200191508051906020019080838360005b8381101561026857808201518184015260208101905061024d565b50505050905090810190601f1680156102955780820380516001836020036101000a031916815260200191505b5097505050505050505060405180910390f35b6102d4600480360360208110156102be57600080fd5b8101908080359060200190929190505050610b37565b604051808060200180602001868152602001858152602001848152602001838103835288818151815260200191508051906020019080838360005b8381101561032a57808201518184015260208101905061030f565b50505050905090810190601f1680156103575780820380516001836020036101000a031916815260200191505b50838103825287818151815260200191508051906020019080838360005b83811015610390578082015181840152602081019050610375565b50505050905090810190601f1680156103bd5780820380516001836020036101000a031916815260200191505b5097505050505050505060405180910390f35b610520600480360360408110156103e657600080fd5b810190808035906020019064010000000081111561040357600080fd5b82018360208201111561041557600080fd5b8035906020019184600183028401116401000000008311171561043757600080fd5b91908080601f016020809104026020016040519081016040528093929190818152602001838380828437600081840152601f19601f8201169050808301925050505050505091929192908035906020019064010000000081111561049a57600080fd5b8201836020820111156104ac57600080fd5b803590602001918460018302840111640100000000831117156104ce57600080fd5b91908080601f016020809104026020016040519081016040528093929190818152602001838380828437600081840152601f19601f820116905080830192505050505050509192919290505050610caa565b604051808060200180602001868152602001858152602001848152602001838103835288818151815260200191508051906020019080838360005b8381101561057657808201518184015260208101905061055b565b50505050905090810190601f1680156105a35780820380516001836020036101000a031916815260200191505b50838103825287818151815260200191508051906020019080838360005b838110156105dc5780820151818401526020810190506105c1565b50505050905090810190601f1680156106095780820380516001836020036101000a031916815260200191505b5097505050505050505060405180910390f35b610817600480360360a081101561063257600080fd5b810190808035906020019064010000000081111561064f57600080fd5b82018360208201111561066157600080fd5b8035906020019184600183028401116401000000008311171561068357600080fd5b91908080601f016020809104026020016040519081016040528093929190818152602001838380828437600081840152601f19601f820116905080830192505050505050509192919290803590602001906401000000008111156106e657600080fd5b8201836020820111156106f857600080fd5b8035906020019184600183028401116401000000008311171561071a57600080fd5b91908080601f016020809104026020016040519081016040528093929190818152602001838380828437600081840152601f19601f8201169050808301925050505050505091929192908035906020019064010000000081111561077d57600080fd5b82018360208201111561078f57600080fd5b803590602001918460018302840111640100000000831117156107b157600080fd5b91908080601f016020809104026020016040519081016040528093929190818152602001838380828437600081840152601f19601f8201169050808301925050505050505091929192908035906020019092919080359060200190929190505050610f27565b005b61082161112e565b60405180806020018060200180602001806020018060200186810386528b818151815260200191508051906020019060200280838360005b83811015610874578082015181840152602081019050610859565b5050505090500186810385528a818151815260200191508051906020019060200280838360005b838110156108b657808201518184015260208101905061089b565b50505050905001868103845289818151815260200191508051906020019060200280838360005b838110156108f85780820151818401526020810190506108dd565b50505050905001868103835288818151815260200191508051906020019060200280838360005b8381101561093a57808201518184015260208101905061091f565b50505050905001868103825287818151815260200191508051906020019060200280838360005b8381101561097c578082015181840152602081019050610961565b505050509050019a505050505050505050505060405180910390f35b6000828051602081018201805184825260208301602085012081835280955050505050508180516020810182018051848252602083016020850120818352809550505050505060009150915050806000018054600181600116156101000203166002900480601f016020809104026020016040519081016040528092919081815260200182805460018160011615610100020316600290048015610a7d5780601f10610a5257610100808354040283529160200191610a7d565b820191906000526020600020905b815481529060010190602001808311610a6057829003601f168201915b505050505090806001018054600181600116156101000203166002900480601f016020809104026020016040519081016040528092919081815260200182805460018160011615610100020316600290048015610b1b5780601f10610af057610100808354040283529160200191610b1b565b820191906000526020600020905b815481529060010190602001808311610afe57829003601f168201915b5050505050908060020154908060030154908060040154905085565b60018181548110610b4457fe5b9060005260206000209060050201600091509050806000018054600181600116156101000203166002900480601f016020809104026020016040519081016040528092919081815260200182805460018160011615610100020316600290048015610bf05780601f10610bc557610100808354040283529160200191610bf0565b820191906000526020600020905b815481529060010190602001808311610bd357829003601f168201915b505050505090806001018054600181600116156101000203166002900480601f016020809104026020016040519081016040528092919081815260200182805460018160011615610100020316600290048015610c8e5780601f10610c6357610100808354040283529160200191610c8e565b820191906000526020600020905b815481529060010190602001808311610c7157829003601f168201915b5050505050908060020154908060030154908060040154905085565b6060806000806000610cba611564565b6000886040518082805190602001908083835b60208310610cf05780518252602082019150602081019050602083039250610ccd565b6001836020036101000a0380198251168184511680821785525050505050509050019150509081526020016040518091039020876040518082805190602001908083835b60208310610d575780518252602082019150602081019050602083039250610d34565b6001836020036101000a03801982511681845116808217855250505050505090500191505090815260200160405180910390206040518060a0016040529081600082018054600181600116156101000203166002900480601f016020809104026020016040519081016040528092919081815260200182805460018160011615610100020316600290048015610e2e5780601f10610e0357610100808354040283529160200191610e2e565b820191906000526020600020905b815481529060010190602001808311610e1157829003601f168201915b50505050508152602001600182018054600181600116156101000203166002900480601f016020809104026020016040519081016040528092919081815260200182805460018160011615610100020316600290048015610ed05780601f10610ea557610100808354040283529160200191610ed0565b820191906000526020600020905b815481529060010190602001808311610eb357829003601f168201915b50505050508152602001600282015481526020016003820154815260200160048201548152505090508060000151816020015182604001518360600151846080015195509550955095509550509295509295909350565b6040518060a0016040528086815260200184815260200183815260200182815260200160018152506000866040518082805190602001908083835b60208310610f855780518252602082019150602081019050602083039250610f62565b6001836020036101000a0380198251168184511680821785525050505050509050019150509081526020016040518091039020856040518082805190602001908083835b60208310610fec5780518252602082019150602081019050602083039250610fc9565b6001836020036101000a0380198251168184511680821785525050505050509050019150509081526020016040518091039020600082015181600001908051906020019061103b929190611593565b506020820151816001019080519060200190611058929190611593565b5060408201518160020155606082015181600301556080820151816004015590505060016040518060a001604052808781526020018581526020018481526020018381526020016001815250908060018154018082558091505060019003906000526020600020906005020160009091909190915060008201518160000190805190602001906110e9929190611593565b506020820151816001019080519060200190611106929190611593565b5060408201518160020155606082015181600301556080820151816004015550505050505050565b60608060608060608060018054905067ffffffffffffffff8111801561115357600080fd5b506040519080825280602002602001820160405280156111825781602001602082028036833780820191505090505b509050606060018054905067ffffffffffffffff811180156111a357600080fd5b506040519080825280602002602001820160405280156111d25781602001602082028036833780820191505090505b509050606060018054905067ffffffffffffffff811180156111f357600080fd5b506040519080825280602002602001820160405280156112225781602001602082028036833780820191505090505b509050606060018054905067ffffffffffffffff8111801561124357600080fd5b506040519080825280602002602001820160405280156112725781602001602082028036833780820191505090505b509050606060018054905067ffffffffffffffff8111801561129357600080fd5b506040519080825280602002602001820160405280156112c25781602001602082028036833780820191505090505b50905060008090505b6001805490508110156115485760006060600183815481106112e957fe5b90600052602060002090600502016001018054600181600116156101000203166002900480601f01602080910402602001604051908101604052809291908181526020018280546001816001161561010002031660029004801561138e5780601f106113635761010080835404028352916020019161138e565b820191906000526020600020905b81548152906001019060200180831161137157829003601f168201915b505050505090506020810151915060006060600185815481106113ad57fe5b90600052602060002090600502016000018054600181600116156101000203166002900480601f0160208091040260200160405190810160405280929190818152602001828054600181600116156101000203166002900480156114525780601f1061142757610100808354040283529160200191611452565b820191906000526020600020905b81548152906001019060200180831161143557829003601f168201915b5050505050905060208101519150818a868151811061146d57fe5b6020026020010181815250508389868151811061148657fe5b6020026020010181815250506001858154811061149f57fe5b9060005260206000209060050201600201548886815181106114bd57fe5b602002602001018181525050600185815481106114d657fe5b9060005260206000209060050201600301548786815181106114f457fe5b6020026020010181815250506001858154811061150d57fe5b90600052602060002090600502016004015486868151811061152b57fe5b6020026020010181815250505050505080806001019150506112cb565b5084848484849950995099509950995050505050509091929394565b6040518060a0016040528060608152602001606081526020016000815260200160008152602001600081525090565b828054600181600116156101000203166002900490600052602060002090601f016020900481019282601f106115d457805160ff1916838001178555611602565b82800160010185558215611602579182015b828111156116015782518255916020019190600101906115e6565b5b50905061160f9190611613565b5090565b61163591905b80821115611631576000816000905550600101611619565b5090565b9056fea2646970667358221220b5c99eb173f8e5a6e3794831f3834ed39c2125967a4718e4ae5044aac8a53c5464736f6c63430006060033",
  "immutableReferences": {},
  "source": "// SPDX-License-Identifier: MIT\r\npragma solidity >=0.5.22 <0.9.0;\r\nimport \"./ProjectData.sol\";\r\nimport \"./FunderData.sol\";\r\nimport \"./user.sol\";\r\nimport \"./Transaction.sol\";\r\n\r\ncontract DataManagement{\r\n    //IDFunder ID,Funder Struct\r\n     mapping(bytes32 => address) Txn_addr;\r\n    mapping(bytes32 => match_funder) public match_result;\r\n    struct match_funder{\r\n        bytes32 userID;\r\n        bytes32 investment_duration;\r\n        uint256 investment_return;\r\n        uint256 investment_amount;\r\n    }\r\n    ProjectData PD = new ProjectData(); //\r\n    FunderData FD = new FunderData(); //\r\n    address addr_pd = address(PD);\r\n    address addr_fd = address(FD);\r\n    uint counted;\r\n    //\r\n    function set_ProjectData(string memory id,string memory eventnumber,string memory project_Name,string memory project_Indtroduce,string memory project_Endday\r\n    ,uint256 Target_Amount,uint256 interest_Return)public{\r\n        ProjectData pd = ProjectData(addr_pd);\r\n        pd.set_project(id,eventnumber,project_Name,project_Indtroduce,project_Endday,Target_Amount,interest_Return);\r\n    }\r\n    \r\n    //\r\n    function get_UniqueProjectData(string memory id,string memory eventnumber)public view returns(string memory,string memory,string memory,uint256,uint256){\r\n        ProjectData pd = ProjectData(addr_pd);\r\n        string memory name;\r\n        string memory intro;\r\n        string memory date;\r\n        uint256 t_money;\r\n        uint256 i_returns;\r\n        (name,intro,date,t_money,i_returns)=pd.get_Userproject(id,eventnumber);\r\n        return (name,intro,date,t_money,i_returns);\r\n    }\r\n    //\r\n    function getAllProjectData()public view returns(bytes32[] memory,bytes32[] memory,bytes32[] memory,bytes32[] memory,uint256[] memory,uint256[] memory){\r\n        ProjectData pd = ProjectData(addr_pd);\r\n        bytes32[] memory idds;\r\n        bytes32[] memory names;\r\n        bytes32[] memory introdecues;\r\n        bytes32[] memory enddays;\r\n        uint256[] memory t_amounts;\r\n        uint256[] memory i_returns;\r\n        \r\n        (idds,names,introdecues,enddays,t_amounts,i_returns)=pd.get_allproject();\r\n        return(idds,names,introdecues,enddays,t_amounts,i_returns);\r\n    }\r\n    \r\n    //\r\n    function set_FundertData(string memory id,string memory investment_number,string memory investment_Duration,uint256 investment_Return,uint256 investment_Amount)public{\r\n        FunderData fd = FunderData(addr_fd);\r\n        fd.set_funding(id,investment_number,investment_Duration,investment_Return,investment_Amount);\r\n    }\r\n    //\r\n    function get_UniqueFunderData(string memory id,string memory investment_number)public view returns(string memory,string memory,uint256,uint256,uint256){\r\n        FunderData fd = FunderData(addr_fd);\r\n        string memory idd;\r\n        string memory duration;\r\n        uint256 benefit;\r\n        uint256 money;\r\n        uint256 statement;\r\n        (idd,duration,benefit,money,statement)=fd.get_funding(id,investment_number);\r\n        return (idd,duration,benefit,money,statement);\r\n    }\r\n    //\r\n    function get_allFunderData()public view returns(bytes32[] memory,bytes32[] memory,uint256[] memory,uint256[] memory,uint256[] memory){\r\n        FunderData fd = FunderData(addr_fd);\r\n        bytes32[] memory idds;\r\n        bytes32[] memory duration;\r\n        uint256[] memory payment;\r\n        uint256[] memory i_amounts;\r\n        uint256[] memory statements;\r\n        (idds,duration,payment,i_amounts,statements)=fd.get_allfundig();\r\n        return(idds,duration,payment,i_amounts,statements);\r\n    }\r\n    //MatchingFunder\r\n    function matching()public{\r\n        bytes32[] memory pro_idds;\r\n        uint256[] memory t_amounts;\r\n        uint256[] memory i_returns;\r\n        \r\n        bytes32[] memory fun_idds;\r\n        bytes32[] memory duration;\r\n        uint256[] memory interest;\r\n        uint256[] memory i_amounts;\r\n        uint256[] memory statements;\r\n        uint count;\r\n        (pro_idds,,,,t_amounts,i_returns)=DataManagement.getAllProjectData();\r\n        (fun_idds,duration,interest,i_amounts,statements)=DataManagement.get_allFunderData();\r\n        \r\n        for(uint i = 0 ; i <pro_idds.length ; i++){\r\n            uint256 n = pro_idds.length; \r\n            for(uint j=0 ; j<fun_idds.length ; j++){ \r\n                if(interest[j] <= i_returns[i] && i_amounts[j] >= t_amounts[i] && statements[j] != 0){\r\n                    n = j;\r\n                }\r\n            }\r\n            if(n != pro_idds.length){\r\n                match_result[pro_idds[i]] = match_funder(fun_idds[n],duration[n],interest[n],i_amounts[n]);\r\n                statements[n] = 0;\r\n                Transaction Txn = new Transaction(pro_idds[i],fun_idds[n],address(this));\r\n                Txn_addr[pro_idds[i]] = address(Txn);\r\n                count++;\r\n            }\r\n        }\r\n        counted = count;\r\n    }\r\n    // \r\n    function get_MatchingData(bytes32  id)public view returns( bytes32 ,bytes32,uint256,uint256) {\r\n        match_funder memory mf = match_result[id];\r\n        return(mf.userID,mf.investment_duration,mf.investment_return,mf.investment_amount);\r\n    }\r\n    \r\n    function get_counted()public view returns(uint){\r\n        return counted;\r\n    }\r\n    // \r\n    function get_Txnaddr(bytes32 enterID)public view returns(address){\r\n        return Txn_addr[enterID];\r\n    }\r\n    // function\r\n    function set_txn(address addr)public{\r\n        Transaction txnn= Transaction(addr);\r\n        txnn.Txn();\r\n    }\r\n    // \r\n    function get_TXNFunderWallet(address addr)public view returns(bytes32,uint256,uint256,uint256,uint256){\r\n        Transaction txnn= Transaction(addr);\r\n        bytes32 Fiddd;\r\n        uint256 investment_return; \r\n        uint256 investment_amount; \r\n        uint256 current_amount; \r\n        uint256 interest_receivable; \r\n        (Fiddd,investment_return,investment_amount,current_amount,interest_receivable) = txnn.get_FunderWallet();\r\n        return (Fiddd,investment_return,investment_amount,current_amount,interest_receivable);\r\n    }\r\n    // \r\n    function get_TXNEnterpriserWallet(address addr)public view returns(bytes32,string memory,uint256,uint256,uint256,uint256){\r\n        Transaction txnn= Transaction(addr);\r\n        bytes32 Enter_id;\r\n        string memory project_name;\r\n        uint256 Target_amount;\r\n        uint256 interest_return; \r\n        uint256 current_amount;\r\n        uint256 interest_payable; \r\n        (Enter_id,project_name,Target_amount,interest_return,current_amount,interest_payable) = txnn.get_EnterpriseWallet();\r\n        return (Enter_id,project_name,Target_amount,interest_return,current_amount,interest_payable);\r\n    }\r\n}",
  "sourcePath": "C:\\Users\\Jim\\AngelFund-System\\contracts\\DataManagement.sol",
  "compiler": {
    "name": "solc",
    "version": "0.6.6+commit.6c089d02.Emscripten.clang"
  },
  "schemaVersion": "3.3.3",
  "updatedAt": "2021-02-09T14:18:13.580Z",
  "networkType": "ethereum",
  "devdoc": {
    "methods": {}
  },
  "userdoc": {
    "methods": {}
  }
}