{
  "contractName": "FunderData",
  "abi": [
    {
      "inputs": [
        {
          "internalType": "uint256",
          "name": "",
          "type": "uint256"
        }
      ],
      "name": "Funder_event",
      "outputs": [
        {
          "internalType": "string",
          "name": "userID",
          "type": "string"
        },
        {
          "internalType": "string",
          "name": "investment_duration",
          "type": "string"
        },
        {
          "internalType": "uint256",
          "name": "investment_return",
          "type": "uint256"
        },
        {
          "internalType": "uint256",
          "name": "investment_amount",
          "type": "uint256"
        },
        {
          "internalType": "uint256",
          "name": "statement",
          "type": "uint256"
        }
      ],
      "stateMutability": "view",
      "type": "function"
    },
    {
      "inputs": [
        {
          "internalType": "string",
          "name": "",
          "type": "string"
        },
        {
          "internalType": "string",
          "name": "",
          "type": "string"
        }
      ],
      "name": "funder_f",
      "outputs": [
        {
          "internalType": "string",
          "name": "userID",
          "type": "string"
        },
        {
          "internalType": "string",
          "name": "investment_duration",
          "type": "string"
        },
        {
          "internalType": "uint256",
          "name": "investment_return",
          "type": "uint256"
        },
        {
          "internalType": "uint256",
          "name": "investment_amount",
          "type": "uint256"
        },
        {
          "internalType": "uint256",
          "name": "statement",
          "type": "uint256"
        }
      ],
      "stateMutability": "view",
      "type": "function"
    },
    {
      "inputs": [
        {
          "internalType": "string",
          "name": "id",
          "type": "string"
        },
        {
          "internalType": "string",
          "name": "investment_number",
          "type": "string"
        },
        {
          "internalType": "string",
          "name": "investment_Duration",
          "type": "string"
        },
        {
          "internalType": "uint256",
          "name": "investment_Return",
          "type": "uint256"
        },
        {
          "internalType": "uint256",
          "name": "investment_Amount",
          "type": "uint256"
        }
      ],
      "name": "set_funding",
      "outputs": [],
      "stateMutability": "nonpayable",
      "type": "function"
    },
    {
      "inputs": [
        {
          "internalType": "string",
          "name": "id",
          "type": "string"
        },
        {
          "internalType": "string",
          "name": "investment_number",
          "type": "string"
        }
      ],
      "name": "get_funding",
      "outputs": [
        {
          "internalType": "string",
          "name": "",
          "type": "string"
        },
        {
          "internalType": "string",
          "name": "",
          "type": "string"
        },
        {
          "internalType": "uint256",
          "name": "",
          "type": "uint256"
        },
        {
          "internalType": "uint256",
          "name": "",
          "type": "uint256"
        },
        {
          "internalType": "uint256",
          "name": "",
          "type": "uint256"
        }
      ],
      "stateMutability": "view",
      "type": "function"
    },
    {
      "inputs": [],
      "name": "get_allfundig",
      "outputs": [
        {
          "internalType": "bytes32[]",
          "name": "",
          "type": "bytes32[]"
        },
        {
          "internalType": "bytes32[]",
          "name": "",
          "type": "bytes32[]"
        },
        {
          "internalType": "uint256[]",
          "name": "",
          "type": "uint256[]"
        },
        {
          "internalType": "uint256[]",
          "name": "",
          "type": "uint256[]"
        },
        {
          "internalType": "uint256[]",
          "name": "",
          "type": "uint256[]"
        }
      ],
      "stateMutability": "view",
      "type": "function"
    }
  ],
  "bytecode": "0x608060405234801561001057600080fd5b5061166e806100206000396000f3fe608060405234801561001057600080fd5b50600436106100575760003560e01c80636b4150561461005c578063851b89b7146102a85780639812497b146103d0578063f54548721461061c578063fa645d9914610819575b600080fd5b6101ac6004803603604081101561007257600080fd5b810190808035906020019064010000000081111561008f57600080fd5b8201836020820111156100a157600080fd5b803590602001918460018302840111640100000000831117156100c357600080fd5b91908080601f016020809104026020016040519081016040528093929190818152602001838380828437600081840152601f19601f8201169050808301925050505050505091929192908035906020019064010000000081111561012657600080fd5b82018360208201111561013857600080fd5b8035906020019184600183028401116401000000008311171561015a57600080fd5b91908080601f016020809104026020016040519081016040528093929190818152602001838380828437600081840152601f19601f820116905080830192505050505050509192919290505050610998565b604051808060200180602001868152602001858152602001848152602001838103835288818151815260200191508051906020019080838360005b838110156102025780820151818401526020810190506101e7565b50505050905090810190601f16801561022f5780820380516001836020036101000a031916815260200191505b50838103825287818151815260200191508051906020019080838360005b8381101561026857808201518184015260208101905061024d565b50505050905090810190601f1680156102955780820380516001836020036101000a031916815260200191505b5097505050505050505060405180910390f35b6102d4600480360360208110156102be57600080fd5b8101908080359060200190929190505050610b37565b604051808060200180602001868152602001858152602001848152602001838103835288818151815260200191508051906020019080838360005b8381101561032a57808201518184015260208101905061030f565b50505050905090810190601f1680156103575780820380516001836020036101000a031916815260200191505b50838103825287818151815260200191508051906020019080838360005b83811015610390578082015181840152602081019050610375565b50505050905090810190601f1680156103bd5780820380516001836020036101000a031916815260200191505b5097505050505050505060405180910390f35b610520600480360360408110156103e657600080fd5b810190808035906020019064010000000081111561040357600080fd5b82018360208201111561041557600080fd5b8035906020019184600183028401116401000000008311171561043757600080fd5b91908080601f016020809104026020016040519081016040528093929190818152602001838380828437600081840152601f19601f8201169050808301925050505050505091929192908035906020019064010000000081111561049a57600080fd5b8201836020820111156104ac57600080fd5b803590602001918460018302840111640100000000831117156104ce57600080fd5b91908080601f016020809104026020016040519081016040528093929190818152602001838380828437600081840152601f19601f820116905080830192505050505050509192919290505050610caa565b604051808060200180602001868152602001858152602001848152602001838103835288818151815260200191508051906020019080838360005b8381101561057657808201518184015260208101905061055b565b50505050905090810190601f1680156105a35780820380516001836020036101000a031916815260200191505b50838103825287818151815260200191508051906020019080838360005b838110156105dc5780820151818401526020810190506105c1565b50505050905090810190601f1680156106095780820380516001836020036101000a031916815260200191505b5097505050505050505060405180910390f35b610817600480360360a081101561063257600080fd5b810190808035906020019064010000000081111561064f57600080fd5b82018360208201111561066157600080fd5b8035906020019184600183028401116401000000008311171561068357600080fd5b91908080601f016020809104026020016040519081016040528093929190818152602001838380828437600081840152601f19601f820116905080830192505050505050509192919290803590602001906401000000008111156106e657600080fd5b8201836020820111156106f857600080fd5b8035906020019184600183028401116401000000008311171561071a57600080fd5b91908080601f016020809104026020016040519081016040528093929190818152602001838380828437600081840152601f19601f8201169050808301925050505050505091929192908035906020019064010000000081111561077d57600080fd5b82018360208201111561078f57600080fd5b803590602001918460018302840111640100000000831117156107b157600080fd5b91908080601f016020809104026020016040519081016040528093929190818152602001838380828437600081840152601f19601f8201169050808301925050505050505091929192908035906020019092919080359060200190929190505050610f27565b005b61082161112e565b60405180806020018060200180602001806020018060200186810386528b818151815260200191508051906020019060200280838360005b83811015610874578082015181840152602081019050610859565b5050505090500186810385528a818151815260200191508051906020019060200280838360005b838110156108b657808201518184015260208101905061089b565b50505050905001868103845289818151815260200191508051906020019060200280838360005b838110156108f85780820151818401526020810190506108dd565b50505050905001868103835288818151815260200191508051906020019060200280838360005b8381101561093a57808201518184015260208101905061091f565b50505050905001868103825287818151815260200191508051906020019060200280838360005b8381101561097c578082015181840152602081019050610961565b505050509050019a505050505050505050505060405180910390f35b6000828051602081018201805184825260208301602085012081835280955050505050508180516020810182018051848252602083016020850120818352809550505050505060009150915050806000018054600181600116156101000203166002900480601f016020809104026020016040519081016040528092919081815260200182805460018160011615610100020316600290048015610a7d5780601f10610a5257610100808354040283529160200191610a7d565b820191906000526020600020905b815481529060010190602001808311610a6057829003601f168201915b505050505090806001018054600181600116156101000203166002900480601f016020809104026020016040519081016040528092919081815260200182805460018160011615610100020316600290048015610b1b5780601f10610af057610100808354040283529160200191610b1b565b820191906000526020600020905b815481529060010190602001808311610afe57829003601f168201915b5050505050908060020154908060030154908060040154905085565b60018181548110610b4457fe5b9060005260206000209060050201600091509050806000018054600181600116156101000203166002900480601f016020809104026020016040519081016040528092919081815260200182805460018160011615610100020316600290048015610bf05780601f10610bc557610100808354040283529160200191610bf0565b820191906000526020600020905b815481529060010190602001808311610bd357829003601f168201915b505050505090806001018054600181600116156101000203166002900480601f016020809104026020016040519081016040528092919081815260200182805460018160011615610100020316600290048015610c8e5780601f10610c6357610100808354040283529160200191610c8e565b820191906000526020600020905b815481529060010190602001808311610c7157829003601f168201915b5050505050908060020154908060030154908060040154905085565b6060806000806000610cba611564565b6000886040518082805190602001908083835b60208310610cf05780518252602082019150602081019050602083039250610ccd565b6001836020036101000a0380198251168184511680821785525050505050509050019150509081526020016040518091039020876040518082805190602001908083835b60208310610d575780518252602082019150602081019050602083039250610d34565b6001836020036101000a03801982511681845116808217855250505050505090500191505090815260200160405180910390206040518060a0016040529081600082018054600181600116156101000203166002900480601f016020809104026020016040519081016040528092919081815260200182805460018160011615610100020316600290048015610e2e5780601f10610e0357610100808354040283529160200191610e2e565b820191906000526020600020905b815481529060010190602001808311610e1157829003601f168201915b50505050508152602001600182018054600181600116156101000203166002900480601f016020809104026020016040519081016040528092919081815260200182805460018160011615610100020316600290048015610ed05780601f10610ea557610100808354040283529160200191610ed0565b820191906000526020600020905b815481529060010190602001808311610eb357829003601f168201915b50505050508152602001600282015481526020016003820154815260200160048201548152505090508060000151816020015182604001518360600151846080015195509550955095509550509295509295909350565b6040518060a0016040528086815260200184815260200183815260200182815260200160018152506000866040518082805190602001908083835b60208310610f855780518252602082019150602081019050602083039250610f62565b6001836020036101000a0380198251168184511680821785525050505050509050019150509081526020016040518091039020856040518082805190602001908083835b60208310610fec5780518252602082019150602081019050602083039250610fc9565b6001836020036101000a0380198251168184511680821785525050505050509050019150509081526020016040518091039020600082015181600001908051906020019061103b929190611593565b506020820151816001019080519060200190611058929190611593565b5060408201518160020155606082015181600301556080820151816004015590505060016040518060a001604052808781526020018581526020018481526020018381526020016001815250908060018154018082558091505060019003906000526020600020906005020160009091909190915060008201518160000190805190602001906110e9929190611593565b506020820151816001019080519060200190611106929190611593565b5060408201518160020155606082015181600301556080820151816004015550505050505050565b60608060608060608060018054905067ffffffffffffffff8111801561115357600080fd5b506040519080825280602002602001820160405280156111825781602001602082028036833780820191505090505b509050606060018054905067ffffffffffffffff811180156111a357600080fd5b506040519080825280602002602001820160405280156111d25781602001602082028036833780820191505090505b509050606060018054905067ffffffffffffffff811180156111f357600080fd5b506040519080825280602002602001820160405280156112225781602001602082028036833780820191505090505b509050606060018054905067ffffffffffffffff8111801561124357600080fd5b506040519080825280602002602001820160405280156112725781602001602082028036833780820191505090505b509050606060018054905067ffffffffffffffff8111801561129357600080fd5b506040519080825280602002602001820160405280156112c25781602001602082028036833780820191505090505b50905060008090505b6001805490508110156115485760006060600183815481106112e957fe5b90600052602060002090600502016001018054600181600116156101000203166002900480601f01602080910402602001604051908101604052809291908181526020018280546001816001161561010002031660029004801561138e5780601f106113635761010080835404028352916020019161138e565b820191906000526020600020905b81548152906001019060200180831161137157829003601f168201915b505050505090506020810151915060006060600185815481106113ad57fe5b90600052602060002090600502016000018054600181600116156101000203166002900480601f0160208091040260200160405190810160405280929190818152602001828054600181600116156101000203166002900480156114525780601f1061142757610100808354040283529160200191611452565b820191906000526020600020905b81548152906001019060200180831161143557829003601f168201915b5050505050905060208101519150818a868151811061146d57fe5b6020026020010181815250508389868151811061148657fe5b6020026020010181815250506001858154811061149f57fe5b9060005260206000209060050201600201548886815181106114bd57fe5b602002602001018181525050600185815481106114d657fe5b9060005260206000209060050201600301548786815181106114f457fe5b6020026020010181815250506001858154811061150d57fe5b90600052602060002090600502016004015486868151811061152b57fe5b6020026020010181815250505050505080806001019150506112cb565b5084848484849950995099509950995050505050509091929394565b6040518060a0016040528060608152602001606081526020016000815260200160008152602001600081525090565b828054600181600116156101000203166002900490600052602060002090601f016020900481019282601f106115d457805160ff1916838001178555611602565b82800160010185558215611602579182015b828111156116015782518255916020019190600101906115e6565b5b50905061160f9190611613565b5090565b61163591905b80821115611631576000816000905550600101611619565b5090565b9056fea2646970667358221220b5c99eb173f8e5a6e3794831f3834ed39c2125967a4718e4ae5044aac8a53c5464736f6c63430006060033",
  "immutableReferences": {},
  "source": "// SPDX-License-Identifier: MIT\r\npragma solidity >=0.5.22 <0.9.0;\r\nimport \"./user.sol\";\r\n\r\ncontract FunderData{\r\n    mapping(string=>mapping(string=>Funder_Data))public  funder_f;\r\n    Funder_Data[] public Funder_event;\r\n    struct Funder_Data{\r\n        string userID;\r\n        string investment_duration;\r\n        uint256 investment_return;\r\n        uint256 investment_amount;\r\n        uint256 statement;\r\n    }\r\n    \r\n    function set_funding(string memory id,string memory investment_number,string memory investment_Duration,uint256 investment_Return,uint256 investment_Amount)public{\r\n        funder_f[id][investment_number]=Funder_Data(id,investment_Duration,investment_Return,investment_Amount,1);\r\n        Funder_event.push(Funder_Data(id,investment_Duration,investment_Return,investment_Amount,1));\r\n        \r\n    }\r\n    \r\n    function get_funding(string memory id ,string memory investment_number)public view returns(string memory,string memory,uint256,uint256,uint256){\r\n       Funder_Data memory fd = funder_f[id][investment_number];\r\n        return(fd.userID,fd.investment_duration,fd.investment_return,fd.investment_amount,fd.statement);\r\n    }\r\n    \r\n    function get_allfundig()public view returns(bytes32[] memory,bytes32[] memory,uint256[] memory,uint256[] memory,uint256[] memory){\r\n        bytes32[] memory ids= new  bytes32[](Funder_event.length); \r\n        bytes32[] memory duration= new  bytes32[](Funder_event.length);\r\n        uint256[] memory i_returns = new  uint256[](Funder_event.length);\r\n        uint256[] memory i_amounts = new  uint256[](Funder_event.length);\r\n        uint256[] memory statements = new  uint256[](Funder_event.length);\r\n        \r\n         for(uint256 i=0 ; i<Funder_event.length ; i++){\r\n            bytes32 pa;\r\n            string memory n=Funder_event[i].investment_duration;\r\n            assembly {\r\n                pa := mload(add(n, 32)) //String轉bytes32\r\n            }\r\n            \r\n            bytes32 idd;\r\n            string memory d=Funder_event[i].userID;\r\n            assembly {\r\n                idd := mload(add(d, 32)) //String轉bytes32\r\n            }\r\n            ids[i] = idd;\r\n            duration[i] = pa;\r\n            i_returns[i] = Funder_event[i].investment_return;\r\n            i_amounts[i] = Funder_event[i].investment_amount;\r\n            statements[i] = Funder_event[i].statement;\r\n         }\r\n        \r\n        return(ids,duration,i_returns,i_amounts,statements);\r\n        \r\n    }\r\n    // function getdata_count()public view returns(uint256){\r\n    //     uint256 count = Funder_event.length;\r\n    //     return count;\r\n    // }\r\n}",
  "sourcePath": "C:\\Users\\Jim\\AngelFund-System\\contracts\\FunderData.sol",
  "compiler": {
    "name": "solc",
    "version": "0.6.6+commit.6c089d02.Emscripten.clang"
  },
  "schemaVersion": "3.3.3",
  "updatedAt": "2021-08-01T13:22:30.055Z",
  "devdoc": {
    "methods": {}
  },
  "userdoc": {
    "methods": {}
  }
}