{
  "contractName": "ProjectData",
  "abi": [
    {
      "inputs": [
        {
          "internalType": "string",
          "name": "",
          "type": "string"
        },
        {
          "internalType": "string",
          "name": "",
          "type": "string"
        }
      ],
      "name": "Investment_Project",
      "outputs": [
        {
          "internalType": "string",
          "name": "userID",
          "type": "string"
        },
        {
          "internalType": "string",
          "name": "project_name",
          "type": "string"
        },
        {
          "internalType": "string",
          "name": "project_indtroduce",
          "type": "string"
        },
        {
          "internalType": "string",
          "name": "project_endday",
          "type": "string"
        },
        {
          "internalType": "uint256",
          "name": "Target_amount",
          "type": "uint256"
        },
        {
          "internalType": "uint256",
          "name": "interest_return",
          "type": "uint256"
        }
      ],
      "stateMutability": "view",
      "type": "function"
    },
    {
      "inputs": [
        {
          "internalType": "uint256",
          "name": "",
          "type": "uint256"
        }
      ],
      "name": "Investment_event",
      "outputs": [
        {
          "internalType": "string",
          "name": "userID",
          "type": "string"
        },
        {
          "internalType": "string",
          "name": "project_name",
          "type": "string"
        },
        {
          "internalType": "string",
          "name": "project_indtroduce",
          "type": "string"
        },
        {
          "internalType": "string",
          "name": "project_endday",
          "type": "string"
        },
        {
          "internalType": "uint256",
          "name": "Target_amount",
          "type": "uint256"
        },
        {
          "internalType": "uint256",
          "name": "interest_return",
          "type": "uint256"
        }
      ],
      "stateMutability": "view",
      "type": "function"
    },
    {
      "inputs": [
        {
          "internalType": "string",
          "name": "id",
          "type": "string"
        },
        {
          "internalType": "string",
          "name": "eventnumber",
          "type": "string"
        },
        {
          "internalType": "string",
          "name": "project_Name",
          "type": "string"
        },
        {
          "internalType": "string",
          "name": "project_Indtroduce",
          "type": "string"
        },
        {
          "internalType": "string",
          "name": "project_Endday",
          "type": "string"
        },
        {
          "internalType": "uint256",
          "name": "Target_Amount",
          "type": "uint256"
        },
        {
          "internalType": "uint256",
          "name": "interest_Return",
          "type": "uint256"
        }
      ],
      "name": "set_project",
      "outputs": [],
      "stateMutability": "nonpayable",
      "type": "function"
    },
    {
      "inputs": [
        {
          "internalType": "string",
          "name": "id",
          "type": "string"
        },
        {
          "internalType": "string",
          "name": "eventnumber",
          "type": "string"
        }
      ],
      "name": "get_Userproject",
      "outputs": [
        {
          "internalType": "string",
          "name": "",
          "type": "string"
        },
        {
          "internalType": "string",
          "name": "",
          "type": "string"
        },
        {
          "internalType": "string",
          "name": "",
          "type": "string"
        },
        {
          "internalType": "uint256",
          "name": "",
          "type": "uint256"
        },
        {
          "internalType": "uint256",
          "name": "",
          "type": "uint256"
        }
      ],
      "stateMutability": "view",
      "type": "function"
    },
    {
      "inputs": [],
      "name": "get_allproject",
      "outputs": [
        {
          "internalType": "bytes32[]",
          "name": "",
          "type": "bytes32[]"
        },
        {
          "internalType": "bytes32[]",
          "name": "",
          "type": "bytes32[]"
        },
        {
          "internalType": "bytes32[]",
          "name": "",
          "type": "bytes32[]"
        },
        {
          "internalType": "bytes32[]",
          "name": "",
          "type": "bytes32[]"
        },
        {
          "internalType": "uint256[]",
          "name": "",
          "type": "uint256[]"
        },
        {
          "internalType": "uint256[]",
          "name": "",
          "type": "uint256[]"
        }
      ],
      "stateMutability": "view",
      "type": "function"
    }
  ],
  "bytecode": "0x608060405234801561001057600080fd5b50611fe0806100206000396000f3fe608060405234801561001057600080fd5b50600436106100575760003560e01c806302a0f10e1461005c578063113b4bc61461037957806326ca9e351461054057806364634c8a146107f1578063ab976f99146109ea575b600080fd5b6101ac6004803603604081101561007257600080fd5b810190808035906020019064010000000081111561008f57600080fd5b8201836020820111156100a157600080fd5b803590602001918460018302840111640100000000831117156100c357600080fd5b91908080601f016020809104026020016040519081016040528093929190818152602001838380828437600081840152601f19601f8201169050808301925050505050505091929192908035906020019064010000000081111561012657600080fd5b82018360208201111561013857600080fd5b8035906020019184600183028401116401000000008311171561015a57600080fd5b91908080601f016020809104026020016040519081016040528093929190818152602001838380828437600081840152601f19601f820116905080830192505050505050509192919290505050610d15565b604051808060200180602001806020018060200187815260200186815260200185810385528b818151815260200191508051906020019080838360005b838110156102045780820151818401526020810190506101e9565b50505050905090810190601f1680156102315780820380516001836020036101000a031916815260200191505b5085810384528a818151815260200191508051906020019080838360005b8381101561026a57808201518184015260208101905061024f565b50505050905090810190601f1680156102975780820380516001836020036101000a031916815260200191505b50858103835289818151815260200191508051906020019080838360005b838110156102d05780820151818401526020810190506102b5565b50505050905090810190601f1680156102fd5780820380516001836020036101000a031916815260200191505b50858103825288818151815260200191508051906020019080838360005b8381101561033657808201518184015260208101905061031b565b50505050905090810190601f1680156103635780820380516001836020036101000a031916815260200191505b509a505050505050505050505060405180910390f35b610381610fea565b6040518080602001806020018060200180602001806020018060200187810387528d818151815260200191508051906020019060200280838360005b838110156103d85780820151818401526020810190506103bd565b5050505090500187810386528c818151815260200191508051906020019060200280838360005b8381101561041a5780820151818401526020810190506103ff565b5050505090500187810385528b818151815260200191508051906020019060200280838360005b8381101561045c578082015181840152602081019050610441565b5050505090500187810384528a818151815260200191508051906020019060200280838360005b8381101561049e578082015181840152602081019050610483565b50505050905001878103835289818151815260200191508051906020019060200280838360005b838110156104e05780820151818401526020810190506104c5565b50505050905001878103825288818151815260200191508051906020019060200280838360005b83811015610522578082015181840152602081019050610507565b505050509050019c5050505050505050505050505060405180910390f35b6106906004803603604081101561055657600080fd5b810190808035906020019064010000000081111561057357600080fd5b82018360208201111561058557600080fd5b803590602001918460018302840111640100000000831117156105a757600080fd5b91908080601f016020809104026020016040519081016040528093929190818152602001838380828437600081840152601f19601f8201169050808301925050505050505091929192908035906020019064010000000081111561060a57600080fd5b82018360208201111561061c57600080fd5b8035906020019184600183028401116401000000008311171561063e57600080fd5b91908080601f016020809104026020016040519081016040528093929190818152602001838380828437600081840152601f19601f8201169050808301925050505050505091929192905050506115fc565b60405180806020018060200180602001868152602001858152602001848103845289818151815260200191508051906020019080838360005b838110156106e45780820151818401526020810190506106c9565b50505050905090810190601f1680156107115780820380516001836020036101000a031916815260200191505b50848103835288818151815260200191508051906020019080838360005b8381101561074a57808201518184015260208101905061072f565b50505050905090810190601f1680156107775780820380516001836020036101000a031916815260200191505b50848103825287818151815260200191508051906020019080838360005b838110156107b0578082015181840152602081019050610795565b50505050905090810190601f1680156107dd5780820380516001836020036101000a031916815260200191505b509850505050505050505060405180910390f35b61081d6004803603602081101561080757600080fd5b81019080803590602001909291905050506119b3565b604051808060200180602001806020018060200187815260200186815260200185810385528b818151815260200191508051906020019080838360005b8381101561087557808201518184015260208101905061085a565b50505050905090810190601f1680156108a25780820380516001836020036101000a031916815260200191505b5085810384528a818151815260200191508051906020019080838360005b838110156108db5780820151818401526020810190506108c0565b50505050905090810190601f1680156109085780820380516001836020036101000a031916815260200191505b50858103835289818151815260200191508051906020019080838360005b83811015610941578082015181840152602081019050610926565b50505050905090810190601f16801561096e5780820380516001836020036101000a031916815260200191505b50858103825288818151815260200191508051906020019080838360005b838110156109a757808201518184015260208101905061098c565b50505050905090810190601f1680156109d45780820380516001836020036101000a031916815260200191505b509a505050505050505050505060405180910390f35b610d13600480360360e0811015610a0057600080fd5b8101908080359060200190640100000000811115610a1d57600080fd5b820183602082011115610a2f57600080fd5b80359060200191846001830284011164010000000083111715610a5157600080fd5b91908080601f016020809104026020016040519081016040528093929190818152602001838380828437600081840152601f19601f82011690508083019250505050505050919291929080359060200190640100000000811115610ab457600080fd5b820183602082011115610ac657600080fd5b80359060200191846001830284011164010000000083111715610ae857600080fd5b91908080601f016020809104026020016040519081016040528093929190818152602001838380828437600081840152601f19601f82011690508083019250505050505050919291929080359060200190640100000000811115610b4b57600080fd5b820183602082011115610b5d57600080fd5b80359060200191846001830284011164010000000083111715610b7f57600080fd5b91908080601f016020809104026020016040519081016040528093929190818152602001838380828437600081840152601f19601f82011690508083019250505050505050919291929080359060200190640100000000811115610be257600080fd5b820183602082011115610bf457600080fd5b80359060200191846001830284011164010000000083111715610c1657600080fd5b91908080601f016020809104026020016040519081016040528093929190818152602001838380828437600081840152601f19601f82011690508083019250505050505050919291929080359060200190640100000000811115610c7957600080fd5b820183602082011115610c8b57600080fd5b80359060200191846001830284011164010000000083111715610cad57600080fd5b91908080601f016020809104026020016040519081016040528093929190818152602001838380828437600081840152601f19601f8201169050808301925050505050505091929192908035906020019092919080359060200190929190505050611c5c565b005b6001828051602081018201805184825260208301602085012081835280955050505050508180516020810182018051848252602083016020850120818352809550505050505060009150915050806000018054600181600116156101000203166002900480601f016020809104026020016040519081016040528092919081815260200182805460018160011615610100020316600290048015610dfa5780601f10610dcf57610100808354040283529160200191610dfa565b820191906000526020600020905b815481529060010190602001808311610ddd57829003601f168201915b505050505090806001018054600181600116156101000203166002900480601f016020809104026020016040519081016040528092919081815260200182805460018160011615610100020316600290048015610e985780601f10610e6d57610100808354040283529160200191610e98565b820191906000526020600020905b815481529060010190602001808311610e7b57829003601f168201915b505050505090806002018054600181600116156101000203166002900480601f016020809104026020016040519081016040528092919081815260200182805460018160011615610100020316600290048015610f365780601f10610f0b57610100808354040283529160200191610f36565b820191906000526020600020905b815481529060010190602001808311610f1957829003601f168201915b505050505090806003018054600181600116156101000203166002900480601f016020809104026020016040519081016040528092919081815260200182805460018160011615610100020316600290048015610fd45780601f10610fa957610100808354040283529160200191610fd4565b820191906000526020600020905b815481529060010190602001808311610fb757829003601f168201915b5050505050908060040154908060050154905086565b606080606080606080606060008054905067ffffffffffffffff8111801561101157600080fd5b506040519080825280602002602001820160405280156110405781602001602082028036833780820191505090505b509050606060008054905067ffffffffffffffff8111801561106157600080fd5b506040519080825280602002602001820160405280156110905781602001602082028036833780820191505090505b509050606060008054905067ffffffffffffffff811180156110b157600080fd5b506040519080825280602002602001820160405280156110e05781602001602082028036833780820191505090505b509050606060008054905067ffffffffffffffff8111801561110157600080fd5b506040519080825280602002602001820160405280156111305781602001602082028036833780820191505090505b509050606060008054905067ffffffffffffffff8111801561115157600080fd5b506040519080825280602002602001820160405280156111805781602001602082028036833780820191505090505b509050606060008054905067ffffffffffffffff811180156111a157600080fd5b506040519080825280602002602001820160405280156111d05781602001602082028036833780820191505090505b50905060008090505b6000805490508110156115db576000806000806060600086815481106111fb57fe5b90600052602060002090600602016001018054600181600116156101000203166002900480601f0160208091040260200160405190810160405280929190818152602001828054600181600116156101000203166002900480156112a05780601f10611275576101008083540402835291602001916112a0565b820191906000526020600020905b81548152906001019060200180831161128357829003601f168201915b50505050509050602081015194506060600087815481106112bd57fe5b90600052602060002090600602016002018054600181600116156101000203166002900480601f0160208091040260200160405190810160405280929190818152602001828054600181600116156101000203166002900480156113625780601f1061133757610100808354040283529160200191611362565b820191906000526020600020905b81548152906001019060200180831161134557829003601f168201915b505050505090506020810151945060606000888154811061137f57fe5b90600052602060002090600602016003018054600181600116156101000203166002900480601f0160208091040260200160405190810160405280929190818152602001828054600181600116156101000203166002900480156114245780601f106113f957610100808354040283529160200191611424565b820191906000526020600020905b81548152906001019060200180831161140757829003601f168201915b505050505090506020810151945060606000898154811061144157fe5b90600052602060002090600602016000018054600181600116156101000203166002900480601f0160208091040260200160405190810160405280929190818152602001828054600181600116156101000203166002900480156114e65780601f106114bb576101008083540402835291602001916114e6565b820191906000526020600020905b8154815290600101906020018083116114c957829003601f168201915b5050505050905060208101519450848f8a8151811061150157fe5b602002602001018181525050878e8a8151811061151a57fe5b602002602001018181525050868d8a8151811061153357fe5b602002602001018181525050858c8a8151811061154c57fe5b6020026020010181815250506000898154811061156557fe5b9060005260206000209060060201600401548b8a8151811061158357fe5b6020026020010181815250506000898154811061159c57fe5b9060005260206000209060060201600501548a8a815181106115ba57fe5b602002602001018181525050505050505050505080806001019150506111d9565b508585858585859b509b509b509b509b509b50505050505050909192939495565b606080606060008061160c611ecf565b6001886040518082805190602001908083835b60208310611642578051825260208201915060208101905060208303925061161f565b6001836020036101000a0380198251168184511680821785525050505050509050019150509081526020016040518091039020876040518082805190602001908083835b602083106116a95780518252602082019150602081019050602083039250611686565b6001836020036101000a03801982511681845116808217855250505050505090500191505090815260200160405180910390206040518060c0016040529081600082018054600181600116156101000203166002900480601f0160208091040260200160405190810160405280929190818152602001828054600181600116156101000203166002900480156117805780601f1061175557610100808354040283529160200191611780565b820191906000526020600020905b81548152906001019060200180831161176357829003601f168201915b50505050508152602001600182018054600181600116156101000203166002900480601f0160208091040260200160405190810160405280929190818152602001828054600181600116156101000203166002900480156118225780601f106117f757610100808354040283529160200191611822565b820191906000526020600020905b81548152906001019060200180831161180557829003601f168201915b50505050508152602001600282018054600181600116156101000203166002900480601f0160208091040260200160405190810160405280929190818152602001828054600181600116156101000203166002900480156118c45780601f10611899576101008083540402835291602001916118c4565b820191906000526020600020905b8154815290600101906020018083116118a757829003601f168201915b50505050508152602001600382018054600181600116156101000203166002900480601f0160208091040260200160405190810160405280929190818152602001828054600181600116156101000203166002900480156119665780601f1061193b57610100808354040283529160200191611966565b820191906000526020600020905b81548152906001019060200180831161194957829003601f168201915b5050505050815260200160048201548152602001600582015481525050905080602001518160400151826060015183608001518460a0015195509550955095509550509295509295909350565b600081815481106119c057fe5b9060005260206000209060060201600091509050806000018054600181600116156101000203166002900480601f016020809104026020016040519081016040528092919081815260200182805460018160011615610100020316600290048015611a6c5780601f10611a4157610100808354040283529160200191611a6c565b820191906000526020600020905b815481529060010190602001808311611a4f57829003601f168201915b505050505090806001018054600181600116156101000203166002900480601f016020809104026020016040519081016040528092919081815260200182805460018160011615610100020316600290048015611b0a5780601f10611adf57610100808354040283529160200191611b0a565b820191906000526020600020905b815481529060010190602001808311611aed57829003601f168201915b505050505090806002018054600181600116156101000203166002900480601f016020809104026020016040519081016040528092919081815260200182805460018160011615610100020316600290048015611ba85780601f10611b7d57610100808354040283529160200191611ba8565b820191906000526020600020905b815481529060010190602001808311611b8b57829003601f168201915b505050505090806003018054600181600116156101000203166002900480601f016020809104026020016040519081016040528092919081815260200182805460018160011615610100020316600290048015611c465780601f10611c1b57610100808354040283529160200191611c46565b820191906000526020600020905b815481529060010190602001808311611c2957829003601f168201915b5050505050908060040154908060050154905086565b6040518060c00160405280888152602001868152602001858152602001848152602001838152602001828152506001886040518082805190602001908083835b60208310611cbf5780518252602082019150602081019050602083039250611c9c565b6001836020036101000a0380198251168184511680821785525050505050509050019150509081526020016040518091039020876040518082805190602001908083835b60208310611d265780518252602082019150602081019050602083039250611d03565b6001836020036101000a03801982511681845116808217855250505050505090500191505090815260200160405180910390206000820151816000019080519060200190611d75929190611f05565b506020820151816001019080519060200190611d92929190611f05565b506040820151816002019080519060200190611daf929190611f05565b506060820151816003019080519060200190611dcc929190611f05565b506080820151816004015560a0820151816005015590505060006040518060c001604052808981526020018781526020018681526020018581526020018481526020018381525090806001815401808255809150506001900390600052602060002090600602016000909190919091506000820151816000019080519060200190611e58929190611f05565b506020820151816001019080519060200190611e75929190611f05565b506040820151816002019080519060200190611e92929190611f05565b506060820151816003019080519060200190611eaf929190611f05565b506080820151816004015560a08201518160050155505050505050505050565b6040518060c001604052806060815260200160608152602001606081526020016060815260200160008152602001600081525090565b828054600181600116156101000203166002900490600052602060002090601f016020900481019282601f10611f4657805160ff1916838001178555611f74565b82800160010185558215611f74579182015b82811115611f73578251825591602001919060010190611f58565b5b509050611f819190611f85565b5090565b611fa791905b80821115611fa3576000816000905550600101611f8b565b5090565b9056fea26469706673582212209634f941b794b9a4e9288bcbc011d60f770da5b40e6cebfea9c3ce4fc74d77e064736f6c63430006060033",
  "immutableReferences": {},
  "source": "// SPDX-License-Identifier: MIT\r\npragma solidity >=0.5.22 <0.9.0;\r\nimport \"./user.sol\";\r\n\r\ncontract ProjectData{\r\n    Project_Data [] public Investment_event;\r\n    mapping(string=>mapping(string=>Project_Data))public Investment_Project;\r\n    \r\n    struct Project_Data{\r\n        string userID;\r\n        string project_name;\r\n        string project_indtroduce;\r\n        string project_endday;\r\n        uint256 Target_amount;\r\n        uint256 interest_return;\r\n    }\r\n    \r\n    function set_project(string memory id,string memory eventnumber,string memory project_Name,string memory project_Indtroduce,string memory project_Endday\r\n    ,uint256 Target_Amount,uint256 interest_Return)public{\r\n        Investment_Project[id][eventnumber] = Project_Data(id,project_Name , project_Indtroduce , project_Endday , Target_Amount , interest_Return);\r\n        Investment_event.push(Project_Data(id,project_Name , project_Indtroduce , project_Endday , Target_Amount , interest_Return)) ;\r\n    }\r\n    \r\n    function get_Userproject(string memory id,string memory eventnumber)public view returns(string memory,string memory,string memory,uint256,uint256){\r\n        Project_Data memory pd = Investment_Project[id][eventnumber];\r\n        return(pd.project_name,pd.project_indtroduce,pd.project_endday,pd.Target_amount,pd.interest_return);\r\n    }\r\n    \r\n    function get_allproject() public view returns(bytes32[] memory,bytes32[] memory,bytes32[] memory,bytes32[] memory,uint256[] memory,uint256[] memory){\r\n        bytes32[] memory idds = new  bytes32[](Investment_event.length);\r\n        bytes32[] memory names = new  bytes32[](Investment_event.length);\r\n        bytes32[] memory introdecues = new  bytes32[](Investment_event.length);\r\n        bytes32[] memory enddays = new  bytes32[](Investment_event.length);\r\n        uint256[] memory t_amounts = new  uint256[](Investment_event.length);\r\n        uint256[] memory i_returns = new  uint256[](Investment_event.length);\r\n\r\n        for(uint256 i=0 ; i<Investment_event.length ; i++){\r\n            bytes32 na;\r\n            bytes32 intro;\r\n            bytes32 day;\r\n            bytes32 idd;\r\n            string memory n=Investment_event[i].project_name;\r\n            assembly {\r\n                na := mload(add(n, 32)) //Stringbytes32\r\n            }\r\n            \r\n            string memory I=Investment_event[i].project_indtroduce;\r\n            assembly {\r\n                intro := mload(add(I, 32)) //Stringbytes32\r\n            }\r\n            string memory d=Investment_event[i].project_endday;\r\n            assembly {\r\n                day := mload(add(d, 32)) //Stringbytes32\r\n            }\r\n            string memory l=Investment_event[i].userID;\r\n            assembly {\r\n                idd := mload(add(l, 32)) //Stringbytes32\r\n            }\r\n            idds[i] = idd;\r\n            names[i] = na;\r\n            introdecues[i] = intro;\r\n            enddays[i] = day;\r\n            t_amounts[i] = Investment_event[i].Target_amount;\r\n            i_returns[i] = Investment_event[i].interest_return;\r\n        }\r\n        \r\n        return (idds,names,introdecues,enddays,t_amounts,i_returns);\r\n    }\r\n    \r\n    // function getpro_count()public view returns(uint256){\r\n    //     uint256 count = Investment_event.length;\r\n    //     return count;\r\n    // }\r\n}",
  "sourcePath": "C:\\Users\\Jim\\AngelFund-System\\contracts\\ProjectData.sol",
  "compiler": {
    "name": "solc",
    "version": "0.6.6+commit.6c089d02.Emscripten.clang"
  },
  "schemaVersion": "3.3.3",
  "updatedAt": "2021-02-19T06:23:12.882Z",
  "devdoc": {
    "methods": {}
  },
  "userdoc": {
    "methods": {}
  }
}