{
  "contractName": "Transaction",
  "abi": [
    {
      "inputs": [
        {
          "internalType": "bytes32",
          "name": "enter_id",
          "type": "bytes32"
        },
        {
          "internalType": "bytes32",
          "name": "funder_id",
          "type": "bytes32"
        },
        {
          "internalType": "address",
          "name": "addr",
          "type": "address"
        }
      ],
      "stateMutability": "nonpayable",
      "type": "constructor"
    },
    {
      "inputs": [],
      "name": "Txn",
      "outputs": [],
      "stateMutability": "nonpayable",
      "type": "function"
    },
    {
      "inputs": [],
      "name": "get_unterID",
      "outputs": [
        {
          "internalType": "bytes32",
          "name": "",
          "type": "bytes32"
        }
      ],
      "stateMutability": "view",
      "type": "function"
    },
    {
      "inputs": [],
      "name": "get_FunderWallet",
      "outputs": [
        {
          "internalType": "bytes32",
          "name": "",
          "type": "bytes32"
        },
        {
          "internalType": "uint256",
          "name": "",
          "type": "uint256"
        },
        {
          "internalType": "uint256",
          "name": "",
          "type": "uint256"
        },
        {
          "internalType": "uint256",
          "name": "",
          "type": "uint256"
        },
        {
          "internalType": "uint256",
          "name": "",
          "type": "uint256"
        }
      ],
      "stateMutability": "view",
      "type": "function"
    },
    {
      "inputs": [],
      "name": "get_EnterpriseWallet",
      "outputs": [
        {
          "internalType": "bytes32",
          "name": "",
          "type": "bytes32"
        },
        {
          "internalType": "string",
          "name": "",
          "type": "string"
        },
        {
          "internalType": "uint256",
          "name": "",
          "type": "uint256"
        },
        {
          "internalType": "uint256",
          "name": "",
          "type": "uint256"
        },
        {
          "internalType": "uint256",
          "name": "",
          "type": "uint256"
        },
        {
          "internalType": "uint256",
          "name": "",
          "type": "uint256"
        }
      ],
      "stateMutability": "view",
      "type": "function"
    }
  ],
  "bytecode": "0x608060405234801561001057600080fd5b50604051610bae380380610bae8339818101604052606081101561003357600080fd5b81019080805190602001909291908051906020019092919080519060200190929190505050826000819055508160018190555080600260006101000a81548173ffffffffffffffffffffffffffffffffffffffff021916908373ffffffffffffffffffffffffffffffffffffffff160217905550600260009054906101000a900473ffffffffffffffffffffffffffffffffffffffff16600960006101000a81548173ffffffffffffffffffffffffffffffffffffffff021916908373ffffffffffffffffffffffffffffffffffffffff160217905550505050610a928061011c6000396000f3fe608060405234801561001057600080fd5b506004361061004c5760003560e01c806357cb61d21461005157806371f604571461008b578063a1a646d5146100a9578063ffc2afd11461014f575b600080fd5b610059610159565b604051808681526020018581526020018481526020018381526020018281526020019550505050505060405180910390f35b610093610190565b6040518082815260200191505060405180910390f35b6100b1610199565b6040518087815260200180602001868152602001858152602001848152602001838152602001828103825287818151815260200191508051906020019080838360005b8381101561010f5780820151818401526020810190506100f4565b50505050905090810190601f16801561013c5780820380516001836020036101000a031916815260200191505b5097505050505050505060405180910390f35b610157610275565b005b6000806000806000600a60000154600a60010154600a60020154600a60030154600a60040154945094509450945094509091929394565b60008054905090565b6000606060008060008060036000015460036001016003600201546003800154600360040154600360050154848054600181600116156101000203166002900480601f01602080910402602001604051908101604052809291908181526020018280546001816001161561010002031660029004801561025a5780601f1061022f5761010080835404028352916020019161025a565b820191906000526020600020905b81548152906001019060200180831161023d57829003601f168201915b50505050509450955095509550955095509550909192939495565b6000806000600960009054906101000a900473ffffffffffffffffffffffffffffffffffffffff1673ffffffffffffffffffffffffffffffffffffffff1663697bd4a46000546040518263ffffffff1660e01b81526004018082815260200191505060606040518083038186803b1580156102ef57600080fd5b505afa158015610303573d6000803e3d6000fd5b505050506040513d606081101561031957600080fd5b810190808051906020019092919080519060200190929190805190602001909291905050508093508194508295505050506040518060a00160405280848152602001838152602001828152602001600081526020016000815250600a6000820151816000015560208201518160010155604082015181600201556060820151816003015560808201518160040155905050606060008090505b60208160ff161080156103ff5750600060f81b6000548260ff16602081106103d657fe5b1a60f81b7effffffffffffffffffffffffffffffffffffffffffffffffffffffffffffff191614155b156104115780806001019150506103b2565b60608160ff1667ffffffffffffffff8111801561042d57600080fd5b506040519080825280601f01601f1916602001820160405280156104605781602001600182028036833780820191505090505b509050600091505b60208260ff161080156104b55750600060f81b6000548360ff166020811061048c57fe5b1a60f81b7effffffffffffffffffffffffffffffffffffffffffffffffffffffffffffff191614155b1561051a576000548260ff16602081106104cb57fe5b1a60f81b818360ff16815181106104de57fe5b60200101907effffffffffffffffffffffffffffffffffffffffffffffffffffffffffffff1916908160001a9053508180600101925050610468565b8092506060600080600960009054906101000a900473ffffffffffffffffffffffffffffffffffffffff1673ffffffffffffffffffffffffffffffffffffffff1663bf123553876040518263ffffffff1660e01b8152600401808060200180602001838103835284818151815260200191508051906020019080838360005b838110156105b4578082015181840152602081019050610599565b50505050905090810190601f1680156105e15780820380516001836020036101000a031916815260200191505b50838103825260018152602001807f3100000000000000000000000000000000000000000000000000000000000000815250602001935050505060006040518083038186803b15801561063357600080fd5b505afa158015610647573d6000803e3d6000fd5b505050506040513d6000823e3d601f19601f8201168201806040525060a081101561067157600080fd5b810190808051604051939291908464010000000082111561069157600080fd5b838201915060208201858111156106a757600080fd5b82518660018202830111640100000000821117156106c457600080fd5b8083526020830192505050908051906020019080838360005b838110156106f85780820151818401526020810190506106dd565b50505050905090810190601f1680156107255780820380516001836020036101000a031916815260200191505b506040526020018051604051939291908464010000000082111561074857600080fd5b8382019150602082018581111561075e57600080fd5b825186600182028301116401000000008211171561077b57600080fd5b8083526020830192505050908051906020019080838360005b838110156107af578082015181840152602081019050610794565b50505050905090810190601f1680156107dc5780820380516001836020036101000a031916815260200191505b50604052602001805160405193929190846401000000008211156107ff57600080fd5b8382019150602082018581111561081557600080fd5b825186600182028301116401000000008211171561083257600080fd5b8083526020830192505050908051906020019080838360005b8381101561086657808201518184015260208101905061084b565b50505050905090810190601f1680156108935780820380516001836020036101000a031916815260200191505b506040526020018051906020019092919080519060200190929190505050909192509091508093508194508295505050506040518060c001604052806000548152602001848152602001838152602001828152602001600081526020016000815250600360008201518160000155602082015181600101908051906020019061091d9291906109b7565b5060408201518160020155606082015181600301556080820151816004015560a08201518160050155905050600360020154600a6002015403600a6003018190555060646003600201546003800154028161097457fe5b04600a600401819055506003600201546003600401819055506064600360020154600380015402816109a257fe5b04600360050181905550505050505050505050565b828054600181600116156101000203166002900490600052602060002090601f016020900481019282601f106109f857805160ff1916838001178555610a26565b82800160010185558215610a26579182015b82811115610a25578251825591602001919060010190610a0a565b5b509050610a339190610a37565b5090565b610a5991905b80821115610a55576000816000905550600101610a3d565b5090565b9056fea26469706673582212203bf34faea4ff90b14692cc01fca25ce55c00a0a0d31f71adae4334301655712464736f6c63430006060033",
  "immutableReferences": {},
  "source": "// SPDX-License-Identifier: MIT\r\npragma solidity >=0.5.22 <0.9.0;\r\nimport \"./ProjectData.sol\";\r\nimport \"./FunderData.sol\";\r\nimport \"./DataManagement.sol\";\r\n\r\ncontract Transaction{\r\n    bytes32 Enter_id;\r\n    bytes32 Funder_id;\r\n    address DM_addr;\r\n    Enterprise_wallet ew;\r\n    DataManagement DM;\r\n    Funder_wallet fw;\r\n    \r\n    constructor(bytes32 enter_id,bytes32 funder_id,address addr)public{\r\n         Enter_id = enter_id;\r\n         Funder_id = funder_id;\r\n         DM_addr = addr;\r\n         DM = DataManagement(DM_addr);\r\n    }\r\n    struct Funder_wallet{\r\n        bytes32 Funder_ID;\r\n        uint256 investment_return;\r\n        uint256 investment_amount;\r\n        uint256 current_money;\r\n        uint256 interest_receivable;\r\n    }\r\n    \r\n    struct Enterprise_wallet{\r\n        bytes32 Enter_id;\r\n        string project_name;\r\n        uint256 Target_amount;\r\n        uint256 interest_return;\r\n        uint256 current_amount;\r\n        uint256 interest_payable;\r\n    }\r\n    \r\n    function Txn()public { //執行交易，進行資金利息轉移\r\n        bytes32 funderuserID;\r\n        uint256 investment_return;\r\n        uint256 investment_amount;\r\n        (funderuserID,investment_return,investment_amount) = DM.get_MatchingData(Enter_id);\r\n        fw = Funder_wallet(funderuserID,investment_return,investment_amount,0,0);\r\n        \r\n        string memory convertuserID;\r\n        uint8 i = 0;\r\n        while(i < 32 && Enter_id[i] != 0) {\r\n            i++;\r\n        }\r\n        bytes memory bytesArray = new bytes(i);\r\n        for (i = 0; i < 32 && Enter_id[i] != 0; i++) {\r\n            bytesArray[i] = Enter_id[i];\r\n        }\r\n        convertuserID = string(bytesArray);\r\n        \r\n        string memory project_name;\r\n        uint256 Target_amount;\r\n        uint256 interest_return;\r\n        (project_name,,,Target_amount,interest_return) = DM.get_UniqueProjectData(convertuserID,\"1\");\r\n        ew = Enterprise_wallet(Enter_id,project_name,Target_amount,interest_return,0,0);\r\n        \r\n        fw.current_money = fw.investment_amount - ew.Target_amount;\r\n        fw.interest_receivable = (ew.interest_return * ew.Target_amount)/100;\r\n        ew.current_amount = ew.Target_amount;\r\n        ew.interest_payable = (ew.interest_return * ew.Target_amount)/100;\r\n    }\r\n    \r\n    function get_unterID()public view returns(bytes32){\r\n        return Enter_id;\r\n    }\r\n    \r\n    function get_FunderWallet()public view returns(bytes32,uint256,uint256,uint256,uint256){\r\n        return(fw.Funder_ID,fw.investment_return,fw.investment_amount,fw.current_money,fw.interest_receivable);\r\n    }\r\n    \r\n    function get_EnterpriseWallet()public view returns(bytes32,string memory,uint256,uint256,uint256,uint256){\r\n        return(ew.Enter_id,ew.project_name,ew.Target_amount,ew.interest_return,ew.current_amount,ew.interest_payable);\r\n    }\r\n}",
  "sourcePath": "C:\\Users\\Jim\\AngelFund-System\\contracts\\Transaction.sol",
  "compiler": {
    "name": "solc",
    "version": "0.6.6+commit.6c089d02.Emscripten.clang"
  },
  "schemaVersion": "3.3.3",
  "updatedAt": "2021-08-03T13:35:30.271Z",
  "networkType": "ethereum",
  "devdoc": {
    "methods": {}
  },
  "userdoc": {
    "methods": {}
  }
}